:020000040800F2
:1000000050050020C5000008E92B0008052A00085B
:1000100000000000000000000000000000000000E0
:10002000000000000000000000000000EF2B0008AE
:100030000000000000000000ED2B0008412C00082B
:10004000D700000800000000D7000008D700000813
:10005000D7000008D7000008D700000839020008C0
:1000600000000000D7000008D7000008D7000008F3
:10007000D7000008D7000008D700000800000000E3
:10008000D70000080000000000000000E12C00087C
:1000900000000000D7000008D7000008D7000008C3
:1000A00000000000D700000800000000913900089F
:1000B0000348854600F0AEF8004800479D3A000826
:1000C000500500200448804704480047FEE7FEE74B
:1000D000FEE7FEE7FEE7FEE7DD2C0008B1000008C2
:1000E000F0B51FB40646002082B0054640240191B9
:1000F00000901BE0019922460F46304600F038F888
:10010000049A059B801A994110D31046194622463D
:1001100000F070F8361A8F41019722460120002125
:10012000009F00F067F838184D4100902046641E8B
:100130000028DFDC019B00982946324607B0F0BD5D
:1001400030B5434351435C18010C130C0D465D431D
:100150002C1980B292B20546554351430A0C09044A
:100160004D1962415843010C00044019514130BD02
:1001700010B5202A04DB0846203AD040002110BDEB
:100180000B46D340D0402024A21A91400843194680
:1001900010BDD2B201E00270401C491EFBD2704774
:1001A0000022F6E710B513460A4604461946FFF743
:1001B000F0FF204610BD70B50446002903D0002092
:1001C0002022012310E0002801D00020C043C046B7
:1001D000C0460DE02546D5408D4205D30D469540DD
:1001E000641B1D46954040191546521E002DF1DC3A
:1001F000214670BD10B5202A04DB0146203A91400B
:10020000002010BD914020239C1A0346E34019436F
:10021000904010BD064C0125064E05E0E36807CC72
:100220002B430C3C98471034B442F7D3FFF744FFFC
:10023000F83D0008183E000880B5102000F056FC7C
:1002400080BD000080B582B0EFF3108072B60190DF
:10025000074800F06BFA074801F06EFC064802F010
:100260000BFA00F031FBFFE700F090FEFCE7C04620
:100270002400002064000020AC00002080B58AB07B
:100280000890079106A90020087005900898C06A98
:1002900001210907884224D0FFE70898C06A012895
:1002A0001FD0FFE70898C06A02281AD0FFE7089815
:1002B000C06A032815D0FFE70898C06A042810D048
:1002C000FFE70898C06A05280BD0FFE70898C06AC6
:1002D000062806D0FFE70898C06A072801D0FFE784
:1002E000FFE7FFE708983421405C012804D1FFE7CD
:1002F00009A902200870CDE0089934220120885411
:10030000FFE7FFE70898006880680421084080083C
:10031000002800D0ABE0079840686049884200D1CF
:1003200080E00798006801210B4683400898026826
:10033000906A184390620898C06A090788423DD0C5
:10034000FFE70898C06A012838D0FFE70898C06A1C
:10035000022833D0FFE70898C06A03282ED0FFE7B1
:100360000898C06A042829D0FFE70898C06A0528C1
:1003700024D0FFE70898C06A06281FD0FFE7089836
:10038000C06A07281AD0FFE70798806808990968AB
:1003900049690722114088420FD0FFE70898026898
:1003A000516907208143516107998A680240089882
:1003B0000168486910434861FFE7FFE70798006854
:1003C000102805D0FFE707980068112829D1FFE71A
:1003D000079801680122D005920503921029049024
:1003E00001D003980490049A2F49086810430860CC
:1003F00007980068102813D1FFE72C4800682C49A3
:10040000FFF7D9FE01460A2048430590FFE705980B
:10041000002804D0FFE70598401E0590F7E7FFE7A6
:10042000FFE723E0079800680122824008980168EE
:10043000886A9043886207980068102805D0FFE713
:1004400007980068112810D1FFE707980168144841
:10045000144A01921029029001D001980290029A48
:100460001149086810400860FFE7FFE708E00899B5
:10047000886B20221043886306A901200870FFE7DB
:10048000FFE70899342200208854FFE7069809A95D
:100490000870FFE709A800780AB080BD01100000CD
:1004A000FFFF7FFFFFFFBFFF082701400000002084
:1004B00040420F0080B586B0049003A90020087068
:1004C00002900498002804D1FFE705A901200870D4
:1004D00023E10498806B00280AD1FFE704990020EB
:1004E000C863049934228854049800F037F9FFE770
:1004F0000498806BC006002800D501E103A80078AD
:10050000002800D0FCE004980068806804210840BE
:100510008008002800D0F3E00498806B0221084393
:10052000012109028843049988630498006881685E
:100530000320014000200129019013D1FFE7049816
:10054000006801680120C9070029009007D1FFE772
:1005500004980068C06880B2C00B0090FFE7009864
:100560000190FFE70198C007002816D1FFE7049823
:100570000068C0681821884304998A681043096894
:10058000C8600498006800690321890788430499BA
:100590004A68104309680861FFE704980168C86861
:1005A000604A1040C8600498017E8903427ED203ED
:1005B0001143827E52031143826A521E531E9A4196
:1005C00012038918C26811430269921E53425A41AC
:1005D000920011432422805C4000014302980843AA
:1005E00002900498C07E012817D1FFE70498807E0E
:1005F000002806D1FFE70298012109040843029070
:100600000AE00499886B2022104388630499C86B20
:1006100001221043C863FFE7FFE70498C069FF2188
:10062000C231884208D0FFE70498C169006A0143DB
:10063000029808430290FFE7029A04980168C8688C
:100640001043C8600498C06A01210907884223D07A
:10065000FFE70498C06A01281ED0FFE70498C06A2B
:10066000022819D0FFE70498C06A032814D0FFE7D6
:100670000498C06A04280FD0FFE70498C06A0528D0
:100680000AD0FFE70498C06A062805D0FFE704985F
:10069000C06A07280ED1FFE7049802685069072155
:1006A000884350610498C26A0A400168486910434F
:1006B0004861FFE704980068C0681B490840029938
:1006C00088420CD1FFE704990020C8630498806B2E
:1006D0000121084302218843049988630FE00498AC
:1006E000806B102108430221884304998863049A8F
:1006F000D16B01200143D16303A90870FFE708E033
:100700000499886B10221043886303A901200870A4
:10071000FFE7039805A90870FFE705A8007806B071
:1007200080BDC0461902FEFFE7FF3F8380B582B05F
:10073000019001980068234988420CD1FFE72249C3
:10074000086801225202904308600920C006032174
:1007500000F0D4F8FFE702B080BDC04680B588B095
:10076000079000200690059004900390029007984F
:1007700000681449884223D1FFE7FFE71248026866
:10078000012149020A430260006808400190019873
:10079000FFE7FFE70D480268012149040A430260B0
:1007A0000068084000900098FFE703200290039043
:1007B000002004900920C00602A900F0ADF9FFE76F
:1007C00008B080BD002401401810024014100240FF
:1007D00082B0009000982121405C02280DD0FFE7F4
:1007E000009904208863FFE70099202200208854A4
:1007F000FFE701A9012008701FE000980168086860
:100800000E2290430860009802681168012081431D
:10081000116000990A6C9040C96B4860FFE700992D
:10082000212201208854FFE70099202200208854CB
:10083000FFE701A900200870FFE701A8007802B0D7
:10084000704780B582B00190694600200870019819
:100850002121405C022807D0FFE70199042088632A
:1008600069460120087024E00198016808680E229A
:10087000904308600198026811680120814311606B
:10088000019A136C01469940D26B51600199212263
:100890008854FFE70199202200208854FFE701983F
:1008A000406B002804D0FFE70198416B8847FFE7C1
:1008B000FFE76846007802B080BD81B000900098E4
:1008C000806B01B07047000080B582B000200190BD
:1008D000C24307490A60086006490A600860064981
:1008E0000A60086000F010FB019802B080BDC046AD
:1008F000101002400C100240281002408BB00A90E9
:10090000099100200890FFE709980899C84000283D
:1009100000D1A1E00998089A012191400840079070
:100920000798002800D193E00898032188434B4999
:100930004058069008988007000F0F2181400698C4
:1009400008400690069805900A980921C906884231
:1009500003D1FFE70020049022E00A984049884232
:1009600003D1FFE70120039017E00A983D49884230
:1009700003D1FFE7022002900CE00A993A4A0320D3
:10098000052300939142019001D0009801900198B5
:100990000290FFE702980390FFE703980490FFE7B7
:1009A00005980499089A9207120F9140884223D122
:1009B000FFE7079A2D49086890430860079A2C4979
:1009C000086890430860079A2A49086890430860BD
:1009D000079A294908689043086008988007010F22
:1009E0000F2088400690069B089903208143FB4A0C
:1009F000885898438850FFE7089840000322134620
:100A000083400A9908689843086008994807C00E0F
:100A10000F2383400A98C90889004118086A98433F
:100A2000086208984000134683400A99C8689843B2
:100A3000C8600898012383400A9948689843486031
:100A40000898400082400A99886890438860FFE7D0
:100A50000898401C089057E70BB070470800014009
:100A60000004004800080048000C00480004014051
:100A7000040401400C0401400804014080B584B026
:100A8000014603A801800088102827D1FFE71448F9
:100A90000088012821DBFFE70920C0062021002271
:100AA000019200F0C4F901980E4A012111700C491D
:100AB0000A880A21514302AA11800B490968486239
:100AC000FFE702A8028808490B68DA620088C8605C
:100AD000FFE7054801F06AF8FFE7FFE704B080BDD3
:100AE00004000020380100206400002080B582B09E
:100AF00001A90880074800680988084208D0FFE774
:100B000001A80188034A11600088FFF7B7FFFFE7DB
:100B100002B080BD140401408BB00A9009910020FE
:100B20000890FFE7099800680899C840002800D19C
:100B300052E109980068089A012191400840079005
:100B40000798002800D143E1099840680321084034
:100B5000012807D0FFE709984068032108400228D0
:100B60002CD1FFE70A98806806900898400003217E
:100B700081400698884306900998C168089840000B
:100B8000814006980843069006980A9988600A985A
:100B90004068069008980121814006988843069095
:100BA000099840681021084001090898814006987A
:100BB0000843069006980A994860FFE7099840683C
:100BC00003210840032816D0FFE70A98C068069062
:100BD00008984000032181400698884306900998B0
:100BE000816808984000814006980843069006985E
:100BF0000A99C860FFE70998406803210840022865
:100C000020D1FFE70A980899C90889004018006AAE
:100C1000069008984007C00E0F218140069888432F
:100C200006900998016908984007C00E814006980F
:100C30000843069006980A99089AD20892008918E3
:100C40000862FFE70A9800680690089841000320B0
:100C500002468A40069991430691099949680140E4
:100C600008984000814006980843069006980A9923
:100C70000860099880798007002800D1A7E0FFE785
:100C8000AF48026801210A430260006808400590ED
:100C90000598FFE70898032188435049405806907B
:100CA00008988007000F0F2181400698884306901E
:100CB0000A980921C906884203D1FFE70020049061
:100CC00022E00A984649884203D1FFE701200390B9
:100CD00017E00A984349884203D1FFE702200290B7
:100CE0000CE00A99404A03200523009391420190A9
:100CF00001D00098019001980290FFE702980390BC
:100D0000FFE703980490FFE7049908988007000F15
:100D1000814006980843069006980899032291435B
:100D20002E4A8850314800680690079906988843F3
:100D3000069009988079C006002805D5FFE7079935
:100D4000069808430690FFE7069828490860284857
:100D5000006806900799069888430690099880795C
:100D60008006002805D5FFE70799069808430690F6
:100D7000FFE706981E4908601E480068069007991C
:100D8000069888430690099880798007002805D541
:100D9000FFE70799069808430690FFE7069815496C
:100DA00008601548006806900799069888430690E1
:100DB00009988079C007002805D0FFE707990698B1
:100DC00008430690FFE706980B490860FFE7FFE736
:100DD0000898401C0890A5E60BB070470800014039
:100DE0000004004800080048000C004808040140C6
:100DF0000C040140040401400004014084B000914F
:100E000001460098039102A90880039800690988A7
:100E1000084204D0FFE701A90120087003E001A9FE
:100E200000200870FFE701A8007804B0704783B085
:100E3000029001A80180684602700078002805D061
:100E4000FFE701A800880299886104E001A80088F2
:100E500002998862FFE703B0704700000548006808
:100E60007047C04626480278024908688018086022
:100E70007047C0464801002080B506490868102226
:100E800010430860032000F007F800F03FF800204E
:100E900080BDC0460020024080B584B00290174853
:100EA00000680190164801787D20C000FFF783F9A3
:100EB00001460198FFF77FF900F0DEFD002804D01D
:100EC000FFE703A90120087014E00298032809D85D
:100ED000FFE702990022D04300F04AF8029809493E
:100EE000086003E003A90120087003E003A90020C3
:100EF0000870FFE703A8007804B080BD0000002060
:100F00000C000020100000207047000082B0FFE7B6
:100F10000B48026801210A43026000680840019002
:100F20000198FFE7FFE77D480268012109070A43AE
:100F300002600068084000900098FFE702B0704728
:100F40001810024080B582B0014601A8017000214E
:100F5000405602F023FD02B080BD80B582B001464C
:100F600001A801700021405602F032FD02B080BDA0
:100F700080B584B0034603A803700291019200215A
:100F80004056029902F03AFD04B080BD02F078FDAF
:100F900080B586B004900020039002900498807879
:100FA000C007002800D193E001A9002008705B4829
:100FB0000068C000002810D4FFE7FFE75748026828
:100FC000012109070A430260006808400090009868
:100FD000FFE701A901200870FFE751480068C0053C
:100FE00000281DD4FFE74E49086801221202104371
:100FF0000860FFF733FF0390FFE749480068C0052A
:1010000000280CD4FFE7FFF729FF0399401A652851
:1010100004D3FFE705A9032008707BE0EDE7FFE7B5
:101020004048006803210902084002900298002805
:1010300038D0FFE702980499496803221202114050
:1010400088422FD0FFE737490868032212029043F5
:101050000290086801221204104308600868904357
:1010600008600298086002A80078C007002818D01D
:10107000FFE7FFF7F3FE0390FFE72A4800688007C9
:1010800000280DD4FFE7FFF7E9FE0399401A9649BF
:10109000884204D3FFE705A9032008703AE0ECE793
:1010A000FFE7FFE71F490868032212029043049AF2
:1010B00052681043086001A80078012807D1FFE7B3
:1010C000164908680122120790430860FFE7FFE70E
:1010D00004980078C007002809D0FFE71249086883
:1010E00003229043049A926810430860FFE7049833
:1010F00000788006002809D5FFE70B490868102210
:101100009043049AD26810430860FFE705A90020C5
:101110000870FFE705A8007806B080BD1C100240EB
:1011200000700040201002403010024080B584B0B2
:10113000029001910298002804D1FFE703A9012041
:101140000870C7E00198654909680122114088428A
:1011500012D9FFE76148026801218A43019B1A43C3
:101160000260006808400199884204D0FFE703A9A3
:1011700001200870AEE0FFE70298007880070028A1
:1011800016D5FFE7029800784007002807D5FFE74B
:10119000874908680722120210430860FFE7844964
:1011A0000868F0229043029A926810430860FFE7B3
:1011B00002980078C007002850D0FFE702984068E6
:1011C00001280BD1FFE7464800688003002804D4BB
:1011D000FFE703A9012008707CE01BE0029840684B
:1011E00002280BD1FFE73E4800688001002804D4A4
:1011F000FFE703A9012008706CE00AE038480068A6
:101200008007002804D4FFE703A90120087061E0EB
:10121000FFE7FFE76649086803229043029A526895
:1012200010430860FFF71AFE0090FFE7604800686F
:101230000C21084002994968890088420DD0FFE7D7
:10124000FFF70CFE0099401A2749884204D3FFE7B4
:1012500003A9032008703DE0E8E7FFE701981F4974
:10126000096801221140884212D2FFE71B48026838
:1012700001218A43019B1A430260006808400199DA
:10128000884204D0FFE703A90120087022E0FFE7AD
:1012900002980078400700280AD5FFE7444908680B
:1012A000072212029043029AD26810430860FFE7B7
:1012B00000F032F83E490968C9B20A090949895C57
:1012C000C8400C4908600320FFF7E6FD03A9002091
:1012D0000870FFE703A8007804B080BD002002403A
:1012E00000100240BE3D000889130000014800685C
:1012F0007047C0460000002080B5FFF7F7FF2C497B
:1013000009680722120211400A0A0249895CC84092
:1013100080BDC046CE3D000880B586B00020059057
:101320000490039002900190214800680590059870
:101330000C2108400090002832D0FFE700980428D4
:1013400004D0FFE70098082803D02AE01D48019048
:101350002AE005990F20820411408A0C1549895C06
:1013600002911549096801401448405C049005A8A1
:101370008078C00700280BD0FFE7049A11480023AB
:101380001946FEF7ADFE029AFEF7DAFE039004E07E
:1013900002990B4848430390FFE70398019003E04C
:1013A000FFE708480190FFE7019806B080BDC046FE
:1013B00004100240D63D00082C100240E63D000813
:1013C00000093D0000127A0080B588B006900698AA
:1013D000002804D1FFE707A90120087036E306982A
:1013E0000078C007002800D193E0FE4800680C2177
:1013F000084004280DD0FFE7FA4800680C21084097
:10140000082816D1FFE7F7480068C003002810D568
:10141000FFE7F74800688003002809D5FFE7069832
:101420004068002804D1FFE707A9012008700DE3F8
:101430006EE0FFE706984068012807D1FFE7EC4916
:10144000086801221204104308602CE006984068E6
:1014500000280BD1FFE7E6490868012213049843EE
:10146000086008689204904308601BE00698406892
:1014700005280BD1FFE7DE490868012293041843D1
:10148000086008681204104308600AE0D849086838
:10149000012213049843086008689204904308608E
:1014A000FFE7FFE7FFE7FFE706984068002817D04F
:1014B000FFE7FFF7D3FC0590FFE7CD480068800306
:1014C00000280CD4FFE7FFF7C9FC0599401A6528EE
:1014D00004D3FFE707A903200870B7E2EDE716E0A1
:1014E000FFF7BCFC0590FFE7C148006880030028B7
:1014F0000CD5FFE7FFF7B2FC0599401A652804D325
:10150000FFE707A903200870A0E2EDE7FFE7FFE788
:10151000FFE7069800788007002876D5FFE7B148F6
:1015200000680007800F00280DD0FFE7AD48006875
:101530000C210840082820D1FFE7AA480068C00312
:1015400000281AD4FFE7AA4800688007002809D5B8
:10155000FFE70698C068012804D0FFE707A901202B
:10156000087073E2A2490868F8229043069A12694B
:10157000D20010430860FFE746E00698C0680028E4
:1015800025D0FFE79A490868012210430860FFF759
:1015900065FC0590FFE796480068800700280CD49A
:1015A000FFE7FFF75BFC0599401A032804D3FFE728
:1015B00007A90320087049E2EDE78D490868F82281
:1015C0009043069A1269D200104308601BE08849D4
:1015D0000868012290430860FFF740FC0590FFE790
:1015E00083480068800700280CD5FFE7FFF736FC2A
:1015F0000599401A032804D3FFE707A903200870C0
:1016000024E2EDE7FFE7FFE7FFE706980078000731
:1016100000283ED5FFE70698C06900281CD0FFE7E8
:1016200074490868012210430860FFF717FC059011
:10163000FFE770480068800700280CD4FFE7FFF739
:101640000DFC0599401A032804D3FFE707A90320DE
:101650000870FBE1EDE71BE0664908680122904352
:101660000860FFF7FBFB0590FFE7FC480068800778
:1016700000280CD5FFE7FFF7F1FB0599401A032876
:1016800004D3FFE707A903200870DFE1EDE7FFE7D8
:10169000FFE7069800784007002800D4BBE002A9C5
:1016A00000200870EE480068C000002810D4FFE752
:1016B000FFE7EB480268012109070A43026000685E
:1016C000084001900198FFE702A901200870FFE798
:1016D000E4480068C00500281DD4FFE7E149086818
:1016E0000122120210430860FFF7B8FB0590FFE7E4
:1016F000DC480068C00500280CD4FFE7FFF7AEFB0C
:101700000599401A652804D3FFE707A9032008704C
:101710009CE1EDE7FFE7FFE706988068012806D126
:10172000FFE7D149086801221043086029E00698C4
:10173000806800280AD1FFE7CB490868012290435E
:101740000860086804229043086019E006988068E1
:1017500005280AD1FFE7C44908680422104308603D
:10176000086801221043086009E0BF4908680122A7
:10177000904308600868042290430860FFE7FFE791
:10178000FFE7FFE706988068002818D0FFE7FFF71B
:1017900065FB0590FFE7B4480068800700280DD47A
:1017A000FFE7FFF75BFB0599401AB049884204D375
:1017B000FFE707A90320087048E1ECE71EE0FFF708
:1017C0004DFB0590FFE7A84800688007002814D566
:1017D000FFE7FFF743FB0599401AA44988420BD362
:1017E00002E0C0460410024007A9032008702DE162
:1017F0000010024024100240E5E7FFE702A800784D
:10180000012807D1FFE7E849086801221207904341
:101810000860FFE7FFE706980078C006002864D557
:10182000FFE706984069012829D1FFE79049086839
:101830000422104308600868012210430860FFF783
:101840000DFB0590FFE78A480068800700280CD44C
:10185000FFE7FFF703FB0599401A032804D3FFE7CE
:1018600007A903200870F1E0EDE781490868F82234
:101870009043069A9269D2001043086034E00698BB
:101880004069401D00280ED1FFE77949086804220D
:10189000904308600868F8229043069A9269D20043
:1018A000104308601FE07249086804221043086072
:1018B0000868012290430860FFF7D0FA0590FFE71F
:1018C0006B480068800700280CD5FFE7FFF7C6FAD1
:1018D0000599401A032804D3FFE707A903200870DD
:1018E000B4E0EDE7FFE7FFE7FFE70698006A0028AE
:1018F00000D1A7E0574800680C210840082871D0A3
:10190000FFE70698006A02284ED1FFE752490868AF
:101910000122120690430860FFF7A0FA0590FFE746
:101920004D480068800100280CD5FFE7FFF796FAC4
:101930000599401A032804D3FFE707A9032008707C
:1019400084E0EDE7FFE74B4908680F229043069AD1
:10195000D26A104308603F4908683D221204904350
:10196000069B9A6A5B6A1A4310430860FFE73A498C
:1019700008680122120610430860FFF76FFA05900D
:10198000FFE735480068800100280CD4FFE7FFF727
:1019900065FA0599401A032804D3FFE707A9032035
:1019A000087053E0EDE71CE02B490868012212069D
:1019B00090430860FFF752FA0590FFE72648006859
:1019C000800100280CD5FFE7FFF748FA0599401A77
:1019D000032804D3FFE707A90320087036E0EDE7EA
:1019E000FFE72EE00698006A012804D1FFE707A967
:1019F000012008702AE01748006804901D4800681C
:101A0000039004980121090408400699496A884214
:101A100011D1FFE703980F2108400699C96A88424F
:101A200009D1FFE704980F21890408400699896AC3
:101A3000884204D0FFE707A90120087006E0FFE70D
:101A4000FFE7FFE707A900200870FFE707A8007875
:101A500008B080BD04100240001002402410024073
:101A60001C1002400070004020100240891300004A
:101A7000341002402C10024080B582B001900198D1
:101A800001F0B6F802B080BD81B0009001B070479F
:101A900081B0009001B0704780B582B0009000988E
:101AA000002804D1FFE701A9012008703FE0009859
:101AB0003D21405C002808D1FFE700993C2200202E
:101AC0008854009800F04EF8FFE700993D2202206C
:101AD0008854009901C901F00BF9009946220120B0
:101AE0008854FFE700993E220120885400993F2244
:101AF0008854009940228854009941228854FFE775
:101B0000FFE700994222012088540099432288541B
:101B1000009944228854009945228854FFE700998F
:101B20003D220120885401A900200870FFE701A888
:101B3000007802B080BD000080B582B001900198AD
:101B40000068F34988420AD1FFE717490868012273
:101B50001202904308601320FFF7F4F9FFE702B088
:101B600080BDC04680B584B0039003980068E84902
:101B7000884216D1FFE7FFE70B48026801210902FE
:101B80000A4302600068084002900298FFE71320B1
:101B9000019000221146FFF7EBF90198FFF7DDF9FC
:101BA000FFE704B080BDC0461C10024083B0019026
:101BB00001983D21405C012804D0FFE702A90120E3
:101BC000087032E001993D22022088540198016892
:101BD000C86801221043C86001980068154988420E
:101BE00006D0FFE7019800681349884212D1FFE749
:101BF0000198006880680721084000900098062836
:101C000007D0FFE7019801680868012210430860C7
:101C1000FFE706E0019801680868012210430860A8
:101C2000FFE702A900200870FFE702A8007803B0D0
:101C30007047C046002C01400004004081B0009075
:101C400000980168C86801229043C860FFE70098C7
:101C50000068006A0D4908420FD1FFE7009800684C
:101C6000006A0B49084207D1FFE70098016808683D
:101C7000012290430860FFE7FFE7FFE700993D225C
:101C800001208854002001B07047C04611110000A7
:101C90004404000081B0009001B0704780B584B06A
:101CA000039003980068C068029003980068006978
:101CB000019001A800788007002825D5FFE702A839
:101CC0000078800700281ED5FFE7039801680220EE
:101CD000C043086103990120087703980068806970
:101CE0008007002804D0FFE70398FFF7D3FF06E042
:101CF000039800F0E6F8039800F0E7F8FFE703998F
:101D000000200877FFE7FFE701A8007840070028D8
:101D100026D5FFE702A80078400700281FD5FFE777
:101D2000039801680420C0430861039902200877E2
:101D30000398006880698005800F002804D0FFE7C1
:101D40000398FFF7A7FF06E0039800F0BAF803989E
:101D500000F0BBF8FFE7039900200877FFE7FFE7F3
:101D600001A800780007002825D5FFE702A8007821
:101D7000000700281ED5FFE7039801680820C0432C
:101D8000086103990420087703980068C0698007F8
:101D9000002804D0FFE70398FFF77CFF06E00398D4
:101DA00000F08FF8039800F090F8FFE70399002007
:101DB0000877FFE7FFE701A80078C006002826D5CE
:101DC000FFE702A80078C00600281FD5FFE70398A8
:101DD00001681020C0430861039908200877039820
:101DE0000068C0698005800F002804D0FFE70398D1
:101DF000FFF750FF06E0039800F063F8039800F047
:101E000064F8FFE7039900200877FFE7FFE701A8E0
:101E10000078C007002810D0FFE702A80078C007AC
:101E2000002809D0FFE7039801680120C04308613A
:101E3000039800F04FF8FFE7FFE701A800780006DD
:101E4000002810D5FFE702A800780006002809D571
:101E5000FFE7039801688020C04308610398FFF7FB
:101E600013FEFFE7FFE701A800784006002810D521
:101E7000FFE702A800784006002809D5FFE703988D
:101E800001684020C0430861039800F047F8FFE76D
:101E9000FFE701A800788006002810D5FFE702A818
:101EA00000788006002809D5FFE703980168202004
:101EB000C04308610398FFF7EBFDFFE7FFE704B0BD
:101EC00080BD81B0009001B0704781B0009001B03A
:101ED0007047000080B582B00190019800680C49FD
:101EE000884212D1FFE70B48007800280DD0FFE7A9
:101EF0000920C00620210122FEF799FF0648FFF7BE
:101F00009DFE044900200870FFE702B080BDC04676
:101F100000200040380100206400002081B00090C3
:101F200001B0704782B001906846018002B07047EE
:101F300080B592B00490FFE7EFF310800990099804
:101F4000039001201190119880F310880498016883
:101F50000868092252019043086003981090109875
:101F600080F31088FFE7FFE7EFF3108008900898F0
:101F7000029001220F920F9880F310880498016854
:101F800088689043886002980E900E9880F31088BD
:101F9000FFE70498006E012818D1FFE7FFE7EFF391
:101FA000108007900798019001200D900D9880F304
:101FB000108804980168086810229043086001980E
:101FC0000C900C9880F31088FFE7FFE704980068F6
:101FD00080684006002839D5FFE7FFE7EFF310805F
:101FE00006900698009001200B900B9880F31088C3
:101FF00004980168886840229043886000980A909D
:102000000A9880F31088FFE70498406F00281CD0DE
:10201000FFE70498416F002048630498406FFEF783
:10202000D7FB002810D0FFE70498406FFEF745FC6F
:10203000202808D1FFE7049984221020885005A9A0
:102040000320087019E0FFE7FFE7FFE704995A2231
:102050000020885204990A680F21116204990A68C5
:102060009169082319439161049A80232021D1505A
:102070000499086605A90870FFE705A8007812B062
:1020800080BD000080B584B00390124802900268C1
:10209000012101911162026802211162026804218A
:1020A0001162026810211162026808211162FFF7B3
:1020B0003FFF019A0298084B0021D971997159711B
:1020C0001971D970997059701970044900F036FB74
:1020D00004B080BDAC0000203E010020390100208A
:1020E00080B5A8B00F900F980068C0690E900F9847
:1020F000006800680D900F98006880680C900E983A
:10210000EE4908400B900B98002817D1FFE70EA866
:1021100000788006002810D5FFE70DA8007880061B
:1021200000280AD5FFE70F98806E002804D0FFE74B
:102130000F98816E8847FFE742E2FFE70B9800287F
:1021400000D1FBE00CA80078C007002805D1FFE70C
:102150000D98DB49084200D1F0E00EA80078C007D6
:10216000002810D0FFE70DA84078C00700280AD04B
:10217000FFE70F980068012303620F9984228858B3
:1021800018438850FFE70EA800788007002811D573
:10219000FFE70CA80078C00700280BD0FFE70F98D6
:1021A0000168022008620F9984228858042318438A
:1021B0008850FFE70EA800784007002811D5FFE7F8
:1021C0000CA80078C00700280BD0FFE70F98016823
:1021D000042008620F9984228858022318438850EB
:1021E000FFE70EA800780007002816D5FFE70DA826
:1021F00000788006002806D4FFE70CA80078C00706
:1022000000280AD0FFE70F980068082303620F999F
:102210008422885818438850FFE70EA840780007AA
:10222000002812D5FFE70DA8C078400700280CD57C
:10223000FFE70F9801680120C00208620F9984220D
:102240008858202318438850FFE70F98842140586E
:10225000002872D0FFE70EA800788006002810D56D
:10226000FFE70DA80078800600280AD5FFE70F9841
:10227000806E002804D0FFE70F98816E8847FFE743
:10228000FFE70F98842140580A900F9800688068F3
:1022900040210840402806D0FFE70AA800782821FE
:1022A000084241D0FFE70F9800F010FF0F98006838
:1022B00080684006002832D5FFE7FFE7EFF3108083
:1022C00017901798099001202790279880F310887D
:1022D0000F9801688868402290438860099826908A
:1022E000269880F31088FFE70F98406F002811D0E0
:1022F000FFE70F98416FB34848630F98406FFEF7B0
:10230000A0FA002805D0FFE70F98406F416B88477F
:10231000FFE703E00F98FFF7B5FEFFE703E00F9834
:10232000FFF7B0FEFFE707E00F98FFF7ABFE0F994E
:10233000842200208850FFE7FFE741E10F98006EFC
:10234000012800D016E10EA80078C006002800D4AD
:1023500010E10DA80078C006002800D40AE10F980B
:102360000168102008620F98006880684006002805
:1023700000D490E00F98406F0068416808A8018081
:102380000088002800D185E008A800880F9958220D
:10239000895A884200DB7DE008980F995A228852BA
:1023A0000F98406F8069202867D0FFE7FFE7EFF3C1
:1023B000108016901698079001222592259880F398
:1023C00010880F9801680868120290430860079807
:1023D0002490249880F31088FFE7FFE7EFF3108044
:1023E00015901598069001222392239880F3108867
:1023F0000F98016888689043886006982290229818
:1024000080F31088FFE7FFE7EFF310801490149833
:10241000059001202190219880F310880F98016881
:10242000886840229043886005982090209880F327
:102430001088FFE70F998022202088500F990020F4
:102440000866FFE7EFF310801390139804900120C3
:102450001F901F9880F310880F9801680868102259
:102460009043086004981E901E9880F31088FFE740
:102470000F98406FFEF7ACF9FFE70F99022048660E
:102480000F985821415A5A22825A891A89B2FFF765
:1024900049FDFFE794E00F9A5820105A5A21525AEA
:1024A000801A03AA10800F98405A002861D0FFE7D5
:1024B00003A8008800285CD004E0C0460F08000094
:1024C00020010004FFE7EFF31080129012980290B1
:1024D00001201D901D9880F310880F9801680868EE
:1024E000092252019043086002981C901C9880F3C6
:1024F0001088FFE7FFE7EFF310801190119801902B
:1025000001221B921B9880F310880F98016888683D
:102510009043886001981A901A9880F31088FFE71A
:102520000F998022202088500F99002008660F996B
:102530008866FFE7EFF3108010901098009001205C
:102540001990199880F310880F9801680868102274
:102550009043086000981890189880F31088FFE75F
:102560000F99022048660F9803A90988FFF7DAFC43
:10257000FFE725E00EA800780006002810D5FFE749
:102580000DA80078000600280AD5FFE70F98C06E56
:10259000002804D0FFE70F98C16E8847FFE70FE0DF
:1025A0000EA80078400600280AD5FFE70DA800789D
:1025B0004006002804D5FFE70F9800F0DFFDFFE795
:1025C00028B080BDA930000880B582B00090009886
:1025D000002804D1FFE701A90120087047E0009816
:1025E0008069002801D0FFE700E0FFE70098C06F96
:1025F000002808D1FFE7009978220020885400982D
:1026000000F054F8FFE700992420C867009801689B
:1026100008680122904308600098406A002804D0AE
:10262000FFE7009800F0E4FBFFE7009800F04CFFA4
:10263000012804D1FFE701A90120087017E00098E4
:10264000016848680122D3029843486000980168F5
:1026500088680823984388600098016808681043D8
:102660000860009800F072FC01A90870FFE701A85B
:10267000007802B080BD000080B582B00190019862
:102680000068824988420FD1FFE72A490868012281
:102690009203904308600920C0060C21FEF72EF932
:1026A0001B20FEF74FFCFFE702B080BD80B58AB06B
:1026B00009900020089007900690059004900998D2
:1026C00000687249884232D1FFE7FFE71948026883
:1026D000012189030A4302600068084003900398BF
:1026E000FFE7FFE714480268012149040A4302603A
:1026F0000068084002900298FFE70C200490022036
:10270000059000200090069003200790012008907B
:102710000920C00604A9FEF7FFF9009A1B200190CA
:102720001146FEF725FC0198FEF717FCFFE70AB0FB
:1027300080BDC046181002401410024080B588B019
:102740000390029101A8028003988021405820281C
:102750004FD1FFE70298002805D0FFE701A80088C5
:10276000002804D1FFE704A90120087045E0039880
:10277000806801210903884210D1FFE703980069AE
:1027800000280BD1FFE702A80078C007002804D07A
:10279000FFE704A9012008702FE0FFE7039900205C
:1027A00008660398006840680002002818D5FFE713
:1027B000FFE7EFF310800590059800900122079243
:1027C000079880F310880398016808689206104300
:1027D000086000980690069880F31088FFE7FFE7EE
:1027E0000398029901AA128800F096FF04A90870C4
:1027F00003E004A902200870FFE704A8007808B0ED
:1028000080BD000080B584B0039003980068F4494F
:10281000884239D1FFE7F34801781D4803785A1CF4
:1028200002701C4AD15402AA0321117000780228B8
:1028300017DBFFE7174840780190052804D0FFE731
:102840000198062804D007E002A90420087007E0D8
:1028500002A90220087003E002A903200870FFE724
:10286000FFE70B48007802A90978884206DBFFE7FA
:1028700001F0ACF9064900200870FFE7D748D949B4
:102880000122FFF75BFFFFE704B080BD0038014085
:102890003A0100203E01002010B58AB0089007914F
:1028A00006A8028005930898C06F202800D09BE0FE
:1028B0000798002805D0FFE706A80088002804D163
:1028C000FFE709A90120087092E0089880680121BB
:1028D0000903884210D1FFE70898006900280BD14E
:1028E000FFE707A80078C007002804D0FFE709A980
:1028F000012008707CE0FFE70899842200208850BE
:1029000008992120C867FEF7A9FA0290069808994D
:102910005022885206980899522288520898806856
:102920000121090388420AD1FFE7089800690028BD
:1029300005D1FFE7002004900798039004E0079872
:10294000049000200390FFE7FFE708985221405AC7
:10295000002830D0FFE70898029B0599009180215C
:10296000002200F091FF002807D0FFE708992020FF
:10297000C86709A9032008703AE0049800280BD121
:10298000FFE7039800881C490840089909680885F2
:102990000398801C039008E004980078089909685F
:1029A00008850498401C0490FFE708995222885A31
:1029B000401E8852C9E70898029B05990091402162
:1029C000002200F061FF002807D0FFE708992020CF
:1029D000C86709A9032008700AE008992020C86781
:1029E00009A90020087003E009A902200870FFE788
:1029F00009A800780AB010BDFF01000081B0009066
:102A000001B07047FFE7FEE780B586B00022019273
:102A10000592049203921E4802901E490160426092
:102A20008260C26001210161042343610276427623
:102A30008276C276FF23C233C36102622423C2546A
:102A40008162FDF737FD002803D0FFE7FDF7FAFBB1
:102A5000FFE7002003900120010304910007059087
:102A60000B4803A9FDF70AFC002803D0FFE7FDF798
:102A7000E9FBFFE701200390054803A9FDF7FEFBF2
:102A8000002803D0FFE7FDF7DDFBFFE706B080BDC0
:102A9000240000200024014080B58EB000200D905D
:102AA0000C900B900A900990FFE72C4802680121D6
:102AB00049040A4302600068084008900898FFE74C
:102AC000FFE726480268012189040A430260006882
:102AD000084007900798FFE70920C00601902021D1
:102AE000009101220392FEF7A2F9019810210991A9
:102AF000112109040A91022102910B9109A9049163
:102B0000FEF70AF8009B0198039A049909930A9228
:102B10000B9203220C92FDF7FFFF0198039A049990
:102B20001B239B010993002305930A930B92FDF746
:102B3000F3FF029B03980499059A09930A920B905C
:102B40000748FDF7E9FF059A072006901146FEF7B2
:102B50000FFA0698FEF701FA0EB080BD141002407D
:102B6000000400487047000080B560489D4901603E
:102B70002F214160002181606322C2600161816177
:102B8000FEF78AFF002803D0FFE7FDF75BFBFFE7B6
:102B90005648FFF70BF880BD80B582B00F48019012
:102BA0000F4901604B21C901416000218160C16072
:102BB00001610C2242618161C16101624162FFF7E2
:102BC00003FD002803D0FFE7FDF73CFBFFE70348C8
:102BD00004490122FFF7B2FD02B080BDAC00002025
:102BE0000038014039010020FFE7FEE770477047D9
:102BF00080B584B002900298401E000E002803D0D9
:102C0000FFE70120039011E00298401E0949086087
:102C100000200190C043032100F0F0FE0198064916
:102C20000860064A072111600390FFE7039804B08B
:102C300080BDC04614E000E018E000E010E000E0D5
:102C400080B5FEF70FF980BD80B596B00AA8009058
:102C50003021FDF7A5FA0098002101910991089112
:102C60000791069105910491039102911A220A920B
:102C700001220D920F9210230E93109311920222B3
:102C8000129213910522D20414921591FEF79CFB27
:102C9000002803D0FFE7FDF7D5FAFFE707200690ED
:102CA0000220079000200890099006A80121FEF755
:102CB0003DFA002803D0FFE7FDF7C4FAFFE7012043
:102CC00002900020049002A8FEF762F9002803D0C9
:102CD000FFE7FDF7B7FAFFE716B080BD70470000C9
:102CE00080B50248FEF7DAFF80BDC04664000020D0
:102CF00083B00290019102980068009002983749D1
:102D0000884205D0FFE70298354988420AD1FFE79B
:102D1000009870218843009001984168009808430A
:102D20000090FFE702982D49884214D0FFE70298EF
:102D30002B4988420FD0FFE702982A4988420AD0DF
:102D4000FFE702982849884205D0FFE70298274903
:102D500088420BD1FFE700980321090288430090C5
:102D60000198C168009808430090FFE7009880210F
:102D700088430199496908430090009802990860C6
:102D8000019880680299C862019800680299886277
:102D90000298124988420AD0FFE7029812498842F5
:102DA00005D0FFE702981149884205D1FFE7019855
:102DB000006902990863FFE70299012048610298BF
:102DC0000069C007002806D0FFE7029908690122C0
:102DD00090430861FFE703B07047C046002C0140F4
:102DE0000004004000200040004401400048014031
:102DF00081B0009000982421405C000700280CD589
:102E0000FFE70098006840680121C90388430099E2
:102E10004A6B104309684860FFE700982421405C32
:102E2000C00700280CD0FFE7009800684068012127
:102E30004904884300998A6A104309684860FFE79B
:102E400000982421405C800700280CD5FFE70098FB
:102E5000006840680121090488430099CA6A104348
:102E600009684860FFE700982421405C400700287B
:102E70000CD5FFE700980068406801218904884369
:102E800000990A6B104309684860FFE70098242105
:102E9000405CC00600280CD5FFE7009800688068F9
:102EA00001210903884300998A6B104309688860EF
:102EB000FFE700982421405C800600280CD5FFE73E
:102EC0000098006880680121490388430099CA6B13
:102ED000104309688860FFE700982421405C4006A1
:102EE00000281DD5FFE7009800684068012109050A
:102EF0008843009A136C1843126850600098006C65
:102F000088420CD1FFE7009800684068032149051A
:102F1000884300994A6C104309684860FFE7FFE75F
:102F200000982421405C000600280CD5FFE700989B
:102F3000006840680121C904884300998A6C1043E5
:102F400009684860FFE701B07047000080B590B0A5
:102F500005900599842200208850FDF77FFF04909A
:102F60000598006800680007002831D5FFE705983C
:102F7000049B4C49009101214905002200F084FC8A
:102F8000002824D0FFE7FFE7EFF3108009900998AD
:102F9000039001200F900F9880F310880598016826
:102FA000086880229043086003980E900E9880F382
:102FB0001088FFE705992020C867FFE70599782268
:102FC00000208854FFE706A90320087065E0FFE7AA
:102FD0000598006800684007002849D5FFE7059874
:102FE000049B3049009101218905002200F04CFC2E
:102FF00000283CD0FFE7FFE7EFF310800890089827
:10300000029001200D900D9880F3108805980168BA
:103010000868092252019043086002980C900C98AD
:1030200080F31088FFE7FFE7EFF310800790079821
:10303000019001220B920B9880F31088059801688B
:1030400088689043886001980A900A9880F31088F5
:10305000FFE70599802220208850FFE70599782214
:1030600000208854FFE706A90320087015E0FFE759
:1030700005992020C867059980228850059900206D
:10308000086605994866FFE705997822002088546C
:10309000FFE706A900200870FFE706A8007810B037
:1030A00080BDC046FFFFFF0180B582B0019001984E
:1030B000406A009000995A220020885200995222BA
:1030C00088520098FEF7DEFF02B080BD8DB00390FD
:1030D000FFE7EFF3108006900698029001200C9015
:1030E0000C9880F31088039801680868092252013F
:1030F0009043086002980B900B9880F31088FFE7CC
:10310000FFE7EFF3108005900598019001220A92E5
:103110000A9880F310880398016888689043886053
:1031200001980990099880F31088FFE70398006ED2
:10313000012818D1FFE7FFE7EFF31080049004980F
:10314000009001200890089880F310880398016887
:10315000086810229043086000980790079880F351
:103160001088FFE7FFE70399802220208850039909
:1031700000200866039988660DB0704780B586B058
:103180000290FFE7EFF31080039003980190012075
:103190000590059880F3108802980168086840221D
:1031A0009043086001980490049880F31088FFE72A
:1031B00002992020C86702990020C8660298FFF78C
:1031C0001DFC06B080BD80B594B0079007985C21C7
:1031D000405A05A90880079880214058222800D02D
:1031E000A9E007980068808C04A908800798406DC2
:1031F0000690049805990840069908800799486D3B
:10320000801C4865079A5A21505A401E5052079810
:10321000405A002800D08DE0FFE7EFF310800B90BC
:103220000B98039001201390139880F3108807984F
:1032300001680868092252019043086003981290BF
:10324000129880F31088FFE7FFE7EFF310800A90F1
:103250000A98029001221192119880F31088079821
:10326000016888689043886002981090109880F3F5
:103270001088FFE7079980222020885007990020B6
:103280008866079948660798006840680002002829
:1032900018D5FFE7FFE7EFF3108009900998019038
:1032A00001220F920F9880F3108807980168086830
:1032B00092069043086001980E900E9880F3108853
:1032C000FFE7FFE70798006E01282ED1FFE7079977
:1032D00000200866FFE7EFF3108008900898009040
:1032E00001200D900D9880F31088079801680868F8
:1032F00010229043086000980C900C9880F310887E
:10330000FFE707980068C0691021084000090128FC
:1033100005D1FFE70798016810200862FFE70798CA
:103320005821415AFEF7FEFD03E00798FFF76AFABD
:10333000FFE7FFE706E00798016888690822104365
:103340008861FFE714B080BD80B594B007900798FE
:103350005C21405A06A908800798802140582228FD
:1033600000D0A7E007980068808C05A90880059820
:10337000069908400799496D08700799486D401CE7
:103380004865079A5A21505A401E50520798405A91
:10339000002800D08DE0FFE7EFF310800B900B9832
:1033A000049001201390139880F310880798016807
:1033B00008680922520190430860049812901298FC
:1033C00080F31088FFE7FFE7EFF310800A900A9878
:1033D000039001221192119880F3108807980168D8
:1033E00088689043886003981090109880F3108844
:1033F000FFE70799802220208850079900208866DF
:10340000079948660798006840680002002818D5A8
:10341000FFE7FFE7EFF3108009900998029001227F
:103420000F920F9880F31088079801680868920639
:103430009043086002980E900E9880F31088FFE782
:10344000FFE70798006E01282ED1FFE707990020BB
:103450000866FFE7EFF310800890089801900120BC
:103460000D900D9880F31088079801680868102265
:103470009043086001980C900C9880F31088FFE747
:1034800007980068C069102108400009012805D18B
:10349000FFE70798016810200862FFE707985821A6
:1034A000415AFEF73FFD03E00798FFF7ABF9FFE74E
:1034B000FFE706E0079801688869082210438861E1
:1034C000FFE714B080BD000080B58AB0099004A960
:1034D00000200870099988680A6910434A691043F6
:1034E000C96908430890099800680068874908403E
:1034F00008990843099909680860099800684068B4
:103500000321090388430999CA6810430968486080
:103510000998806908900998016A089808430890FA
:103520000998006880680B210902884308990843BC
:10353000099909688860FFE7754800680321084019
:10354000029003281CD80298810001A040588746A9
:1035500061350008713500087935000869350008C3
:1035600006A9002008700FE006A9022008700BE0F1
:1035700006A90420087007E006A90820087003E0E7
:1035800006A910200870FFE7FFE70998C06901212C
:10359000C90388425ED1FFE706A800780190082899
:1035A00025D80198810001A040588746D1350008F0
:1035B000EF350008D9350008EF350008DF35000881
:1035C000EF350008EF350008EF350008E735000853
:1035D000FDF792FE039010E04E4803900DE0FDF7DA
:1035E0009BFE039009E00120C003039005E000204A
:1035F000039004A901200870FFE70398002828D051
:10360000FFE703984000099949684A088018FCF7C9
:10361000D2FD05900598102816D3FFE705A840882D
:10362000002811D1FFE705990F20814307A80180E9
:1036300005990E2211404A0807991143018000881C
:1036400009990968C86003E004A901200870FFE730
:10365000FFE751E006A800780090082825D80098D8
:10366000810001A0405887468D360008AB3600081F
:1036700095360008AB3600089B360008AB360008CC
:10368000AB360008AB360008A3360008FDF734FE61
:10369000039010E01F4803900DE0FDF73DFE0390FE
:1036A00009E00120C003039005E00020039004A975
:1036B00001200870FFE7039800281CD0FFE703985B
:1036C000099949684A088018FCF775FD0590059826
:1036D00010280BD3FFE705A84088002806D1FFE794
:1036E00005A8008809990968C86003E004A90120B9
:1036F0000870FFE7FFE7FFE709990020886609994E
:10370000C86604A800780AB080BDC046F369FFFF10
:103710003010024000127A008FB00590049103A887
:1037200002800498059948650398059958228852A3
:10373000039805995A228852059900208866FFE768
:103740000598806801210903884210D1FFE7059898
:103750000069002805D1FFE705995C224748885297
:1037600004E005995C22FF208852FFE71AE00598E3
:103770008068002810D1FFE705980069002805D16E
:10378000FFE705995C22FF20885204E005995C223E
:103790007F208852FFE704E005995C2200208852D0
:1037A000FFE7FFE7FFE7059984220020885005998D
:1037B000802222208850FFE7EFF3108008900898BD
:1037C000029001220E920E9880F3108805980168ED
:1037D00088681043886002980D900D9880F31088D7
:1037E000FFE70598806801210903884209D1FFE7B6
:1037F00005980069002804D1FFE7059921488866EB
:1038000003E005991E488866FFE7059800690028CF
:1038100019D0FFE7FFE7EFF31080079007980190BA
:1038200001200C900C9880F31088059801680868B6
:10383000092252011043086001980B900B9880F305
:103840001088FFE717E0FFE7EFF310800690069877
:10385000009001200A900A9880F31088059801686A
:10386000086820221043086000980990099880F3A6
:103870001088FFE7FFE700200FB07047FF0100004E
:1038800049330008C731000810B586B0089C049081
:10389000039102A802700193FFE704980068C069D1
:1038A00003990840401A4142484102A909788842D8
:1038B00066D1FFE70898401C002860D0FFE7FDF7BD
:1038C000CDFA0199401A0899884204D8FFE7089870
:1038D000002804D1FFE705A90320087054E00498EC
:1038E000006800684007002848D5FFE70398802853
:1038F00044D0FFE70398402840D0FFE704980068D1
:10390000C06908210840C008012816D1FFE70498C3
:1039100001680820009008620498FFF7D7FB009820
:10392000049984228850FFE7049978220020885463
:10393000FFE705A90120087026E004980068C06927
:103940000121C9020840C00A012816D1FFE70498E6
:1039500001680120C00208620498FFF7B7FB0499D0
:10396000842220208850FFE7049978220020885480
:10397000FFE705A90320087006E0FFE7FFE78CE7F3
:1039800005A900200870FFE705A8007806B010BD63
:1039900080B5E948FEF7A4FB80BDC04681B0014672
:1039A000684601700021405600280DD4FFE76846A4
:1039B00001781F2001400120884004490860BFF3BE
:1039C0004F8FBFF36F8FFFE701B0704780E100E0DA
:1039D00081B001466846017000214056002809D494
:1039E000FFE7684601781F20014001208840024916
:1039F0000860FFE701B0704700E100E070B582B0F9
:103A0000024601A80270009100214056002816D4F9
:103A1000FFE7002401A908570322D3431840174A9F
:103A2000805809578C07E50EFF24AC40A043009C4A
:103A3000A401E4B2AC402043194088501AE001A927
:103A400008780F24204008380322D34318400A4A3C
:103A50008058002549578D07EE0EFF25B540A84335
:103A6000009DAD01EDB2B540284321400839194011
:103A70008850FFE702B070BD1CED00E000E400E0FC
:103A8000BFF34F8F034904480860BFF34F8FFFE730
:103A900000BFFDE70CED00E00400FA0580B584B03E
:103AA00000200390FDF7E8F9FFF7CEF8FEF7F4FFEA
:103AB000FFF772F8FEF7A8FFFFF754F8FFF754F886
:103AC000FFE79B48007802900A2872D8029881008C
:103AD00001A040588746C046053B0008A53B0008AA
:103AE000AD3B0008B53B0008B53B0008B53B0008FE
:103AF000B53B0008B53B0008B53B0008B53B0008E6
:103B0000B53B00088B49002008700920C0060190D1
:103B1000202101220092FDF78AF90099019889027B
:103B2000FDF76CF9002806D1FFE7824908780122E9
:103B300010430870FFE70920C00601214902FDF784
:103B40005DF9002806D1FFE77A4908780222104380
:103B50000870FFE71A480221FDF750F9002806D146
:103B6000FFE774490878042210430870FFE7092032
:103B7000C0068021FDF742F9002806D1FFE76D4914
:103B80000878082210430870FFE784490020088065
:103B9000814908800B4908800B490880644901204D
:103BA00008700BE062490220087007E000F0C6F8D8
:103BB00004E0FFE75E4900200870FFE781E7C046A8
:103BC000000400483C0100201800002080B586B0A9
:103BD00053490A7805A80270497804AA1170002197
:103BE000039102910078102806DBFFE705A8007812
:103BF000552801D0FFE791E004A80078401E01900D
:103C0000052800D981E00198810001A0405887462D
:103C1000293C00080B3D00084D3C00086D3C0008A5
:103C20008D3C0008CB3C000805A800784149097884
:103C300088420AD1FFE73A4881780A20484356492A
:103C4000088002A906200870FFE75FE005A8007859
:103C500038490978884208D1FFE7314880783249ED
:103C6000087002A906200870FFE74FE005A8007859
:103C700030490978884208D1FFE7294880782B49E4
:103C8000087002A906200870FFE73FE005A8007849
:103C9000552806D1FFE740490020088024490870D4
:103CA0000FE03D49002008801D498A781D4B1A709D
:103CB000CA781D4B1A7009791C4A11701C4908708A
:103CC000FFE702A90620087020E005A800780F2869
:103CD0001ADCFFE7059802A90091087006204870D9
:103CE0002D4800880A21FCF766FA009988700D4873
:103CF000007808710C48007848710C480078887189
:103D00000B480078C871FFE700E007E00A4800218F
:103D1000CB4302A90822FEF7BFFDFFE706B080BD36
:103D20003E0100201E0000201B000020200000207B
:103D30001F0000201A000020AC00002080B5FDF715
:103D40008DF813490968401A1249096888421ED340
:103D5000FFE7FDF783F80E4908600F4800880F4918
:103D60000988884205DAFFE70B490888401C08806B
:103D70000CE00948008809490988884205DDFFE709
:103D800005490888401E0880FFE7FFE7FFE780BD80
:103D90003401002008000020040000201C00002046
:103DA00002E008C8121F08C1002AFAD17047704704
:103DB000002001E001C1121F002AFBD17047000062
:103DC00000000000000001020304060708090000CB
:103DD00000000102030402030405060708090A0B98
:103DE0000C0D0E0F10100102030405060708090A46
:103DF0000B0C0D0E0F100000183E000800000020F4
:103E000018000000A03D0008303E00081800002007
:103E100038050000B03D000800127A00F4010000EF
:103E20000500000001000000040000000000000088
:04000005080000B13E
:00000001FF
