:020000040800F2
:10000000A807002055010008F31B0008F11B000899
:1000100000000000000000000000000000000000E0
:10002000000000000000000000000000F71B0008B6
:100030000000000000000000F51B0008F91B00088C
:100040006701000800000000670100086701000860
:1000500067010008670100086701000885100008B3
:100060000000000067010008670100086701000840
:100070006701000867010008670100080000000030
:100080006701000800000000000000000D1C0008CF
:100090000000000067010008670100086701000810
:1000A000000000006701000800000000192000089F
:1000B00000F002F800F03EF80CA030C80838241810
:1000C0002D18671EA246AB4654465D46AC4201D190
:1000D00000F030F87E460F3EB6460FCC0126334284
:1000E00000D0FB1A3343A246AB4618475C390000E8
:1000F0007C390000103A02D378C878C1FAD8520788
:1001000001D330C830C101D504680C6070470000CD
:100110000023002400250026103A01D378C1FBD823
:10012000520700D330C100D50B6070471FB51FBD0B
:1001300010B510BD00F02DF81146FFF7F7FF02F0E3
:100140006BF900F045F803B4FFF7F2FF03BC00F0D1
:100150004BF800000748804707480047FEE7FEE7E6
:10016000FEE7FEE7FEE7FEE704480549054A064BC1
:1001700070470000091C0008B1000008A801002019
:10018000A8070020A8030020A8030020704770479C
:100190007047754600F024F8AE46050069465346A0
:1001A000C008C000854618B020B5FFF7DDFF60BC71
:1001B000B64600260027C0C5C0C5C0C5C0C5C0C55D
:1001C000C0C5C0C5C0C5403D490849008D467047FF
:1001D00010B50446C046C0462046FFF7B4FF10BD28
:1001E000004870470800002001491820ABBEFEE718
:1001F0002600020070470000002203098B422CD326
:10020000030A8B4211D300239C464EE003460B4366
:100210003CD4002243088B4231D303098B421CD3C8
:10022000030A8B4201D394463FE0C3098B4201D3BA
:10023000CB01C01A524183098B4201D38B01C01AF2
:10024000524143098B4201D34B01C01A5241030969
:100250008B4201D30B01C01A5241C3088B4201D318
:10026000CB00C01A524183088B4201D38B00C01AC5
:10027000524143088B4201D34B00C01A5241411AEC
:1002800000D201465241104670475DE0CA0F00D0CF
:100290004942031000D3404253409C4600220309C8
:1002A0008B422DD3030A8B4212D38901FC2212BA4E
:1002B000030A8B420CD3890192118B4208D3890126
:1002C00092118B4204D389013AD0921100E089093E
:1002D000C3098B4201D3CB01C01A524183098B421F
:1002E00001D38B01C01A524143098B4201D34B0108
:1002F000C01A524103098B4201D30B01C01A52416B
:10030000C3088B4201D3CB00C01A524183088B42F1
:1003100001D38B00C01A5241D9D243088B4201D37A
:100320004B00C01A5241411A00D2014652411046B8
:1003300063465B1001D34042002B00D54942704711
:1003400063465B1000D3404201B50549002802DC3A
:10035000491C084000E00846C046C04602BD00BF38
:10036000FFFFFF7F0246C80FC00781434B0030B537
:100370004B405B009B0D20D01923DB06C9180123DD
:100380001B05994220DB0324A40704251346AB4038
:100390000BD3002B04D1EB0613409B00E34204D4A3
:1003A00001246407002312195941FF231B059942B8
:1003B0000BD2C9000143500F09E0CB0204D5014321
:1003C0000803024305D0054830BDFF21C905084395
:1003D00030BD084607210905884330BD0000C07FB5
:1003E000F0B50C46871A9C410D46861A9D4103D2F2
:1003F000C01BA141D21963410D0D1F0DC94EEC1B4D
:10040000AE435CD07F057F0D0026002F51D02D0517
:10041000AC46A943DD020123ED0A1B051D43202341
:100420001B1B24D41746E740381871412F46E7407C
:10043000CC199D402818314661410C0D27D16144EB
:100440009A4013D50023401C594152000ED1400858
:10045000400001224B005205D34207D3052040073C
:10046000C14201D5B04900E0B0493046F0BD6B0053
:10047000002A00D001229A181F23203C1B1B01D503
:10048000002302E0E540281871410C0DD7D001246B
:1004900024050919C407CD0740084908E40F28437B
:1004A0006144002CD5D00024401C61419A40D0D139
:1004B000CDE76A05520DD9D1C90FC907D5E79C4DC3
:1004C0004E00002801D0012400E0002434195F0010
:1004D000002A01D0012600E00026BE19954FAC424B
:1004E0000CD8AE420AD8B44206D001256D05EC42C4
:1004F000BCD010461946F0BD9942FCD000203946C8
:10050000F0BDF0B51FB40C460F46811A9F41254639
:10051000861A9D4106D20125ED076F40401ABC4165
:1005200052187B41210D1E0D8D1BAC467D4D8D4318
:100530007ED075056D0D7CD00D05AE46AC431B031A
:100540001B0B794D52429D41202366469B1B14D3C1
:100550001746F740381800260090744160462F4631
:100560000741E41900989D402818664116D4714649
:1005700071189A4025D5012320E093182A466A4134
:100580005200002B00D0521C1E23203E9B1B002B30
:1005900061DD3541EE1728186641E8D5001876412F
:1005A0005B1C9A4000D3401C4B05F3181524E34014
:1005B00010D3002B52D071467118D30FC01802D33C
:1005C000491C05B0F0BD0123DB079A42F9D1400870
:1005D0004000F6E701225205B21801D1002853D09D
:1005E0000123CC0ADB029943891E002A08D1020CA0
:1005F00003D0020C0004103902E00246002020392A
:100600000023550B05D112020823550B01D15201CD
:100610000D23550C01D112011B1DD50C01D19200E7
:100620009B1C150D01D152005B1C2025EE1A01E028
:100630002CE022E00546F54015439840CA1AE10730
:1006400069181305C918002ABBDA032040070818E7
:10065000C10FC9070FE071466118B2E7F107400802
:100660000843711071444A000CD001235B059A4283
:10067000A7D2C90FC9070020A3E74905490D26D114
:10068000002001E00028F4D100219AE7284D6600FF
:10069000002801D0012100E0002171185F00002A2C
:1006A00001D0012600E00026BE19224FA94210D831
:1006B000AE420ED8B14208D001256D05E94206D000
:1006C0001946A802414010467BE79C4201D02146D2
:1006D00077E70020394674E710B50C465C4005D535
:1006E0000124E4076340FFF70CFF10BDFFF778FE1D
:1006F00010BD30B40C465C4004D50124E4076340CF
:1007000030BC6DE630BCFCE670B50124E407614006
:100710000D465D4002D4FFF763FE70BD6340FFF7F6
:10072000F0FE70BDFF0700000000F0FF0000F07F4A
:100730000000E0FF0000F87FF0B5F94D0C091E093C
:100740002C402E402F468BB0A7437DD0B543FCD024
:10075000002E7AD0002CFCD00D465D40ED0F2543D5
:10076000AC1BFF25AD0464190894C502440DC902F1
:100770002143500DDC0204430120C0070143044320
:10078000D2020191200C110C00958C4601042346E5
:100790008B430A9161460904E24D8A430991010A9B
:1007A0007D4449198039097805464D4301266D1865
:1007B000F605751B6943C90C640B891C4C4364180E
:1007C000B5012C1B250C2E04B4434C434D43210C86
:1007D000691889090591009DE90701D00121C90720
:1007E00004912C4601996708CD072F434C08059DBD
:1007F000E10B4D432D0C29466646754302950D4687
:1008000045432E46029D7D1BB44100950D465D4338
:1008100001942C0C2F040D465543AE462D0C3D4340
:10082000029503947546049C2D04641B049406D21F
:10083000029C039D641C002675410395029401AC43
:1008400070CC009F7D1B01E03EE162E1B4410904F0
:100850000095079101940599A4086143090C0C4681
:100860004443650BE7040C4666467443A646640B96
:100870003C43039502947446049DE4042C1B0494A9
:1008800006D2029C039D641C0026754103950294C8
:1008900001AC70CC009F7D1BB44101940C465C43BD
:1008A0000095650FE7000C465443A646640F3C4391
:1008B000039502947446049DE4002C1B049406D214
:1008C000029C039D641C002675410395029401ACB3
:1008D00070CC009F7D1BB441AE09AF06049DC900DA
:1008E000AD092F43049DA406AD060495079D34432E
:1008F00069180791059DE10B4D432D0C294666466D
:10090000754302950D4645432E46029D7D1BB4411D
:1009100000950D465D4301942C0C2F040D46554364
:10092000AE462D0C3D43029503947546049C2D0460
:10093000641B049406D2029C039D641C002675412E
:100940000395029401AC70CC009F7D1BB4410194CF
:100950008C050694079C890A611800950791019CF3
:100960000599A4086143090C0D464543680BEF0443
:100970000D46644665436C0B3C43049FED047D1BB0
:10098000AC4602D20025641C6841009E019D371BC5
:1009900085410846584301950C46460FC50054430F
:1009A000600F28436546E4002C1B02D20025401C42
:1009B0006E41019D3F1AB5412846BD098006284376
:1009C0008446A009BF064E020699A406761807437E
:1009D000079D002068410A99079019430020099B50
:1009E00000906046FF1913434041E20F64003A4310
:1009F000A4460446D71A8C41A04203D90120009096
:100A000020463A46C70F941840416246D20F22430F
:100A1000644664000494009CBE466400D71AA44651
:100A2000044602978C417746002F01D1A04204D999
:100A30006046401C8446029A2046C40FA64694187D
:100A40004041049A0546D20F224364466400D31AFB
:100A50008D417146002901D1A84202D928461A4683
:100A6000641C10430122002800D0164361020020BC
:100A7000079B891904465C410223002C02DB4918BC
:100A800013466441089DCE0A2D145D194B05670578
:100A9000E10A2C050D1908993E43C9076940002B4E
:100AA00008D0934006D30022761C5141002B01D17F
:100AB000760876001C4A002D43DB154241D0AA433C
:100AC0003FD030460BB0F0BD06180D464D41174CD7
:100AD0007642AC411AD395181C465C41134A6D42CC
:100AE000A24113D3012252054C00D4420AD15C002A
:100AF000D4420BD04B4002D592021143E2E74900A9
:100B00004908DFE75940C90FC90718E00020084924
:100B1000D8E7054801420DD10342F7D0F2E70000C3
:100B20000000FF07B83100000000F07F0000E0FF88
:100B30000000F87F114859400143C0124140002095
:100B4000C0E70123089A9B069A4205DC032252075C
:100B50008918C90FC907B5E7052252078918074A3E
:100B60001143D2125140ADE770B515461C460246FE
:100B70000B4628462146FFF7DFFD70BDFFFFFF7FD4
:100B80001F22030C02D10F22000402D0030E03D057
:100B900004E00020014670470002083A030F01D12B
:100BA0000001121F830F01D18000921E002801DB7B
:100BB0004000521E120551184205C012411810463D
:100BC0007047C10FC90700D040420122920711436C
:100BD000D6E701218907D3E7F0B58B4C0F092546ED
:100BE00089B0BD437BD01D092646AE43FAD00E46E0
:100BF0005E402740F60F3E43254071D0240121423C
:100C0000FBD0FF24AD19A4042D1B039501252D0550
:100C1000DB02DB0AC9022B43C90A29431E01090171
:100C2000040F130F050121431701880B8203914321
:100C30002D098C46A90B1E438A039543B30B9A03D7
:100C400096433F09BA0B9403A74302962E467E4370
:100C50000497B6464E19D7190C460196544305978A
:100C60007E43371B7646BF1B3601B646BE0B361990
:100C700000967646BC043719009C01D3641C00948E
:100C80006400002F01D001263443029E049F754367
:100C900066467E430496760034196E00341900943B
:100CA000029C019E1C196643751BAE460694654660
:100CB0004519059C05956C43594375460891691A79
:100CC0000191049E01465143A41B0491611A009CAA
:100CD0000791E10605D061090122114302E072E0AB
:100CE0006EE06109089D00272C0A2D066918049DF5
:100CF0007C412A0A2D066918019D6241AC0DAD02A6
:100D00006D185441079A910D920255196141029A4A
:100D1000644658435443069B059A5A43121A131BC0
:100D20009A0E9B015B187A41010B0005C3185141D3
:100D3000220A200644195A419A4200D2491C012035
:100D40004002814203D315230226F64302E0142316
:100D50000326F6432020C51AA9401746AF40DA40C3
:100D60000A4320460399D8400914731819055118ED
:100D7000039A3843D2075140AC4009D00122944035
:100D800006D30022401C5141002C01D140084000F4
:100D90001E4A934212D3012203989206904207DB27
:100DA0000520400709181A480143C012414004E0D9
:100DB000032040070818C10FC907002009B0F0BD83
:100DC0000020F107FAE705180C464C4111486D4226
:100DD000A04115D394181A465A410E4864429041D6
:100DE0000ED301204A004005824209D35A008242B4
:100DF00006D35940C90F084AC90700201143DDE74F
:100E000000200649DAE700000000FF07FE070000A7
:100E1000FFFFFF7F0000E0FF0000F07F0000F87F91
:100E20000121C9050123411842001B06D3185B0E9E
:100E30000AD0C1100722D206891840075242D14277
:100E400001D5520089187047090208D50146002AC9
:100E500003D0C10FC90700207047104670474202F7
:100E600002D0002002497047072109050143F4E739
:100E70000000F87F10B501469E240002CA15A307A2
:100E8000002A02D01843002A04DBA21A002A0CDD33
:100E9000D04010BD1206120E01D140004008A21A27
:100EA00003D4D04040420028F3DDFF224800120660
:100EB000904201D9002010BDC817C043584010BD52
:100EC00010B500F039F8006810BD10B5044600F008
:100ED00033F8046010BD000070B505464800440DAD
:100EE000124B0020002C0AD0634008D09A4206DA48
:100EF0006642B24203DD12054019514170BD002C1B
:100F000008D0002B09D0C90FC907002AF6DB084A10
:100F1000114370BDC90FC90770BD28460A031043AD
:100F200002D00020034970BD284670BDFF070000B5
:100F30000000F07F0000F87F0048704708000020A4
:100F4000F8B5264C4E00069DA6420AD8A64201D10D
:100F5000002806D15E00A64203D8A6420AD1002A84
:100F600008D00D242404254233D02946002000F067
:100F700037F8F8BD0C461C4311D4994207D0C81A63
:100F800002D3EFF30080F8BDEFF30080F8BD801AC4
:100F900002D3EFF30080F8BDEFF30080F8BD092421
:100FA0002407E5008B4207D0581A02D3EFF30080E4
:100FB00006E0EFF3008007E0101A03D3EFF30080A0
:100FC000A04303E0EFF30080A043284380F30088B0
:100FD000F8BD009500F01CF8F8BD00000000E0FF2F
:100FE000C80212D54803400F002804D0C803C043EC
:100FF000012188407047EFF30080000100090321C0
:101000000907084380F300887047002070470000FC
:1010100010B500200249029A00F004F810BD00004B
:101020000000F87F10B50C461107090F092904D0FC
:101030000A290AD008290CD104E011460820FFF73C
:10104000CFFF06E0510606D501E0510601D501208B
:10105000C007214610BDD10607D501010909CC08FA
:101060004907000E0006044309E0410F200249072A
:10107000000A0143200E00061D22D141014308460B
:10108000E7E7000010B519480168C9062CD5102102
:10109000016017490888002826D0164820220260DF
:1010A000154A012010700B88144A116800244C6204
:1010B0000A245C43A3B2CB62D3603D23D45C012CF1
:1010C00012D10224D454CA680243CA600C4A914225
:1010D00002D00C4A914204D18A6807231340062BA0
:1010E00002D00A6802430A6010BDC04614040140E1
:1010F0006E0000202800004888010020B000002079
:10110000002C014000040040F0B583B0002402949C
:101110003427D54EF15D012902D1022003B0F0BD84
:1011200033689968490716D4019744C801252F46AA
:1011300097403C4908388E4213D1986AB843986268
:101140001046A84310282046C74E019F67D1102A99
:101150001AD0374819E0B06B20210143B163012058
:101160005DE0996A39439962BF4EF76A791E072993
:101170003FD21046A84310282046019F4FD1134666
:10118000102A08D0A80507E0284827490A68024025
:101190000A60204643E0E80523490A6802430A60E2
:1011A000102B20463BD1814800688149FFF724F885
:1011B0000A21414302910298002820462FD002982C
:1011C000401E02900298002824D00298401E0290EF
:1011D0000298002820D00298401E02900298002811
:1011E0001CD00298401E029002980028E7D12046A9
:1011F00015E029078F42BCD059690727394080681C
:101200008842B6D05969B943596138405969014398
:101210005961AEE7204602E0204600E02046F45542
:1012200003B0F0BD0110000008270140FFFF7FFF61
:10123000FFFFBFFF10B58C4801684269082A01D141
:10124000082203E0CA68D2072BD10C22874B1B6807
:101250000B68134208D10B68134205D10B68134287
:1012600002D10B681342F3D001225302846B1C435A
:101270008463CB681B059B0F24D1837E002B21D177
:101280000B681B071ED58B685B0712D44B680C24B8
:10129000A3434B60FF240234836BA34304463834DA
:1012A0000EE0342100224254816B20220A438263E3
:1012B00010BD836B20241C43846304463C34C36B01
:1012C00013432360007E002800D010BD0C2008606E
:1012D00010BDC046F0B581B0634C2568A8684007D2
:1012E0005FD43427E05D01285BD00126E655607E9F
:1012F000012847D000200090A8680321014001295F
:1013000005D12868C0073DD1E86800043AD4A86830
:101310002549084208D0A06B10210143A163E06B6E
:101320003043E06301B0F0BDA8683043A8601F48B7
:1013300000681F49FEF760FF00900098002814D055
:101340000098401E0090009800280ED00098401E83
:1013500000900098002808D00098401E0090009847
:10136000002802D00098401EE6E7404801682A683D
:10137000D20707D10268521A032AF8D32A68D20783
:10138000F5D1C8E70020E055A16B0A4A0A403102B6
:101390005118A163E0631C202860A8680421014360
:1013A000A96001B0F0BDC046170000800000002019
:1013B00040420F00FEF0FFFF70B534202A490A5C5E
:1013C000012A4FD001220A540B689C68640711D48B
:1013D0009D6803242540012D05D11D68ED0720D10E
:1013E000DD682D041DD4FF2302338C6B9C430B4618
:1013F000383333E09C68640706D59C68A40703D49F
:101400009C68102525439D60184C25689E687607CA
:10141000DED52668761B032EF8D39E687607F5D5B1
:1014200015E09D6805262E40012E10D19D680226EC
:101430002E439E601C600D4C25689E68F607D2D036
:101440002668761B032EF8D39E68F607F5D08B6BC3
:1014500010241C438C630B463C33CC6B00250D548D
:1014600014431C6070BDC04670000020A001002025
:10147000F0B587B00921C9060191012700231E4656
:101480000397029021E0B440019A1068A0431060D5
:101490001C201840059D85400498C0088000101845
:1014A000016AA9430162D068A043D06050680699E0
:1014B000884350609068A043906002980146F940CC
:1014C0001B1DB61C7F1C002928D07C1E0399A1403F
:1014D0000A460240F2D006910C2119400F250595CD
:1014E0008D40214603240491A143754808582842A1
:1014F000C9D1734808180090704908689043086083
:10150000486890434860C8689043C86088689043C2
:10151000886000990868A8430860B4E707B0F0BD88
:10152000F0B58BB00F68002F00D1C3E002466248CF
:10153000824201D0052000E0032000900124002514
:101540002B460194049102920CE03A43089B5B48BD
:1015500002600F683846E040AD1C1B1D641C00286B
:1015600000D1A7E0661E01980996B0400740059794
:10157000EFD0089303231A46AA40D2430E462946C9
:1015800075682E461E40771E012F07920691039420
:1015900012D81746029A93683B40049CE7688F4034
:1015A0001F439760EB06DB0F099FBB4057688743DB
:1015B0001F4357602C4607E0032E029A2C4603D1A6
:1015C0001E46049F089B1FE0D068079B1840049F9D
:1015D000BB6806998B400343D360022E089B13D14E
:1015E0001C20184015460F228240099BDB089B00F7
:1015F000EB181E6A96433A69824032431A622A46C1
:10160000089B7C6803262640069DAE40106839463C
:10161000079F384030431060A003800F039C98D090
:101620007C4A1168012001431160116801400A9150
:101630000C271F400F23BB4003260999B1430A9E84
:101640001F4A8E589E43029A1D4BC9180923DB0678
:101650009A4208D01B4B9A4206D01B4882420098FF
:1016600002D1022000E00020B84030430860134857
:10167000826804994868C30202D5059F3A4301E095
:10168000059FBA430D4B9A60DA68830201D53A434D
:1016900000E0BA43094BDA605A68830301D53A4344
:1016A00000E0BA43054B5A601A68C00300D54CE706
:1016B000BA434BE70BB0F0BD000C004800040140FA
:1016C000080001400004004800080048BFF34F8FA5
:1016D000044805490160BFF34F8F00BF00BF00BF42
:1016E00000BFFAE70CED00E00400FA05F0B581B0A8
:1016F0008648056801222A6202212962042100919C
:10170000296210232B6208212962EFF3108582F3EE
:1017100010880926760107683C68B4433C6085F36D
:101720001088EFF3108482F310880568AE68964342
:10173000AE6084F31088046E012C09D1EFF310849D
:1017400082F3108805682E689E432E6084F310880B
:101750000468A468640630D5EFF3108482F310881F
:101760000568AE684027BE43AE6084F31088456FBD
:10177000002D22D02E46203600276F637478022C6D
:1017800011D12B681C6800970E27BC431C601C6895
:1017900094431C60EB6B2C6C1546A5405D60009B70
:1017A0003370727009E03770009AAA63426F926BCF
:1017B000202A02D1842143500CE05A220023835274
:1017C00002680F24146294690C43946180212022E2
:1017D00042500366BE4800210160416000F01CF8E1
:1017E00001B0F0BD10B549480068B649884200D044
:1017F00010BD0124A00307490A6882430A600C2037
:10180000FFF736FEE006C2490860BFF34F8FBFF313
:101810006F8F10BD18100240F0B581B08023F248E0
:10182000C15820290AD1856801210A03954207D1B0
:101830000469002C04D1A54CE40701D001B0F0BD2F
:10184000002404660668766836020DD5EFF310852D
:10185000009581F310888E0607683D6835433D602A
:10186000009D85F3108885685A2681535826815338
:10187000964E46658466002D07D0954225460AD1CE
:101880000569002D06D1D94D05E00569002D01D06F
:101890007F2500E0FF25842684515C240553222403
:1018A000C450EFF3108381F310880468A5680D43DA
:1018B000A56083F3108803698468944204D1002BE7
:1018C00014D0134A826603E0114A8266002B0FD0BF
:1018D000EFF3108281F31088092149010068036841
:1018E0000B43036082F3108801B0F0BD094A8266A1
:1018F000EFF3108281F310880068016820230B4306
:10190000036082F3108801B0F0BDC046F8000020EB
:101910004D1E00088B1D0008F0B583B06949884250
:1019200001D003B0F0BD684D297868480278684856
:101930004254491C2970C9B20322022907D34378B3
:101940005B1EDBB2052B02D89A0062A39A588A422A
:1019500000D97DE041780678002401940094102E8F
:1019600001D3552E73D1491E052970D879440979C0
:1019700049008F440210172644665C4909788E425C
:1019800065D1408841BA63480180028863498A4230
:101990000FD901800DE0554909788E4257D18078E2
:1019A000554905E0514909788E4250D18078534914
:1019B00008705348007802281DD16846152101702F
:1019C0003BE0552E03D0494909788E423FD1484922
:1019D0000C8050490C808178474A1170C078474983
:1019E00008704748012101704B48802101603F4841
:1019F000007886422BD16846062101701DE03B48E5
:101A00000078864223D16F46052078703E703848B2
:101A10000188090AB9700088F87036480068FFF735
:101A200029FA787134480078387134480078B871F0
:101A300033480078F871002E09D0684600F070F83D
:101A400005E0552E08D029480078864204D02C7035
:101A5000FFF7E2FE03B0F0BD24480078864204D1CF
:101A600068460621017000F05BF8EFF3108072B653
:101A700024480068244D2549884207D101204002AE
:101A8000E9688143E9600320FFF7F2FCB34800688E
:101A9000B34988420BD1012001022A698A432A6195
:101AA000C0041B490860BFF34F8FBFF36F8FFFF770
:101AB00099FEE04368606C6028602C60E861EC612E
:101AC000FFF704FE00380140910100209001002042
:101AD0009801002004000000030000000300000043
:101AE0000400000002000000020000006800002066
:101AF0006E0000208C0100206C00002004000020FB
:101B00006D000020700000200C10024000240140F5
:101B100080E100E06A00002000E100E0DE03000058
:101B200070B53149CA6F202A0BD1002809D0012293
:101B300012038B68934205D10B69C2070FD0002BAB
:101B40000DD170BD842200238B50502208238B526C
:101B50002122CA672B4A126852228B520DE084243C
:101B600000220A51502408250D532124CC67254C0E
:101B7000246852240D53002B34D0002302465224F3
:101B80000D5B0868002D27D0184D0AE01A882A40FE
:101B900002859B1C00220E5B761E0E530E5B002EF0
:101BA0001AD0C669360608D4C669360605D4C66991
:101BB000360602D4C6693606F3D5002AE6D0167872
:101BC0000685521CE7E7C269520608D4C26952066C
:101BD00005D4C269520602D4C2695206F3D5202048
:101BE000C86770BD0346CAE7F8000020FF01000087
:101BF000FEE7FEE77047704702480168491C016034
:101C00007047C046A001002070470000F0B581B0C9
:101C100052480068C16802220B4613405C425C4196
:101C200003691A405542554125438026F2430092EC
:101C3000002D06D1009A7E3202610022474C2277A5
:101C40008269012204240C40674267415C07154603
:101C500000D53D46002D06D1009C7C340461002453
:101C60003E4D2C77846908240C40674267411C076D
:101C7000154600D53D46002D06D1009C7834046100
:101C80000024364D2C77C46910240C40674267410C
:101C9000DC06154600D53D46002D06D1009C70346B
:101CA000046100242D4D2C77C46901270C463C406B
:101CB00065426541DC07144600D02C46002C23D138
:101CC000009C7F340461264CA0421DD1254C247811
:101CD000002C19D0244C20252560C468BC43C46066
:101CE0001F4C246A214D2C4208D11D4C246A204DE2
:101CF0002C4203D11A4D2C68BC432C603D24174D57
:101D00002F550024174D2C700E40754275411C064E
:101D1000144600D52C46002C01D1009C04614024BF
:101D20000C40654265415C06144600D52C46002CEB
:101D300002D1009C40340461202421404D424D4199
:101D4000990603D4002A04D001B0F0BD2A46002A27
:101D5000FAD100996031016101B0F0BDB0000020FE
:101D600000200040880100201800004811110000E8
:101D70004404000080B5406A0146523100220A81C5
:101D800052214252FFF7B2FC80BD70B5802142580B
:101D90000168222A0FD102465A325388898C194091
:101DA000436D19801188491E1180991C4165118865
:101DB000002905D070BD8869082202438A6170BD80
:101DC00002468032EFF31083012181F31088092449
:101DD000640105682E68A6432E6083F31088EFF334
:101DE000108381F310880468A5688D43A56083F390
:101DF00010882023136000224266826603685B68B5
:101E00001B020AD5EFF3108381F310888C06056856
:101E10002E68A6432E6083F31088036E012B11D128
:101E20000266EFF3108281F3108803681C681021AA
:101E30008C431C6082F310880068C269D206B9D551
:101E4000016270BD0068FFF767FD70BD70B580214D
:101E500042580168222A10D102465A325388898C8E
:101E60001940436D19701188491E1180416D491C3C
:101E700041651188002905D070BD88690822024398
:101E80008A6170BD02468032EFF31083012181F335
:101E900010880924640105682E68A6432E6083F328
:101EA0001088EFF3108381F310880468A5688D43D0
:101EB000A56083F3108820231360002242668266A7
:101EC00003685B681B020AD5EFF3108381F3108867
:101ED0008C0605682E68A6432E6083F31088036E77
:101EE000012B11D10266EFF3108281F31088036891
:101EF0001C6810218C431C6082F310880068C26942
:101F0000D206B9D5016270BD0068FFF705FD70BD4E
:101F1000F0B582B00568EB690B4000268B4202D118
:101F2000304602B0F0BD0190783000900120C70229
:101F3000384C03E0EB690B408B42F1D023689B1ACD
:101F40005B0E32D12B685B07F4D5EB691B072FD4EE
:101F5000EB693B42EED02F62EFF31080012282F357
:101F6000108809214901019E33681C688C431C605C
:101F700080F31088EFF3108082F3108831688B684B
:101F800093438B6080F31088336E03202021012B54
:101F900036D1EFF3108382F310883268146810256D
:101FA000AC43146083F310882AE0032002B0F0BD34
:101FB00008212962EFF3108280F3108809235B0166
:101FC000019E346825689D43256082F31088EFF3F5
:101FD000108280F3108833689C6884439C6082F38D
:101FE0001088326E012A0BD1EFF31082012080F3AA
:101FF000108833681C681025AC431C6082F310887D
:10200000009B20229A6000223266B2661A70D96064
:1020100002B0F0BDA0010020F0B587B0C548066849
:10202000F36937682021384603910F407C427C4198
:1020300001210691CA0215462F351D40203D691E1B
:102040008D4125430496B5684AD011460F3105935A
:102050000B42034606D0B84919400126354069189D
:1020600000D082E01026194631404D424D41059A7C
:10207000114631404F424F41E449096E0129069C07
:1020800000D13C46002C069C049800D12C46002C24
:102090002FD080211940484248411106069C00D5A6
:1020A0000446002C00D1E6E0402003405C425C4145
:1020B000510600D5069406990029D44C00D036E18B
:1020C000EFF31081012282F31088226813688343A2
:1020D000136081F310880020E0660398E06726E132
:1020E000CA48816E002900D121E1C848884707B05D
:1020F000F0BD06628068400600D5C1E05A22C34D9B
:10210000A85A5821695AAA5A002A00D10FE18142DF
:1021100000D10CE1EFF31081012080F31088092237
:1021200052012B681C6894431C6081F31088EFF304
:10213000108180F310882A6893688343936081F349
:1021400010888021039A6A500021A9662966EFF35E
:10215000108180F3108828680268B243026081F31E
:1021600010880220686607B0F0BD01923102194064
:102170004C424C410599C907069800D020460028DA
:102180000296049807D106628421A04A5458029E00
:1021900034435450029E6C426C410599890706995C
:1021A00000D5214600290AD1022101628421974AE3
:1021B000545800940424009E34435450029E6C42B0
:1021C0006C4105994907069900D52146002908D197
:1021D0000421016284218D4E7258022414437450EC
:1021E000029E3D436C426C4105990907069D00D54E
:1021F0002546002D07D1082101628424834E3559DC
:102200000D433551029EB1060B405C425C4105997D
:10221000019A1142069B00D02346002B7B4C06D12D
:102220000199016284216358039D2B4363508425E7
:102230006159002900D17AE00399059A0A407B424E
:102240007B41002A00D006930699002905D1A16E92
:10225000002902D0204688472068615928220A4078
:10226000816840200140891868D1FFF73FFA0020BB
:10227000605107B0F0BD6548C16E002957D034E702
:10228000624F796F0868426890B200284FD0582397
:10229000FB5A98424BD25A203A528969202900D1E0
:1022A000A9E0EFF31082012181F31088594B20330C
:1022B0003C6825681D40256082F31088EFF310828A
:1022C00081F310883B689C688C439C6082F3108883
:1022D000EFF3108281F310883B689C684025AC4383
:1022E0009C6082F310888022039BBB5000223A66D8
:1022F000EFF3108381F310883C682568B5432560AF
:1023000083F310887D6F2B4620335C78022C6ED1CE
:102310002C6826680E27BE43266026688E432660FA
:10232000EC6B2D6C0E46AE406660597061E007B0F4
:10233000F0BDC046F800002020010004EFF310813A
:1023400086F310880922520123681C6894431C609C
:102350002E4C81F31088EFF3108186F310882268E9
:102360009368B343936081F31088216E01290BD1E8
:10237000EFF3108186F31088226813681024A343BA
:10238000224C136081F310888021039A625000214F
:102390002166A16622689268520624D5EFF3108266
:1023A00086F31088236825469C6884439C6082F3EA
:1023B0001088686F002816D002462032144B436301
:1023C0005378022B1CD103681C680E25AC431C609B
:1023D0001C68B4431C60C36B046C3546A5405D604B
:1023E000117056700EE0FFF781F907B0F0BD0421BF
:1023F000A9631A70054F02217966385A07B0F0BDFB
:1024000004218163FFF7B6FC07B0F0BDF80000209F
:10241000751D0008DFFEFFFF00B599B0D24A1068B5
:1024200010210491084310607D20C100FA48006823
:102430001291FDF7E1FE401E010EF84C10D1F84953
:102440004860F8480268224003239B07D2180260C4
:1024500000228A6007220A6001682140C9180160D1
:10246000F14F786901210843786178690840149038
:1024700014980E07B8693043B861B86930401490B9
:1024800014980B910804059038680007800F0AD053
:1024900038680C210140082900D067E138680599A7
:1024A000084200D062E1381F0068381F01688022AE
:1024B000069211437822109291430160396A0B9A77
:1024C00011433962D94909683A6A920720D4D74A38
:1024D0001268521A022A00D96FE13A6A920717D499
:1024E000D24A1268521A022A00D966E13A6A920761
:1024F0000ED4CE4A1268521A022A00D95DE13A6A15
:10250000920705D4C94A1268521A022ADCD954E14A
:10251000396B0422089211433963396B0B9A1143CA
:102520003963C24909683A6B920720D4BF4A1268DE
:10253000521A022A00D940E13A6B920717D4BB4ADB
:102540001268521A022A00D937E13A6B92070ED468
:10255000B64A1268521A022A00D92EE13A6B920743
:1025600005D4B24A1268521A022ADCD925E1396B25
:10257000069A1143109A914339633A680C211191DC
:102580000A400B9B5906082A00D08EE03A68BB6AC5
:10259000059D2A4200D010E10F252B4000D00CE110
:1025A000AB041A400523DB049A4200D005E1994AA6
:1025B0001268D20707D1974C226801231343236086
:1025C0002268D2073AD007220E9212023B681343C8
:1025D0003B603B68F025AB43944D3B60006808428C
:1025E0002CD038680221099108430B998843386040
:1025F0002868F5493B68119C2340082B3CD02B6888
:102600001B1A8B421AD83B68119C2340082B33D0ED
:102610002B681B1A8B4211D83B68119C2340082B56
:102620002AD02B681B1A8B4208D83B68119C234088
:10263000082B21D02B681B1A8B42DBD9EFF31080BB
:1026400072B6F7480068F749884207D10120400276
:102650007969814379610320FEF70AFFF248006837
:10266000F249884200D0C9E0012001023B46BA6924
:102670008A43BA61C004BBE066480068386890438A
:1026800038603B681946119A1140F64808290546FA
:1026900000D0D4E09902090FF34A555CB96A059A53
:1026A000134200D0C4E0F148C8E01A06036893431F
:1026B00003605E4A126803680B421DD05B4B1B68C7
:1026C0009B1A022B79D803680B4215D0574B1B6815
:1026D0009B1A022B71D803680B420DD0534B1B6819
:1026E0009B1A022B69D803680B4205D04F4B1B681D
:1026F0009B1A022BDFD960E0BA6A0F239A43BA62B1
:102700003D2212043B6893430522D2049A183A6092
:10271000424A521C036813430360444A1268036828
:102720000B4200D043E7414B1B689B1A022B44D855
:1027300003680B4200D03AE73C4B1B689B1A022B04
:102740003BD803680B4200D031E7384B1B689B1A1B
:10275000022B32D803680B4200D028E7334B1B68AA
:102760009B1A022BDBD928E000200240381F0168A9
:102770000B9A114301602D490A6803689B0700D535
:1027800093E60B689B1A022B17D803689B0700D5AA
:102790008BE60B689B1A022B0FD803689B0700D5AA
:1027A00083E60B689B1A022B07D803689B0700D5AA
:1027B0007BE60B689B1A022BDFD9EFF3108072B611
:1027C000A4480068A449884207D10B98400279695F
:1027D000814379610320FEF74BFEA0480068A049C1
:1027E00088420BD10B9A1002B9698143B961D004B8
:1027F0009F490860BFF34F8FBFF36F8FFEF7F2FF63
:102800000020C143F960F860B960B860796278620D
:10281000FEF75CFF0020024000000020FFFFFF00E9
:1028200010E000E020ED00E004100240A0010020D4
:102830000F2211408F4A515CFDF7DEFC45430196A3
:1028400038680006000F8CA1085CC5408E48056002
:1028500028461299FDF7D0FC401E8C4CA04210D89F
:102860008B4948608B480268224003239B07D2189B
:10287000026000228A600E9A0A6001682140C9182D
:102880000160F86A03210A918843F86200241894D1
:1028900017940B9E710438690843386138690391B5
:1028A000084013901398B0043969014339613969BC
:1028B0000140139113980920C1060D9120278F61C3
:1028C000099816901120000415900498149014ADE6
:1028D00008462946FEF724FE0A9817901696159684
:1028E0000F9714970D9F38462946FEF719FE169646
:1028F0001594C020149038462946FEF711FE16960E
:102900001594099E149664482946FEF709FE16960A
:1029100015940A984002149038462946FEF700FEA6
:102920005E4B18685949084018605D490698086070
:102930005C4F5D4D4B20C0013D607860BC60FC6029
:102940003C61119A7A61BC61FC613C627C62F86F07
:102950000028129400D1C4E02420F86728680B995D
:10296000884328600A9E286850490140B8683A693F
:1029700002437B6913430B43F86903432B603446DE
:1029800031036A688A43F96811436960B9693A6A30
:102990000A430B210902AB688B431343AB604449E4
:1029A000C96A8907090F43A251580B9BDA030292A7
:1029B00090422AD108292B4A01D900F0A3FC2646CF
:1029C000880002A10858874688130000F1290008F2
:1029D000053300086F2C0008053300086B2B000836
:1029E000053300080533000805330008912B000863
:1029F000254802682E4800684005400F3149085CB0
:102A0000C240002A00D032E161E10829154A01D90B
:102A100000F078FC2646880005A108588746C04685
:102A20007000002000240140B00000200020004081
:102A3000C92A000805330008B32C00080533000834
:102A4000952B0008053300080533000805330008FE
:102A5000BD2B00087000002000240140B0000020C1
:102A60000020004000127A00203A000800093D00D2
:102A700080E100E0303A00080000000000000000A3
:102A8000010203040607080900000020FFFFFF0001
:102A900010E000E020ED00E00004004804E400E065
:102AA00000E100E0F800002000380140F369FFFF7A
:102AB00004100240000000000400000008000000B4
:102AC00002000000403A0008E7480268E748006852
:102AD0004005400FE649085CC240002A00D0E8E00B
:102AE000F5E010983C541D46012318939803DF4EDF
:102AF00071690143716171690140139113983069E3
:102B00000399084330613069084013900A9E179674
:102B100016941C46099815901492139814A90D98B0
:102B2000FEF7FEFC6869D3490840D3494018401CB1
:102B30006861E006D14908602420F867786A3D683A
:102B40002968A1432960002800D10CE7010737D488
:102B5000C1073DD1810743D4410749D4C1064FD4B1
:102B6000810655D441065BD468E0C04B18681199C2
:102B7000014008297BD13C4637468102090FC04AF3
:102B8000565C996A059A104262D1BE48704368E06B
:102B9000029A6CE0B54B186811990140082900D0E1
:102BA00087E03C4637468102090FB54A565C996A70
:102BB000059A10426ED1B348704374E0029A78E0EF
:102BC000E1036A688A43796B11436960C107C1D028
:102BD00061046A688A43B96A114369608107BBD599
:102BE00021046A688A43F96A114369604107B5D5CF
:102BF000A1046A688A43396B11436960C106AFD585
:102C00002103AA688A43B96B1143A9608106A9D53B
:102C10006103AA688A43F96B1143A96041060DD587
:102C200021056A688A433B6C1A436A608B4205D16E
:102C300071056A688A43796C11436960000600D4A3
:102C400091E6E00469688143B86C084368608AE6ED
:102C50000F2001408C48415C8C48FDF7CDFA46437B
:102C600030463E46274602460B9B002A2FD0500096
:102C700079684A081018FDF7BFFA0B9B0246103A14
:102C8000059910398A4200D33CE301400007400F08
:102C900008431BE00F2001407B48415C7B48FDF767
:102CA000ABFA464330463E46274602460B9B002A77
:102CB0000DD0796848088018FDF79EFA0B9B0146F5
:102CC0001039059A103A914200D31BE3E8603A4666
:102CD0003746D802696881436960A868082107916E
:102CE0008843A860286818432860842012991150EE
:102CF00091661446D16666480668286800070AD5BA
:102D00005905644D28463246FFF702F9002800D0E5
:102D10003EE32D680B9B2868400709D599055D4D5A
:102D200028463246FFF7F4F80B9B002800D03EE31C
:102D30000F992246E167069821501E46129C109872
:102D4000145414665466FEF767FD2420524B11900C
:102D50001C549E621C6235021095C1354F4811C348
:102D60001C605C609E600898083B1946143131C1B4
:102D700070020C90986B00281DD134201C54DC6329
:102D800018941794394A50690C9908435061506956
:102D90000840139013981069039908431061106953
:102DA00008401390169415971497139814A90D982A
:102DB000FEF7B6FB384B19463831986BC00600D584
:102DC000B1E218688268520700D5ACE23449FE319E
:102DD0009A6B0A40911C996381683940012906D198
:102DE0000168C90711D1C168029A11420DD1C168A9
:102DF000182291435A68284B9B680B43C360B9075C
:102E000003698B4313430361234BC168254A0A407E
:102E1000C260996A491E4A1E914109031A7E9203B3
:102E20001F465B7EDB031343BA7E54031C43FB68DF
:102E30003E6923430B43B11E4C424C41A4001C434A
:102E40001199795C49002143FB7E012B2ED1002A88
:102E50002AD0114CA26B0F9B1A43A263E26B012391
:102E60001343E363234622E00000002004100240E5
:102E7000403A0008FFFFFF00FFFFFF3F00E100E0D6
:102E8000203A000800093D00303A000800127A009C
:102E9000A0010020F8000020700000200024014064
:102EA000FFFDFFFF1902FEFF059A1143BD4BBE4F08
:102EB000DA69AA4204D0BB4B1B6A1943B94B1143D0
:102EC000BA4CC2680A43C260DA6A531E072B00D3A9
:102ED00013E243690E9DAB4343612A4043691343A8
:102EE0004361C068B24A02408A4200D010E20B98A7
:102EF0000503AC4A1298D06301261496906B3043B8
:102F00000999884390630E981690159514A8FEF7BA
:102F1000FBF80028119600D024E2A64AA6481060CB
:102F2000A6481060129850600B95681E906021684A
:102F3000D2685207A24D099B0AD19E4A1169A14C41
:102F400081422BD114602AE09A4AD2685207F4D009
:102F5000964A1268521A282AF6D3964AD26852071D
:102F6000F2D0994FEFF3108072B68E4800689749FF
:102F7000884206D17869964A104078610320FEF7AE
:102F800077FA94480068A84200D050E2119B1802DA
:102F90003A46B9698143B961D80442E210618D486B
:102FA000129C846163212F22056042608460C160AD
:102FB00004613D21425C002A15D13C22129C8454BC
:102FC000814A3E4617469269109C2243BA61BA690B
:102FD00022401492149AF2687F4C2240F260119AB7
:102FE000D2047E4C226043540269069B9A430E9B96
:102FF000DB012C689C431443826922432A60C26827
:10300000EA624268AA62119A6A612A69D20703D009
:103010002A69119B9A432A614622119B83543E22BE
:10302000835402463E3253709370D37042228354CD
:103030000246423253709370D3704354425C012A6B
:103040000D9B08D1099A4254E86811990843E86039
:10305000286808432860554C564F5A4A00E03A60A9
:103060005F480078012848D000285DD15D4D129856
:1030700028700F9898611869400503D52878119930
:103080000843287018690C99084203D028780999D8
:1030900008432870EF480069800703D4287808990E
:1030A000084328701869000603D428780799084354
:1030B00028701869400603D428781021014329702C
:1030C000F04812990180EE480180EC4801702068B8
:1030D0002168091A64290BD82168091A642907D8BC
:1030E0002168091A642903D82168091A6529EFD3D0
:1030F000E048119901703A60B2E72068DE4909683A
:10310000401ADE490978884278D33E462068DA4979
:103110000860DB480188DB4F3A880088914263D21F
:10312000401CD34A374667E0D54812990180206891
:10313000D5490968401A1099F33188428FD920681F
:10314000D14908600E9816900B981590119814901C
:1031500014A8FDF7D9FFFEF7BDF8FEF76BF8BF48DE
:103160000068046CFEF728F9A0B2FDF732FDC74AEB
:10317000C74BFDF731FDFDF7F5F8FDF751FE0446AD
:103180000E4600220A92C34BFDF726FD07460D4668
:10319000C148C24922463346FDF7ABFA02460B4608
:1031A000384666E07000002004E400E0A001002042
:1031B000E7FF3F8300300040CCCC000055550000B5
:1031C00000200040AAAA0000041002400024014090
:1031D000FFFDFFFFB0000020FFFFFF0000E100E067
:1031E0006D0000206800002039888842A04A3746D8
:1031F00004D9A3480088401EA14908802068A2493C
:103200000968401A1099F331884200D827E72068EE
:103210009D4908600E9816900B981590119814907F
:1032200014A8FDF771FFFEF755F8FEF703F88B4879
:103230000068046CFEF7C0F8A0B2FDF7CAFC934A20
:10324000934BFDF7C9FCFDF78DF8FDF7E9FD074647
:103250000E4600220A928F4BFDF7BEFC04460D4637
:103260008D488E493A463346FDF743FA02460B46EF
:10327000204629467D4F754CFDF75EFAFDF772F842
:10328000FDF7CEFD864A874BFDF7A6FC00F08AF9D4
:10329000854A864BFDF7A0FC854A864BFDF71CFA54
:1032A00002460B460A988449FDF746FAFDF75AF89C
:1032B000FDF7B6FD784A814BFDF70EFAFDF752F89F
:1032C0007F490860FDF7D6FD694A0D9B7D49097865
:1032D000884200DCC3E667480078022800D1BEE6D9
:1032E00009986449087006985F490860BFF34F8FDA
:1032F000BFF36F8F0F989861B1E6019B9A4200D19E
:10330000E7E5EEE53946504F12988866C8666CE0EE
:10331000524B986B102101430998814399631946D8
:103320003C310B980490484F0868049A1043086099
:10333000EFF3108072B618684549884206D1786963
:103340000C9A904378610320FEF792F84448006895
:10335000444988426BD13946B869109A9043B861A4
:103360000B985DE0384FEFF3108072B63B48006871
:103370003749884206D17869374A1040786103207E
:10338000FEF776F836480068364988424FD1FDE5A9
:103390002D4FEFF310800B9981F3108829680A688C
:1033A000069B9A430A6080F310887C3518E0264F0C
:1033B000EFF3108083F310882749E0312A681E4616
:1033C00013680B40136080F31088EFF3108086F3CE
:1033D000108829688A68B2438A6080F31088803533
:1033E0001298109960540F982860EFF3108072B60D
:1033F0001A4800681649884207D1012040027969BD
:10340000814379610320FEF733F8154800681549B8
:1034100088420CD1012001023B46BA698A43BA6155
:10342000C00411490860BFF34F8FBFF36F8FFEF7E1
:10343000D9F91299C843F860F960B860B960786248
:103440007962FEF743F9C04604100240A001002053
:103450000024014000040048FFFDFFFF7000002031
:10346000B00000200020004080E100E0003000407B
:10347000AAAA00006D000020840100206C0000203A
:103480006E0000206A00002080010020B4D934E7DB
:103490000C684A3F006AF8406666666666660A40DF
:1034A000F168E388B5F8E43E81D91E7E6597303F28
:1034B00083DBB5DCE1796B3F0000F03F661271C041
:1034C0008C01002004000020F8B504464F1EC800FF
:1034D0000838211815461E46086849683A460623EA
:1034E0009A4310D02A463346FDF776FB3A46D2007F
:1034F000083AA3181A687F1E5B68FDF7EDF80622EC
:103500003B469343EED1022F23D0042F11D0062F38
:103510002FD12A463346FDF75FFBE36AA26AFDF727
:10352000DBF82A463346FDF757FB636A226AFDF74C
:10353000D3F82A463346FDF74FFBE369A269FDF74E
:10354000CBF82A463346FDF747FB63692269FDF74E
:10355000C3F82A463346FDF73FFBE368A268FDF750
:10356000BBF82A463346FDF737FB63682268FDF750
:10357000B3F8F8BD002210B5134610460149FDF717
:10358000DBF810BD0000F03F10B50122FDF7A4FCF0
:1035900010BD002210B5134610461146FDF7CCF8B9
:1035A00010BD0000F0B5C54A00248FB091420ADA80
:1035B0004B005B08934206D801254A006D05EA429C
:1035C00005D1002803D0FFF7DFFF0FB0F0BD0125C4
:1035D0002D05A94219DA034308D0002910DA012089
:1035E000FDF773FCFFF7D5FF0FB0F0BD0220FDF72C
:1035F0006CFCFFF7BFFF0122D20751400FB0F0BDB6
:103600003524E4433622FDF767FC0A15AC4B12194A
:10361000D4180A03120BAB49AB4B56182E40314657
:10362000594011430192321512190B920022FDF7F5
:1036300060F8019A0446921C1003A44E000B0D463C
:103640007E44032860D220467368326800F054F943
:103650001CD10B98002815D0FDF7B3FA04460E468E
:103660009B4A9C4BFDF7B8FA0D4607469A4A9B4B7E
:1036700020463146FDF7B0FA3A462B46FDF72CF8C6
:103680000FB0F0BD716830680FB0F0BD944A954B33
:1036900020462946FDF7A0FA0022934BFDF734F8A7
:1036A00006460F4622462B4610461946FDF794FA69
:1036B00032463B46FDF790FA06460B980F46002827
:1036C0001DD0FDF77EFA824A824B05910490FDF7EA
:1036D00083FA32463B46FDF717F822462B46FDF7A4
:1036E00008F804460D467C4A7C4B05990498FDF782
:1036F00073FA22462B46FCF7FCFF0FB0F0BD0B46D9
:10370000324620462946C4E0012300229B0720467A
:10371000FCF7E2FF02460B4620462946FDF70CF86F
:1037200006460F460B98FDF74CFA32463B4605918C
:10373000049010461946FDF74FFA09910C906B4919
:103740000198099B421800920C9A19461046FDF701
:1037500043FA024607910A90654901980B1A654899
:10376000019303217844079BFFF7AEFE079B0A9A5B
:10377000FDF732FA0E905F480D9104217844079BC3
:103780000A9AFFF7A1FE099B0C9AFDF725FA019B07
:10379000009A1A4300920D9B0E9AFCF79DFF009A27
:1037A00001910C90002A4DDD0022D243204629468B
:1037B000FDF792FB22462B46FDF70EFA00910A9088
:1037C0000B9800282BD0424A424B05990498FDF7EC
:1037D00003FA07910E90019B0C9A00990A98FCF746
:1037E0007BFF32463B46FDF7F7F9079B0E9AFCF745
:1037F00073FF009B0A9AFCF787FF22462B46FCF7D3
:1038000078FF04460D46344A344B05990498FDF779
:10381000E3F922462B46FCF76CFF0FB0F0BD019B8D
:103820000C9A0A98FCF758FF32463B46FDF7D4F94C
:10383000009B0A9AFCF768FF22462B46FCF764FFC0
:103840000FB0F0BD0B98002827D0214A214B0599D5
:103850000498FDF7C1F90791009020462946019B85
:103860000C9AFCF746FF32463B46FDF7B5F9079B3D
:10387000009AFCF73EFF22462B46FCF73AFF04462F
:103880000D46154A154B05990498FDF7A5F92246F2
:103890002B46FCF72EFF0FB0F0BD0B462046294605
:1038A0000C9AFCF726FF32463B46FDF795F9224677
:1038B0002B46FCF729FF0FB0F0BD00000000F07FA1
:1038C00001FCFFFF645F09000000F03FD40300002B
:1038D000763C7935EF39EA3D0000E0FE422EE63FC6
:1038E000555555555555D53F0000E03F86EBF9FF3E
:1038F00051B806007802000070B501252D050C00B6
:103900001C4310D4EC4206D4AC420AD4994200D0F5
:1039100070BD904270BDE94217D4EB4215D4994274
:1039200070BD894270BDEC4206D5AC42F9D58B42E0
:1039300000D070BD824270BD6D004C00EC4204D2DC
:103940005C00EC4201D28B4270BD034C30B4FDF7F9
:10395000F7FA30BC70BD00BF1900120480807F7E72
:103960007D7C7B7A797877767675747372717170F5
:103970006F6E6E6D6C6C6B6A6A69686867666665A7
:103980006464636362616160605F5F5E5E5D5D5C35
:103990005C5B5B5A5A5959585857575656555555A6
:1039A0005454535352525251515050504F4F4F4E06
:1039B0004E4D4D4D4C4C4C4B4B4B4A4A4A49494954
:1039C0004848484747474746464645454544444496
:1039D00044434343434242424241414100000000CC
:1039E00004FA97999999D93FAF788E1DC571CC3F4C
:1039F0009FC678D0099AC33F935555555555E53F15
:103A0000599322942449D23FDE03CB966446C73FA4
:103A100044523EDF12F1C23F0000000000000000EF
:103A200002030405060708090A0B0C0D0E0F1010FF
:103A30000102030405060708090A0B0C0D0E0F10FE
:103A40000000000001020304683A000800000020A2
:103A500008000000F4000008703A00080800002088
:103A6000A00700001001000800127A005A000000B0
:04000005080000B13E
:00000001FF
