:020000040800F2
:10000000100C0020010100085D1E0008551E0008AC
:10001000591E00086D010008DD2C000800000000DA
:100020000000000000000000000000003D1F00086C
:100030005903000800000000611E0008411F00086D
:100040001B0100081B0100081B0100081B01000820
:100050001B0100081B0100081B0100081B01000810
:100060001B0100081B0100081B0100081B01000800
:100070001B0100081B0100081B0100081B010008F0
:100080001B0100081B0100081B0100081B010008E0
:100090001B0100081B0100081B0100081B010008D0
:1000A0001B0100081B0100081B0100081B010008C0
:1000B0001B010008C1290008C52A00081B0100080F
:1000C0001B0100081B0100081B0100081B010008A0
:1000D0001B010008D12C00081B0100081B010008AF
:1000E0005D0300081B0100081B010008DFF80CD0AD
:1000F00000F02AF800480047052D0008100C0020E9
:100100000648804706480047FEE7FEE7FEE7FEE7B1
:10011000FEE7FEE7FEE7FEE7FEE7FEE7451F000815
:10012000ED000008D2B201E000F8012B491EFBD21D
:1001300070470022F6E710B513460A4604461946F2
:10014000FFF7F0FF204610BD064C074D06E0E068C3
:1001500040F0010394E8070098471034AC42F6D30E
:10016000FFF7C8FF6C3300088C330008FEE700007F
:100170002DE9F04F85B04A68002713881BBAB7EB0A
:10018000134F00F0E5800E89032EC0F0E18040F2AD
:10019000300CC2F2000CBCF80AB0BCF80CA040F263
:1001A000000E1C0C4FF0000803250227C2F2000EBF
:1001B0004FF00009A3B25B4513D3534511D8102B60
:1001C000234628BF1023E31A0F3323F00F03E31A4B
:1001D000D25D9BB2D2437344DA734A680E894FF002
:1001E0000109EDB2535B1BBAB8EB134F06D01C0CE0
:1001F000FB1CDFB2B74205F10305DBD3B9F1000FF9
:1002000000F0A6809EF810208EF800209EF81120A5
:100210008EF801209EF812208EF802209EF81320FE
:100220008EF803209EF814208EF804209EF81520E6
:100230008EF805209EF816208EF806209EF81720CE
:100240008EF807209EF818208EF808209EF81920B6
:100250008EF809209EF81A208EF80A209EF81B209E
:100260008EF80B209EF81C208EF80C209EF81D2086
:100270008EF80D209EF81E208EF80E209EF81F206E
:100280008EF80F209CF80A3000228DF801309CF87F
:100290000C308DF800208DF802208DF803309EF888
:1002A0000020D2438DF804209EF80120D2438DF81F
:1002B00005209EF80220D2438DF806209EF80320E8
:1002C000D2438DF807209EF80420D2438DF80820F1
:1002D0009EF80520D2438DF809209EF80620D243CF
:1002E0008DF80A209EF80720D2438DF80B209EF847
:1002F0000820D2438DF80C209EF80920D2438DF8B7
:100300000D209EF80A20D2438DF80E209EF80B2077
:10031000D2438DF80F209EF80C20D2438DF8102088
:100320009EF80D20D2438DF811209EF80E20D24366
:100330008DF812209EF80F20D2438DF813206A46C4
:100340004A6014220A8101228CF8022002F078F916
:10035000012005B0BDE8F08F7047000080B54FF474
:10036000005000F0B9F84FF48040BDE8804000F044
:10037000B3B80000EFF3108072B600F087FA00BF48
:10038000FEE70000014690F82100022816D1086817
:10039000D1E90FC3026822F00E020260026822F067
:1003A00001020260012000FA03F2CCF8042081F877
:1003B00021000020002281F820207047042088635B
:1003C0000120002281F820207047000080B590F8BD
:1003D0002110022923D10268116821F00E01116059
:1003E0002F211368C4F202018A4240F20401C4F2D0
:1003F000020123F00103136016DD3023C4F202036F
:100400009A421DD04423C4F202039A421BD05823BF
:10041000C4F202039A421BD14FF4803320E004213E
:1004200081630121084680BD0823C4F202039A4279
:100430000CD01C23C4F202039A4209D110230FE00E
:100440004FF480730CE04FF4805309E0012307E080
:1004500001F1680C4FF08073624508BF4FF48013C0
:100460000B60012180F82110426B002180F82010E0
:100470000AB190470021084680BD0000806B70479C
:1004800040F23002B0F5005FC2F200020DD0B0F5CC
:10049000804F18BF704740F2880302F1040C02F14C
:1004A0000801FF22C2F2000306E002F1030C911DD5
:1004B00002F110034FF47F421B680020586208804D
:1004C00040F60C40C4F201000168114001600120B7
:1004D0008CF800007047000040F21441C4F20101A2
:1004E0000A68024214BF08607047FFF7C9BF0000E6
:1004F0002DE9F04F82B00E68002E00F0FD8040F232
:100500000C4C41F200424FF6FF7BC4F2010CC4F2E6
:100510000102042300240127C1F2100B4FF0000A4E
:100520004FF000094FF00F0E904208BF03230093D5
:100530003EE00123BB402B4342F82B30D1F804B0FE
:1005400040F20047C4F201075FEACB22BA6854BF09
:1005500022EA080242EA0802BA60DCF800205FEAF8
:100560008B2354BF22EA080242EA0802CCF800209A
:100570007A685FEA8B3354BF22EA080242EA080233
:100580007A605FEACB333A684FF6FF7B54BF22EACA
:10059000080242EA08023A600127C1F2100B0E6815
:1005A0000AF1010A36FA0AF204F1040400F0A48008
:1005B00007FA0AF816EA080FF1D04A685A4511DC22
:1005C000122A51D8DFE802F0340A42465050505007
:1005D000505050505050505050494D00D1F80C9050
:1005E00042E000BF4FF6FF73C1F221039A420FDCD5
:1005F0000023C1F211039A421AD00023C1F2120360
:100600009A4215D00023C1F221039A4210D02BE068
:100610000023C1F222039A420AD00023C1F231031F
:100620009A4205D00023C1F232039A421CD100BF86
:100630008A6842B1012A14BFC0F81480C0F8108043
:100640004FF0080910E04FF004090DE0CA6802F10C
:10065000080909E04FF0000906E0CA6802F1040940
:1006600002E0CA6802F10C0922460346BAF1080FFB
:1006700024BF203A04331D680EFA02F6B54309FA86
:1006800002F22A431A60CA79D2067FF588AF41F296
:100690001803C4F202031A684FEA9A0B42F00102EF
:1006A0001A601A6804F00C0702F001020192019A24
:1006B00040F20042C4F20102A2F57E7252F82B30E1
:1006C00040F600060EFA07F5C4F20106B04223EA2E
:1006D00005050FD040F60043C4F2010398423FF4F1
:1006E00028AF41F20003C4F201039842009B08BF07
:1006F00002231FE700231DE702B0BDE8F08F0000D2
:100700008068084018BF012070470000002A08BF19
:10071000090401617047000040F60800C2F20000C1
:100720000068704740F2200040F60801C2F2000065
:10073000C2F2000100780A681044086070470000A7
:1007400080B542F20000C4F20200016841F01001DD
:100750000160032000F08AF80F2000F005F800F097
:1007600027F8002080BD000070B540F22006C2F2DC
:10077000000640F228013278C2F200014FF47A7389
:100780000968B3FBF2F20446B1FBF2F1084600F04F
:100790004FFB0F2C4FF0010508D838B94FF0FF3050
:1007A00021460022002500F035F87460284670BD0F
:1007B00082B041F21800C4F202000168022241F046
:1007C00001010160016801F0010101910199416895
:1007D00041F080514160406800F0805000900098E6
:1007E0000420C4F20100016862F31A61016002B0E2
:1007F00070470000002848BF704700F01F01012229
:1008000002FA01F14EF200124009CEF2000242F863
:100810002010704710B54EF60C5CCEF2000CDCF8E0
:100820000030C3F3022E8EF00704042C28BF0424EA
:10083000BEF103034FF0FF3E0EFA04F438BF00236D
:10084000A14399400EFA03F39A4300F00F03043BCF
:100850001143634409010C3300F16042B0F1FF3FE2
:10086000C8BF02F56443197010BD00004EF60C516C
:10087000CEF200010A684FF6FF031A4060F30A2225
:1008800042F0806040F0FD700860704702F028FA86
:100890002DE9F04381B0002800F0838042F2000887
:1008A000C4F202080446D8F800000D4600F0070024
:1008B00088420CD2D8F8000020F007002843C8F87E
:1008C0000000D8F8000000F00700A84269D12068B5
:1008D00041F204098107C4F2020917D5410705D581
:1008E000D9F8001041F4E061C9F80010010705D5FE
:1008F000D9F8001041F46051C9F80010D9F800107F
:10090000A26821F0F0011143C9F80010C00741D1DD
:10091000D8F8000000F00700A8420CD9D8F8000071
:1009200020F007002843C8F80000D8F8000000F0C5
:100930000700A84235D12068410707D5D9F8001033
:10094000E26821F4E0611143C9F80010000708D5FE
:10095000D9F80000216920F4605040EAC100C9F8CC
:100960000000D9F8002002F00C00082841F2002015
:10097000C0F27A004BD143F25A33C2F38341C0F63E
:100980000003595CD20336D440F60010C0F23D009B
:1009900048433CE06068012807D159F8041C8903EA
:1009A0000CD4012001B0BDE8F08359F8041C0228E2
:1009B00002D18901F5D501E08907F2D5D9F80010F7
:1009C00021F003010843C9F80000FFF7A5FE064621
:1009D00041F28837D9F80000616800F00C00B0EBF4
:1009E000810F95D0FFF798FE801BB842F2D9032003
:1009F00001B0BDE8F083D9F8002043F25813C2F3E8
:100A00004042C0F600039A5C4843B0FBF2F0D9F8CC
:100A1000001043F24012C1F30311C0F60002515C12
:100A200040F2280220FA01F140F22400C2F2000054
:100A30000068C2F200021160FFF796FE002001B0CC
:100A4000BDE8F08340F2280041F20401C2F2000048
:100A5000C4F202010068096843F25012C1F3022196
:100A6000C0F60002515CC8407047000040F2280008
:100A700041F20401C2F20000C4F2020100680968F8
:100A800043F25012C1F3C221C0F60002515CC840CB
:100A9000704700002DE9F04182B0002867D004467D
:100AA000007841F20006C007C4F2020624D0706844
:100AB00000F00C0004281AD0706800F00C00082820
:100AC00002D17068C00312D46068002800F0418130
:100AD000B0F5803F07D03168B0F5A02F40F06E81AF
:100AE00041F480203060306840F480306CE1306840
:100AF000800301D56068D0B32078800718D570686E
:100B000010F00C0F07D0706800F00C00082856D1C8
:100B10007068C00353D43068800702D5206901286B
:100B200025D13068616920F0F80040EAC1003060EA
:100B3000207800071FD42078400731D4E56995B1AB
:100B4000706800F00C00082840F08B80012D0ED05A
:100B50007068216A00F480328A4208D1616A00F428
:100B60007010884203D1002002B0BDE8F08101205E
:100B700002B0BDE8F081A069B8B30020C4F2422001
:100B80000121C0F88014FFF7C7FD0546706A800791
:100B900000F18A80FFF7C0FD401B0228F6D920E152
:100BA000F069C00033D4F0694FF0010840F0805084
:100BB000F061F06900F080500090009829E0206911
:100BC000002840F20000C4F2422000F0978001218A
:100BD0000160FFF7A1FD054630688007A1D4FFF74B
:100BE0009BFD401B0228F7D9FBE00020C4F2422005
:100BF0000021C0F88014FFF78FFD0546706A80075A
:100C000099D5FFF789FD401B0228F7D9E9E04FF09D
:100C1000000847F20007C4F200073868C00510D486
:100C2000386840F480703860FFF776FD054600BFF5
:100C30003868C00505D4FFF76FFD401B6428F7D95D
:100C4000CFE0E06800286BD0012806D0316A052883
:100C500040F0968041F004003062306A40F00100BC
:100C600094E00027C4F2422700203866FFF754FDC5
:100C7000022D05460CD100BF3068800140F1B580DF
:100C8000FFF74AFD401B02284FF00300F4D96BE741
:100C9000306880017FF567AFFFF73EFD401B0228FB
:100CA0004FF00300F4D95FE740F22800C2F20000E1
:100CB000006844F6D351C1F26201A0FB0101480A69
:100CC000019000BF00BF0198411E002801913FF430
:100CD00032AF00BF0198411E002801913FF42BAFB5
:100CE00000BF0198411E002801913FF424AF00BFCE
:100CF0000198411E00280191E4D11CE70021016008
:100D0000FFF70AFD054600BF306880077FF510AF8A
:100D1000FFF702FD401B02284FF00300F4D923E740
:100D2000306A20F001003062306A20F00400306246
:100D3000FFF7F2FC054641F2883700BF306A8007B2
:100D400033D5FFF7E9FC401BB8424FF00300F5D95B
:100D50000AE7306820F480303060306820F480206A
:100D60003060FFF7D9FC0546306880037FF5C4AEDC
:100D7000FFF7D2FC401B64284FF00300F4D9F3E6E0
:100D800021F001003062306A20F004003062FFF789
:100D9000C3FC054641F28837306A800705D4FFF767
:100DA000BBFC401BB842F7D91BE0B8F1000F3FF481
:100DB000C5AEF06920F08050F061BFE621F48030CC
:100DC0003060306820F480203060FFF7A5FC0546D5
:100DD000306880033FF590AEFFF79EFC401B64280F
:100DE000F6D9032002B0BDE8F081206AB0F5803F5B
:100DF00005D17168A26821F40031114371607168F6
:100E0000626A21F47411104308437060012038664F
:100E1000FFF782FC044600BF306880013FF5A3AEB7
:100E2000FFF77AFC001B02284FF00300F4D99BE681
:100E3000411E0020B0EB116F1CBF012070474EF225
:100E40001002CEF2000251604EF62351CEF20001A4
:100E5000F0230B70072190601160704710B590F877
:100E60003C20012A4FF0020235D0012380F83C30AB
:100E700080F83D200268D2F804E0D2F808C00C687F
:100E80002EF07003234340F2FF74C4F20004A24228
:100E9000536009DCB2F1804F12D040F20043C4F23B
:100EA00000039A420CD010E042F60043C4F2010362
:100EB0009A4205D040F60003C4F200039A4204D1DE
:100EC00049682CF08003194391600121002280F8C9
:100ED0003D1080F83C20104610BD0000002804BFE3
:100EE0000120704710B5044690F83D0028B9002055
:100EF00084F83C00204600F067F8022084F83D00AA
:100F0000206840F2FF730268C4F2000342F6004C0E
:100F10009842C4F2010C14DCB0F1804F19D040F2B9
:100F20000041C4F20001884213D0984217DCB0F1AE
:100F3000804F1CD040F20041C4F20001884216D01C
:100F400019E0604505D040F60001C4F20001884276
:100F5000EBD1A16822F070020A439842E7DD6045B8
:100F600005D040F60001C4F20001884203D1216996
:100F700022F440720A43A36922F08001D4F804E00D
:100F8000E268194360450160C262C0F828E002D1FE
:100F90006169CCF8301001214161002084F84610CD
:100FA00084F83E1084F83F1084F8401084F8411013
:100FB00084F8421084F8431084F8441084F84510F3
:100FC00084F83D1010BD000010B582B0006840F6F6
:100FD0000001C4F20001884214D040F20041C4F282
:100FE0000001884227D141F21C00C4F202000168CE
:100FF0001D2441F002010160006800F00200019030
:1010000001980DE041F21C00C4F2020001681E24A8
:1010100041F004010160006800F0040000900098B5
:10102000204600210022FFF7F5FB204602B0BDE874
:101030001040FFF7DFBB02B010BD000090F83D107C
:1010400001291CBF01207047022180F83D10006873
:1010500040F2FF72C168C4F20002904241F0010107
:10106000C16009DCB0F1804F12D040F20041C4F2FF
:10107000000188420CD012E042F60041C4F20101A6
:10108000884205D040F60001C4F20001884206D132
:10109000816801F00701062904BF0020704701683C
:1010A00041F00101016000207047000080B590F818
:1010B0003C20012A4FF0020200F0C280012380F898
:1010C0003C3080F83D20D0F800C04FF67772DCF855
:1010D000083023EA0202CCF808200B684F2B28DCEA
:1010E0001F2B43DD202B44D0302B42D0402B40F02F
:1010F000A980D1F804E0C968DCF82030DCF82020B1
:1011000022F00102CCF82020DCF8182022F0F002B6
:1011100042EA011123F00A0242EA0E02CCF818104A
:10112000CCF82020DCF8081041F0470121F0300114
:101130007DE06F2B25DDB3F5005F46D0B3F5805F12
:1011400077D0702B7ED1D1E901E3C968DCF80820A3
:1011500043EA0E0322F47F4243EA01211143CCF813
:101160000810DCF8081041F0770160E00BB1102B9B
:1011700068D1DCF8081021F07001194341F0070133
:1011800055E0502B34D0602B5CD1D1F804E0C96815
:10119000DCF82030DCF8202022F01002CCF82020EF
:1011A000DCF8182022F4704242EA013123F0A00258
:1011B00042EA0E12CCF81810CCF82020DCF8081007
:1011C00041F0670121F0100131E0D1E901E3C96884
:1011D000DCF8082043EA0E0322F47F4243EA0121AF
:1011E0001143CCF80810DCF8081041F480411EE0EF
:1011F000D1F804E0C968DCF82030DCF8202022F0C7
:101200000102CCF82020DCF8182022F0F00242EA9B
:10121000011123F00A0242EA0E02CCF81810CCF8B1
:101220002020DCF8081041F0570121F02001CCF813
:1012300008100022012180F83D10002180F83C10A8
:10124000104680BD0122F5E77047000010B5044646
:10125000206850E8030F216820F4907041E80302F1
:10126000BAB3206850E8030F216820F4907041E879
:10127000030272B3206850E8030F216820F49070D5
:1012800041E803022AB3206850E8030F216820F4E4
:10129000907041E80302002ADAD11AE0206850E891
:1012A000050F216820F0010041E80502DAB120684D
:1012B00050E8050F216820F0010041E8050292B1D5
:1012C000206850E8050F216820F0010041E8050280
:1012D0004AB1206850E8050F216820F0010041E87C
:1012E0000502002ADAD1206B012824D1206850E8B9
:1012F000030F216820F0100041E80302DAB12068F2
:1013000050E8030F216820F0100041E8030292B179
:10131000206850E8030F216820F0100041E8030224
:101320004AB1206850E8030F216820F0100041E81E
:101330000302002ADAD120684169490635D500BF89
:1013400050E8050F216820F0400041E80502E2B1B5
:10135000206850E8050F216820F0400041E80502B0
:101360009AB1206850E8050F216820F0400041E85C
:10137000050252B1206850E8050F216820F04000B6
:1013800041E805020AB12068DAE7E06B68B10021A4
:101390004163FEF7F7FF40B1E06BFFF76FF82028DD
:1013A00003D110206064032010BD00202021E085BF
:1013B00084F84210206310BD10B582B0002040F2C6
:1013C000D0040190C2F2000421680A6801924A68C0
:1013D0000192019A01900A6801924A680192019A69
:1013E00001900A6801924A680192019A01900A6884
:1013F00001924A680192019A019008680190486838
:10140000019001982046FFF721FF40F60000C4F24A
:1014100001004FF400610022FFF778F940F230003C
:10142000C2F20000411D2046012202B0BDE810407A
:1014300000F06ABBF0B581B0044600680168C2687C
:10144000456901F02F03202B02F0200306D12BB1B8
:10145000204601B0BDE8F04001F0BCBB5FEA017C72
:1014600007D005F0010E12F4907F8EF001052FD108
:1014700075B3236B1140CA0618D5012B16D1002174
:101480000091016800914168009100994169490605
:1014900000F18481A18DE28DE38D002B1CBF891AA0
:1014A0005FEA014240F0FD8001B0F0BD0A0600F1A4
:1014B0002E824906F8D5C16821F04001C160202183
:1014C000204684F8411001B0BDE8F04000F0C0BCF7
:1014D000CE0718BF12F4807603D0666C46F0010682
:1014E000666401F00407012686EA97072F4303D1BB
:1014F000676C47F00207676401F0020786EA570647
:10150000354303D1656C45F00405656453EA0E0369
:1015100018BF0123BCF1000F04D51BB1636C43F06D
:1015200008036364636C002BBED01140890603D5A9
:10153000204601F04FFB20684169626C01F04001D8
:1015400002F00802891800F0F38100BF50E8030F91
:10155000216820F4907041E80302C2B3206850E88B
:10156000030F216820F4907041E803027AB32068E9
:1015700050E8030F216820F4907041E8030232B371
:10158000206850E8030F216820F4907041E80302BE
:10159000EAB12068DAE700BF206850E8050F21684B
:1015A00020F0010041E80502DAB1206850E8050F9B
:1015B000216820F0010041E8050292B1206850E85E
:1015C000050F216820F0010041E805024AB12068BA
:1015D00050E8050F216820F0010041E80502002ACB
:1015E000DAD1206B012824D1206850E8030F21684C
:1015F00020F0100041E80302DAB1206850E8030F40
:10160000216820F0100041E8030292B1206850E800
:10161000030F216820F0100041E803024AB120685E
:1016200050E8030F216820F0100041E80302002A6F
:10163000DAD1202084F8420000202063206841692C
:10164000490640F18E8150E8050F216820F04000E6
:1016500041E80502002A00F07281206850E8050F79
:10166000216820F0400041E80502002A00F067816F
:10167000206850E8050F216820F0400041E805028D
:10168000002A00F05C81206850E8050F216820F0F6
:10169000400041E80502002A00F051812068D2E7AD
:1016A000206850E8030F226820F4907042E803039A
:1016B000BBB3206850E8030F226820F4907042E822
:1016C000030373B3206850E8030F226820F490707E
:1016D00042E803032BB3206850E8030F226820F48C
:1016E000907042E80303002BDAD11AE0206850E83A
:1016F000050F226820F0010042E80503DBB12068F5
:1017000050E8050F226820F0010042E8050393B17C
:10171000206850E8050F226820F0010042E8050328
:101720004BB1206850E8050F226820F0010042E824
:101730000503002BDAD1202084F84200002020632A
:10174000206850E8030F226820F0100042E80303ED
:10175000DBB1206850E8030F226820F0100042E857
:10176000030393B1206850E8030F226820F01000B3
:1017700042E803034BB1206850E8030F226820F0D1
:10178000100042E80303002BDAD1022289B220467E
:10179000626301B0BDE8F040FFF756BDE26B11682F
:1017A0004B689EB2002E3FF47FAEA18D8E42BFF4F7
:1017B0007BAEE3859269202A00F09E8050E8030FFB
:1017C000216820F4807041E80302E2B1206850E80B
:1017D000030F216820F4807041E803029AB1206869
:1017E00050E8030F216820F4807041E8030252B1F1
:1017F000206850E8030F216820F4807041E803025C
:101800000AB12068DAE7206850E8050F216820F067
:10181000010041E80502BAB3206850E8050F2168CD
:1018200020F0010041E8050272B3206850E8050F7E
:10183000216820F0010041E805022AB3206850E841
:10184000050F216820F0010041E80502002ADAD1E5
:101850001AE0206850E8050F216820F0400041E8B8
:101860000502DAB1206850E8050F216820F0400039
:1018700041E8050292B1206850E8050F216820F088
:10188000400041E805024AB1206850E8050F216890
:1018900020F0400041E80502002ADAD1202084F837
:1018A000420000202063206850E8030F216820F0E8
:1018B000100041E80302DAB1206850E8030F216804
:1018C00020F0100041E8030292B1206850E8030FB5
:1018D000216820F0100041E803024AB1206850E876
:1018E000030F216820F0100041E80302002ADAD13A
:1018F000E06BFEF747FDA18D02206063E08D081AC2
:1019000081B2204601B0BDE8F040FFF79DBC94F8DD
:10191000411021297FF4C8ADA168B1F5805F01D1E4
:10192000216921B3216A4A1C22620978416025E0BD
:101930002046FFF741FD0020606401B0F0BDE06B80
:1019400078B142F6C931C0F600014163FEF73EFDB1
:1019500000283FF4A9ADE06B416B01B0BDE8F04059
:101960000847204601B0BDE8F040FFF725BD216AD9
:1019700031F8022B6FF35F2242602162E18C013962
:101980000A04E1847FF490ADC16821F08001C16058
:10199000C16841F04001C16001B0F0BD002804BF42
:1019A0000120704710B5044690F8410028B9002086
:1019B00084F84000204600F05FF8242084F84100BD
:1019C0002068D4E90212C36823F40053C36003699A
:1019D00023F440531A430261D4E904231143C2683B
:1019E000194341F20C639A431143C1604169A269F2
:1019F00021F44071114343F60002C4F20102904207
:101A0000416102D0FFF71EF801E0FFF72FF862688E
:101A1000192148439100B0FBF1F048F21F51C5F283
:101A2000EB11A0FB01235A096FF0630302FB0300D3
:101A3000322303EB0010A0FB0101F02303EA511352
:101A4000206803EB0212C1F3431111448160016964
:101A500021F490410161416921F02A014161C1688D
:101A600041F40051C16000202021606484F84110DD
:101A700084F84210606310BD70B586B0002640F651
:101A800000040596CDE90366C4F20104006804F57C
:101A900040518842029601D006B070BD41F2180054
:101AA000C4F20200016802AD41F4804101600168A6
:101AB00001F4804101910199016841F00401016044
:101AC0000068294600F00400019001984FF400706E
:101AD000029002200390032005902046FEF708FDA7
:101AE0004FF48060CDE90206204629460496FEF7B1
:101AF000FFFC252003210022FEF78CFE2520FEF7A7
:101B000079FE06B070BD000090F84230202B1CBF5B
:101B10000220704700294FF0010318BF002A01D1AD
:101B20001846704700230363816222218285C285A3
:101B3000436480F842100169006819B1C16841F43A
:101B40008071C1604169002341F001014161C168B8
:101B500041F02001C16018467047000010B540F206
:101B60003004C2F2000414F8051F40F21810C2F24B
:101B7000000000F0E9F940F60000C4F201004FF463
:101B800000610022FEF7C2FD40F2D000C2F2000068
:101B900021460122BDE81040FFF7B6BF2DE9F04114
:101BA000044690F8410020281CBF0220BDE8F081C7
:101BB0000F4600294FF0010000F0DC801646002A95
:101BC00008BFBDE8F0814FF0000821201D46C4F891
:101BD000448084F84100FEF79FFDA684E684A16856
:101BE0000646B1F5805F05D12069002814BF38464C
:101BF000B8460746E28C2068016812B36A1C47D0D9
:101C0000002D00F0C78000BF090609D4FEF784FD4F
:101C1000801BA84200F2C680206801680906F5D53D
:101C200017B117F8011B04E038F8021B00276FF307
:101C30005F214160E18C0139E184E28C0168002A76
:101C4000E2D1490611D4002D40D0691C38D100BF23
:101C5000016849065CBF01685FEA416105D401681B
:101C6000490602D401684906F2D5202084F84100D3
:101C70000020BDE8F08138F8021B00276FF35F21D8
:101C80004160E18C0139E184E28C0168002AD8D0FE
:101C900009065FBF01685FEA016101685FEA0161EF
:101CA00004D40168090601D40168F1E7002FE2D0ED
:101CB00017F8011BE4E700BF206800684006D4D491
:101CC000FEF72AFD801BA842F6D900BF206850E825
:101CD000030F216820F4D07041E80302BAB32068F2
:101CE00050E8030F216820F4D07041E8030272B37A
:101CF000206850E8030F216820F4D07041E8030207
:101D00002AB3206850E8030F216820F4D07041E81E
:101D10000302002ADAD11AE0206850E8050F216892
:101D200020F0010041E80502DAB1206850E8050F13
:101D3000216820F0010041E8050292B1206850E8D6
:101D4000050F216820F0010041E805024AB1206832
:101D500050E8050F216820F0010041E80502002A43
:101D6000DAD1202084F8410084F84200002084F871
:101D700040000320BDE8F08138F8021B00276FF314
:101D80005F214160E18C0139E184E28C0168002A25
:101D90003FF457AF090605D5002FEDD017F8011B0A
:101DA000EFE700BF206850E8030F216820F4D070EF
:101DB00041E80302BAB3206850E8030F216820F419
:101DC000D07041E8030272B3206850E8030F216825
:101DD00020F4D07041E803022AB3206850E8030FD2
:101DE000216820F4D07041E80302002ADAD11AE019
:101DF000206850E8050F216820F0010041E8050245
:101E0000DAB1206850E8050F216820F0010041E8B0
:101E1000050292B1206850E8050F216820F001000A
:101E200041E805024AB1206850E8050F216820F01A
:101E3000010041E80502002ADAD1202084F841009F
:101E400084F84200002084F840000320BDE8F081BF
:101E500070470000FEE70000FEE70000FEE700001C
:101E60007047000080B586B04A6840F2300C128896
:101E7000C2F2000C1204BCF80A3012BA9A4259D3CA
:101E8000BCF80CE0724555D800228DF8053040F2C0
:101E900000038DF804208DF806208DF807E0C2F2CB
:101EA00000031A78D2438DF808205A78D2438DF86F
:101EB00009209A78D2438DF80A20DA78D2438DF837
:101EC0000B201A79D2438DF80C205A79D2438DF821
:101ED0000D209A79D2438DF80E20DA79D2438DF80D
:101EE0000F201A7AD2438DF810205A7AD2438DF8F7
:101EF00011209A7AD2438DF81220DA7AD2438DF8E3
:101F000013201A7BD2438DF814205A7BD2438DF8CC
:101F100015209A7BD2438DF81620DA7BD2438DF8B8
:101F2000172001AA4A6014220A8101228CF802209B
:101F300000F086FB012006B080BD00007047000065
:101F4000FEF7F0BB7047000010B582890446807A26
:101F5000322A13D300281CBF0020A0720020A081C9
:101F6000012940F0B980002084F819040320A072F0
:101F70000020CCF2C100C4F8120410BD00220628D3
:101F8000A28100F2A980DFE800F00405264A667EFF
:101F90008B00E5E7B4F8140443F25A13C2B24A4086
:101FA000C0F6000333F8122082EA1020228AA4F837
:101FB000140441EA0220B4F812142082481C81B2B1
:101FC0000229A4F8120440F087800420A0720020A7
:101FD000A4F8120410BDB4F8160441EA0020B4F8C5
:101FE0001214A4F8160401318AB2022AA4F81214B9
:101FF00072D1B4F8141480B2814240F09480208AE7
:10200000002800F08D800521A1720021B0F5806FBD
:10201000C4F8121460D9012084F8190410BDB4F872
:10202000140443F25A13C2B24A40C0F6000333F814
:102030001220A17382EA1020A4F81404B4F8120448
:10204000411C0028A4F8121446D10120A0720020DF
:10205000A4F8120410BDB4F8140443F25A13C2B227
:102060004A40C0F6000333F8122084F8181482EABC
:102070001020A4F81404B4F81204411CA4F812149B
:1020800050BB022045E094F8190430B3B4F81204B0
:102090000130A4F81204218A80B288421CD137E0B2
:1020A000B4F8160441EA0020B4F81214A4F8160497
:1020B00001318AB2022AA4F8121418BF10BDB4F874
:1020C000141480B2814205D194F8190410B9204645
:1020D00000F0DEF90020A07210BDB4F8140443F241
:1020E0005A13C2B24A40C0F6000333F8122082EA03
:1020F0001020B4F81224A4F81404501CA4F81204FC
:10210000A0188174B4F81204218A80B28842E3D105
:102110000620A0720020A4F81204A4F8160410BD32
:10212000204600F0B5F90020A07210BD80B5D0F8AF
:10213000ACC4BCF1000F65D0D0F8C0C4BCF1000F36
:1021400065D0D0F8D4C4BCF1000F65D0D0F8E8C495
:10215000BCF1000F65D0D0F8FCC4BCF1000F65D015
:10216000D0F810C5BCF1000F65D0D0F824C5BCF183
:10217000000F65D0D0F838C5BCF1000F65D0D0F89D
:102180004CC5BCF1000F65D0D0F860C5BCF1000FA4
:1021900065D0D0F874C5BCF1000F65D0D0F888C503
:1021A000BCF1000F65D0D0F89CC5BCF1000F65D024
:1021B000D0F8B0C5BCF1000F65D0D0F8C4C5BCF1F3
:1021C000000F65D0D0F8D8C5BCF1000F65D0D0F8AD
:1021D000ECC5BCF1000F65D0D0F800C6BCF1000F13
:1021E00065D0D0F814C6BCF1000F65D0D0F828C671
:1021F000BCF1000F1CBF002080BD00F5C56C4FF086
:10220000130E5DE000F2AC4C4FF0000E58E000F50C
:10221000986C4FF0010E53E000F2D44C4FF0020ED8
:102220004EE000F59D6C4FF0030E49E000F2FC4CCF
:102230004FF0040E44E000F5A26C4FF0050E3FE0B5
:1022400000F2245C4FF0060E3AE000F5A76C4FF068
:10225000070E35E000F24C5C4FF0080E30E000F560
:10226000AC6C4FF0090E2BE000F2745C4FF00A0EDC
:1022700026E000F5B16C4FF00B0E21E000F29C5C03
:102280004FF00C0E1CE000F5B66C4FF00D0E17E091
:1022900000F2C45C4FF00E0E12E000F5BB6C4FF084
:1022A0000F0E0DE000F2EC5C4FF0100E08E000F5B0
:1022B000C06C4FF0110E03E000F2146C4FF0120EE0
:1022C000CCF8002091F800C00EEB8E0200EB8202E9
:1022D00082F8A8C4D1E903C1A2F8B034C2F8B81496
:1022E00090F8EC16C2F8B4C48E45A2F8B2343CBFE4
:1022F000012080BD0EF1010180F8EC16012080BDA7
:1023000080B5D0F83C36002B52D0D0F84436002BA4
:1023100053D0D0F84C36002B54D0D0F85436002B84
:1023200055D0D0F85C36002B56D0D0F86436002B50
:1023300057D0D0F86C36002B58D0D0F87436002B1C
:1023400059D0D0F87C36002B5AD0D0F88436002BE8
:102350005BD0D0F88C36002B5CD0D0F89436002BB4
:102360005DD0D0F89C36002B5ED0D0F8A436002B80
:102370005FD0D0F8AC36002B60D0D0F8B436002B4C
:1023800061D0D0F8BC36002B62D0D0F8C436002B18
:1023900063D0D0F8CC36002B64D0D0F8D436002BE4
:1023A0001CBF002080BD00F2D46C4FF0130E5DE026
:1023B00000F23C6C4FF0000E58E000F2446C4FF01D
:1023C000010E53E000F24C6C4FF0020E4EE000F2B2
:1023D000546C4FF0030E49E000F25C6C4FF0040EB9
:1023E00044E000F2646C4FF0050E3FE000F26C6CCC
:1023F0004FF0060E3AE000F2746C4FF0070E35E035
:1024000000F27C6C4FF0080E30E000F2846C4FF06C
:10241000090E2BE000F28C6C4FF00A0E26E000F261
:10242000946C4FF00B0E21E000F29C6C4FF00C0E00
:102430001CE000F2A46C4FF00D0E17E000F2AC6C43
:102440004FF00E0E12E000F2B46C4FF00F0E0DE0E4
:1024500000F2BC6C4FF0100E08E000F2C46C4FF0BC
:10246000110E03E000F2CC6C4FF0120ECCF80020FD
:1024700090F8ED2600EBCE03964583F838163CBF66
:10248000012080BD0EF1010180F8ED16012080BD14
:102490002DE9F04786B04FF00009CDF80490CDF853
:1024A0001490CDE903998246807B9AF818148DF830
:1024B00004000AF1120002909AF8EC068DF806105A
:1024C000BAF81010ADF80C108DF8059060B3002626
:1024D00040F2B4450DF10408002705E00137143639
:1024E000874205F114051FD20AEB0604D4F8AC2488
:1024F000002AF3D094F8A8149DF804309942EDD145
:102500005AF80500D4F8B814CDE904015046414604
:102510009047DDE9041200284AF80510C4F8B824F1
:102520004BD19AF8EC06D9E79AF8ED06CDF8109061
:10253000CDF81490D8B10AF23C64002601AD02E057
:102540000136864213D254F83620002AF8D00AEB1E
:10255000C60797F838169DF806309942F0D15046D4
:1025600029469047002840D19AF8ED06E8E79AF806
:10257000EE06002845D0002401AD04E09AF8EE06EE
:10258000013484423DD20AEB8406D6F8D826002ACC
:10259000F6D05046294690470028EFD0032830D186
:1025A0000020C6F8D8069AF8EE060138A04228D1D5
:1025B0008AF8EE0606B0BDE8F087022824D003288A
:1025C0001FD100204AF80500D4F8AC14C4F8B804B0
:1025D000B9B19AF8EC16C4F8AC040139B94210D17B
:1025E0008AF8EC1606B0BDE8F087032809D1002070
:1025F000C7F83C069AF8ED060138B04201D18AF8D6
:10260000ED0606B0BDE8F087B4F8B204A4F8B00453
:1026100006B0BDE8F0870000002804BF0020704726
:10262000F0B581B00D46D0E900674FF4DE61044695
:10263000FDF77FFDC4E900672572012001B0F0BD00
:102640004FF0010C0022002381F801C0AFF300809D
:102650002DE9F04F8BB0044690F8A60418B1002085
:102660000BB0BDE8F08F48780E46012184F8A6141F
:1026700008B1307809E0617A277A481C607261F00D
:102680007F00002F08BF01F07F00307084F81B042A
:1026900080F0C10043F25A170121C0B2C0F6000712
:1026A00084F81A1437F81000717AC5B284F81C1433
:1026B000694081F0C001358937F811E05FFA85FC87
:1026C00084F81D545FFA8EF585EA102080EA0C002C
:1026D00037F81000B578C1B281EA1E21694037F899
:1026E000111084F81E5481EA1020090A84F81F147E
:1026F00084F82004B6F808900720C4F89C04C4F8B5
:10270000A09442B120463146FFF710FD002800F0AA
:10271000EB80B6F8089004F21A480020B9F1000FD7
:10272000A4F8A40400F0E6807668002E00F007818B
:10273000D4F89C2404F21D400290701C4FF0000B52
:102740000190CDF80C800A9604E000BFB9F1000FAB
:1027500000F0D280C2F180034B4528BF4B461904DC
:102760000CD01FFA83FEAEF10101032903F003052B
:1027700008D20021002D64D1A2E000BF4FF0000E6E
:10278000A0E000BF0298069383180198A5EB0E06FF
:1027900000EB0B0A6FF00301CDF82490CDE9045E45
:1027A0000792CDF820B000BF0AEB010B9BF8038025
:1027B00003EB010989F80180B4F8A4C404315FFA7D
:1027C0008CFE8EEA080537F8155085EA1C25A4F81A
:1027D000A4549BF8045089F80250B4F8A404C2B27F
:1027E0006A4037F8122082EA1020A4F8A4049BF86B
:1027F000050089F80300B4F8A424D5B2684037F87E
:10280000100080EA1220A4F8A4049BF8060089F8BE
:102810000400B4F8A424D5B2684037F8100080EA68
:10282000122072180432A4F8A404BDD1DDE909967F
:10283000DDE9072BDDE905E3DDE903850431002D42
:102840003ED006EB0B0C22441CF8016002F21A4049
:102850004654B4F8A424C246A846D5B26E4037F810
:102860001660454686EA12220A9ED046012DA4F83B
:10287000A42425D04A1C1CF80260A8468654B4F84B
:10288000A424B8F1020FD5B286EA050637F816601F
:10289000D04686EA12220A9EA4F8A42410D002315F
:1028A0001CF801604654B4F8A414CAB282EA0600C7
:1028B00037F810000A9E80EA1120A4F8A40400BF93
:1028C000D4F89C247244A9EB0309802A9B44C4F8E1
:1028D0009C247FF43BAF20464146802200F034F830
:1028E0000022C4F89C2431E7002084F8A6040BB031
:1028F000BDE8F08FD4F89C24D4F8A004C0B1C2F194
:102900008000012806D82046414600F01DF800222C
:10291000C4F89C2494F8A504A11881F81A0494F82A
:10292000A40481F81B04D4F89C04821CC4F89C24E1
:102930002046414600F008F8002084F8A604012053
:102940000BB0BDE8F08F000070B540F60004C4F293
:10295000010415460E4620464FF400610122FDF7A2
:10296000D5FEAAB240F2D005C2F200052846314693
:102970002D23FFF713F900BF95F8410020280BD055
:1029800095F84100202807D095F84100202803D071
:1029900095F841002028EFD120464FF40061002235
:1029A000FDF7B4FE40F23000C2F20000411D40F2DB
:1029B000D000C2F200000122BDE87040FFF7A4B8C9
:1029C00040F23600C2F20000018801318AB2018073
:1029D00040F23301B2F5807FC2F2000124BF002231
:1029E0000A700978002963D040F20002C2F20002A6
:1029F00001881278914240F60C41C4F2010103D9DA
:102A00000A6842F001020A6040F20103C2F20003C8
:102A100002881B789A4203D90A6842F002020A60CF
:102A200040F20203C2F2000302881B789A4203D9E3
:102A30000A6842F004020A6040F20303C2F2000393
:102A400002881B789A4203D90A6842F008020A6099
:102A500040F20403C2F2000302881B789A4203D9B1
:102A60000A6842F010020A6040F20503C2F2000355
:102A700002881B789A4203D90A6842F020020A6051
:102A800040F20603C2F2000302881B789A4203D97F
:102A90000A6842F040020A6040F20702C2F20002F5
:102AA00000881278904203D9086840F080000860DE
:102AB00040F24000C2F2000000686FF001010161C5
:102AC0007047000040F23800C2F200000188013176
:102AD0008AB2018040F23401B2F5807FC2F2000177
:102AE00024BF00220A700978002963D040F208024E
:102AF000C2F2000201881278914240F60C41C4F201
:102B0000010103D90A6842F480720A6040F20903A5
:102B1000C2F2000302881B789A4203D90A6842F481
:102B200000720A6040F20A03C2F2000302881B78B6
:102B30009A4203D90A6842F480620A6040F20B03A9
:102B4000C2F2000302881B789A4203D90A6842F451
:102B500000620A6040F20C03C2F2000302881B7894
:102B60009A4203D90A6842F480520A6040F20D0387
:102B7000C2F2000302881B789A4203D90A6842F421
:102B800000520A6040F20E03C2F2000302881B7872
:102B90009A4203D90A6842F480420A6040F20F0266
:102BA000C2F2000200881278904203D9086840F40B
:102BB0000040086040F28800C2F2000000686FF038
:102BC0000101016170470000406A0021C185C18494
:102BD000FEF7F2BB81B090F84210222920D1836821
:102BE000B3F5805F08D10169002964D000F12801A4
:102BF0000A6803685B680AE0014651F8282F13B998
:102C00000369002BF5D003685B6803F07F03137042
:102C10000A6801320A60C18D01390A04C18501D0F8
:102C200001B070470168CA6822F02002CA60CA6811
:102C300022F48072CA604A6922F001024A612022AD
:102C400080F8422000224263036B012B3CD10263D7
:102C500051E8031F026821F0100142E803130168E4
:102C6000DBB151E8031F026821F0100142E80313B1
:102C7000016893B151E8031F026821F0100142E896
:102C8000031301684BB151E8031F026821F01001E2
:102C900042E803130168002BDAD10A68D20606D590
:102CA000002200920A680092496800910099818D83
:102CB00001B0FEF7C9BA0168826A49686FF35F2103
:102CC00022F8021B8262A6E701B0FEF747BF0000B0
:102CD00040F2D000C2F20000FEF7ACBBFEE70000FD
:102CE0004EF60C50BFF34F8FCEF200000168042265
:102CF00001F4E061C0F2FA5211430160BFF34F8F5B
:102D000000BFFDE790B0FDF71BFD00240A200994E9
:102D1000CDE907440690012010210A90CDE90B105F
:102D200002254FF46010CDE90D540F9006A80494CD
:102D3000CDE90244CDE90044FDF7ACFE002840F0A7
:102D4000AA810F20CDE900054FF480600294CDE9FF
:102D5000030468460221FDF79BFD002840F09B819B
:102D6000002541F218000995C4F20200016840F6FE
:102D7000000941F0100101600168C4F2010901F08D
:102D8000100100910099016809F5806841F0200167
:102D900001600168002201F02001009100990168A2
:102DA0004FF6FF7B41F004010160016801F004016E
:102DB00000910099016841F00801016000684FF638
:102DC000FF7100F00800009000984046FDF79EFC5F
:102DD00048464FF408410022FDF798FC4FF4C040EC
:102DE00006900020C1F2110009F5006706AECDE99A
:102DF000070538463146FDF77BFB4FF4004A0124B6
:102E000038463146CDE906A50894FDF771FB032746
:102E100009F540603146CDE906750894FDF768FB79
:102E2000FF20CDE90605484631460895FDF760FBD1
:102E300040463146CDE906B4CDE90857FDF758FBC9
:102E40004FF48850CDE90605484631460894FDF711
:102E50004FFB4FF4006006A9B1C148463146FDF76B
:102E600047FB0220CDE906A4099048463146089563
:102E7000FDF73EFB0420C4F201000168002241F08E
:102E8000E06141F40041016028200121FDF7C2FC0E
:102E90002820FDF7AFFC40F2D00009F54051C2F206
:102EA00000000C234FF4E13280E82600C0E903550E
:102EB000C0E90535C561FEF771FD002840F0EB80E3
:102EC00040F2300840F20044C2F20008C4F20004AC
:102ED000404640F8104F41F6FF01CDE90855CDE9D5
:102EE0000655CDE90055C0E90155C0E903158561D6
:102EF000FDF7F4FF002840F0CE804FF4805008F139
:102F00001005069006A92846FEF7D0F8002840F0E4
:102F1000C280002669462846CDE90066FDF79EFF7F
:102F2000002840F0B8802846FEF788F840F2880074
:102F300004F58061C2F2000041F6FF02CDE90866A7
:102F4000CDE90666CDE90066C0E90016C0E9026277
:102F500006618661FDF7C2FF002840F09C804FF4B7
:102F60008050069040F28800C2F2000006A9FEF7E9
:102F70009DF8002840F08F800020CDE9000040F24D
:102F80008800C2F200006946FDF768FF002840F0A3
:102F9000828040F28800C2F20000FEF74FF898F8F5
:102FA0000100C8B940F21815C2F2000528460021F8
:102FB000FFF732FB41F6656288F80100C0F60002B7
:102FC00028462521FFF79CF940F27112C0F6000255
:102FD00028460421FFF794F948464FF40061002287
:102FE0000026FDF793FB40F2D00008F10501C2F284
:102FF00000000122FEF788FD00F050F803E000BF5A
:1030000088F8026038460025344698F80260074682
:10301000FDF782FBE6B1002C4FF00106F4D0C01B97
:10302000322838462646EFD348464FF40041FDF794
:1030300067FB421E48464FF4004118BF0122FDF7CE
:1030400065FB013500260B2D3846DDD3D8E700BFE0
:10305000002C4FF00106D7D0C01BB0F5FA7F3846E0
:103060002646D1D348464FF40041FDF749FB0128DD
:1030700008D148464FF4004100220026FDF746FBE8
:103080003846C1E748464FF400410122FDF73EFBB8
:1030900000263846B8E7FDF76DF90000B0B540F6F8
:1030A0000004C4F2010420464FF48071FDF728FBB0
:1030B00040F23005C2F2000518B9287840F001004E
:1030C000287020464FF48051FDF71AFB18B9287874
:1030D00040F00200287004F500604FF40041FDF755
:1030E0000FFB18B9287840F00400287004F54064FC
:1030F00020460121FDF704FB18B9287840F00800AC
:10310000287020460221FDF7FBFA2978002804BF29
:1031100041F0100129700801013068810F30A88149
:10312000B0BD02E008C8121F08C1002AFAD17047DA
:103130007047002001E001C1121F002AFBD1704737
:103140000000000000000000010203040607080957
:10315000000000000102030401020000C1C081C19F
:10316000400101C3C003800241C201C6C0068007FE
:1031700041C70005C1C581C4400401CCC00C800D0D
:1031800041CD000FC1CF81CE400E000AC1CA81CB14
:10319000400B01C9C009800841C801D8C018801976
:1031A00041D9001BC1DB81DA401A001EC1DE81DF7C
:1031B000401F01DDC01D801C41DC0014C1D481D53D
:1031C000401501D7C017801641D601D2C012801316
:1031D00041D30011C1D181D0401001F0C030803105
:1031E00041F10033C1F381F240320036C1F681F77C
:1031F000403701F5C035803441F4003CC1FC81FD0D
:10320000403D01FFC03F803E41FE01FAC03A803B95
:1032100041FB0039C1F981F840380028C1E881E953
:10322000402901EBC02B802A41EA01EEC02E802FFD
:1032300041EF002DC1ED81EC402C01E4C02480253C
:1032400041E50027C1E781E640260022C1E281E393
:10325000402301E1C021802041E001A0C0608061E5
:1032600041A10063C1A381A240620066C1A681A7FB
:10327000406701A5C065806441A4006CC1AC81AD0C
:10328000406D01AFC06F806E41AE01AAC06A806B15
:1032900041AB0069C1A981A840680078C1B881B973
:1032A000407901BBC07B807A41BA01BEC07E807F7D
:1032B00041BF007DC1BD81BC407C01B4C07480753C
:1032C00041B50077C1B781B640760072C1B281B313
:1032D000407301B1C071807041B00050C1908191C4
:1032E00040510193C053805241920196C05680577D
:1032F00041970055C19581944054019CC05C805D0C
:10330000419D005FC19F819E405E005AC19A819B92
:10331000405B0199C059805841980188C048804954
:103320004189004BC18B818A404A004EC18E818FFA
:10333000404F018DC04D804C418C0044C18481853B
:1033400040450187C047804641860182C042804394
:1033500041830041C181818040400203040506078A
:1033600008090A0B0C0D0E0F101000009033000816
:10337000000000203000000022310008C0330008A7
:1033800030000020E00B0000323100080000000097
:10339000FFFFFFFFFFFFFFFFFFFFFFFFFFFFFFFF3D
:1033A000FFFFFFFFFFFFFFFFFFFFFFFFFFFFFFFF2D
:1033B00001000000100000000024F40000000000E4
:04000005080000ED02
:00000001FF
