:020000040800F2
:10000000E80C0020C900000851110008110F000879
:1000100000000000000000000000000000000000E0
:100020000000000000000000000000005511000862
:1000300000000000000000005311000859110008E2
:10004000DB00000800000000DB000008DB00000807
:10005000DB000008DB000008DB000008DB00000814
:1000600000000000DB000008DB000008DB000008E7
:10007000DB000008DB000008DB00000800000000D7
:10008000DB000008DB00000800000000DB000008C7
:10009000DB000008DB000008DB000008DB000008D4
:1000A000DB000008DB000008DB000008BD190008C9
:1000B000CD1900080348854600F014F800480047B1
:1000C000F91C0008E80C0020044880470448004759
:1000D000FEE7FEE7FEE7FEE7FEE7FEE7B1110008F8
:1000E000B5000008064C0125064E05E0E36807CC84
:1000F0002B430C3C98471034B442F7D3FFF7DEFF94
:10010000582C0008782C000870B50446002903D04C
:1001100000202022012310E0002801D00020C0434D
:10012000C046C0460DE02546D5408D4205D30D465C
:100130009540641B1D46954040191546521E002DE2
:10014000F1DC214670BDD2B201E00270401C491EB4
:10015000FBD270470022F6E710B513460A46044664
:100160001946FFF7F0FF204610BD0000F0B585B03E
:100170000C4605464868417800780202521840D083
:10018000BD4B5B7A002B3CD09E003746FD37FD23EC
:100190003B409A4235D3FC273E40B24231D802AEB2
:1001A00071703070D01A0C2141439D4A505A561834
:1001B0007788B288B8420AD990420AD2D11B0192FC
:1001C000C21B64205043FFF79FFF019A02E000200A
:1001D00000E0642002A988704A72CF710B20208150
:1001E0006160100A0872380A8871B079C870F079B5
:1001F0000871307A4871707A88722846214601F079
:1002000095F8012005B0F0BDFEB50C460190496897
:100210004878994A537A09780A0212180CD0002BB0
:100220000AD09F003E46FD36FD253540AA4203D345
:10023000FC252F40BA420CD9002B1ED02748824201
:100240001BD10024042C18D0E0B202F07DFB641C0A
:10025000F8E7821B02AE70703170D0B202F074FB0E
:10026000032121816660002801D0152000E00620CE
:10027000B0700198214601F059F80120FEBDC0463A
:10028000FEB501904A68537810780402E5187A4F59
:100290007E7A0DD0002E0BD0B4002746FD37FD220C
:1002A0003A40754F954203D3FC221440A54205D92C
:1002B000002E10D0094885420BD00CE002AA06247B
:1002C000947053701070032008814A60019801F007
:1002D0002DF8012078700120FEBDC046AA5500000F
:1002E000F0B587B04A68537814782402E4184AD0ED
:1002F000614D6D7A002D46D0AE003546FD35FD27A7
:100300002F40BC423FD3FC273E40B4423BD85B1B4E
:10031000DBB20C245C43424B1B1994789C71D4785B
:100320001C72547915792D022C195C80D479957939
:1003300001269E722D022C199C8093780393D3780A
:1003400002931378009356789779D4791379527978
:10035000019004A806250572486009200881100252
:10036000C0182202D2191204101805903002009A07
:100370008018029A1202039BD218120410180490DB
:10038000019800F0D3FF012007B0F0BDFEB50C4688
:1003900005464E6870783178090209183DD0364A12
:1003A000527A002A39D093001A46FD32FD271740B1
:1003B000B94232D3FC273B4099422ED8801AC0B2B2
:1003C0000C21414316484718B078002804D064280F
:1003D00004D17D20C0000CE000200AE0BA88019220
:1003E0007988891A401E48436221FFF78DFE0199E2
:1003F000081838800120B87230787178B27802AB72
:100400000626DE7063609A700422228109020818B1
:1004100018802846214600F089FF0120FEBDC04615
:1004200060000020EFF3108072B600F019F910B5EB
:10043000014620314A78022A10D1026813680E243E
:10044000A343136013680124A3431360C26B006CC1
:100450002346834053604C70002002E004228263F4
:10046000012000220A7010BD401CD9498A6A8B6A9B
:100470009B1A8342FBD3704708000020F0B58BB075
:1004800004905F4A904201D0052000E003200090D4
:1004900000273C463A4605910B681846D04000D1EB
:1004A000ACE001200546099295402B4000D1A0E028
:1004B00001930290089403242046B840C3434E6839
:1004C00032462240501E012806970793039614D8FF
:1004D000049FB8681840CC6806998C400443BC60FF
:1004E000F006C00F099988407C68AC433D46069FE2
:1004F00004436C60029B019E07E0032A049D029B5B
:10050000019E02D12246039C1EE0E868079908403C
:1005100005998C68BC400443EC60022A039C13D10B
:100520001C20089908400F2282400999CC08A40099
:100530002C19256A954305990A6982402A43049D2E
:1005400022624C6803222240BA402868079908407A
:1005500010432860A003800F0599089C49D02A4ABF
:10056000106818431060106818400A900C2222404E
:100570000F2090400324099DA5430A9C234FEC596A
:100580008443ED190920C006049F874209D0204802
:10059000874207D01F488742009B069F03D1022352
:1005A00001E00023069F934023432B601548806899
:1005B0004A68D30201D5304300E0B043089C114B98
:1005C0009860D868930201D5304300E0B0430D4BEA
:1005D000D8605868930301D5304300E0B043094B1D
:1005E00058601868D20301D5304300E0B043054A93
:1005F0001060BF1C241D099A521C4DE70BB0F0BDC2
:10060000000C00480004014018100240080001409E
:10061000000400480008004810B5174840687D21D4
:10062000C900FFF771FD411E080E11D109480A4AA1
:1006300051600A490B6803400324A4071B190B608F
:1006400000239360072313600A68024010190860B2
:1006500010BDC046FFFFFF0010E000E020ED00E00D
:1006600001F0BAF904484068044909684905490F8E
:1006700003A2515CC84070470000002004100240F3
:10068000000000000102030410B50D490A680C23A4
:1006900013400C48082B08D193021B0F0AA4E45CFA
:1006A000896AD20303D4104807E0044606E00F220B
:1006B000114009A2515CFFF727FD4443204610BDBD
:1006C0000410024000127A0002030405060708091C
:1006D0000A0B0C0D0E0F101001020304050607088B
:1006E000090A0B0C0D0E0F1000093D00F8B5044669
:1006F00001680120086202220A6204220A621026AE
:100700000E6208250D62EFF3108180F31088092234
:10071000520123681F6897431F6081F31088EFF32D
:10072000108180F31088226893688343936081F37B
:100730001088216E012909D1EFF3108180F3108810
:1007400022681368B343136081F31088274680370B
:100750002168896849061AD5EFF3108180F3108863
:100760002068826840239A43826081F31088606F1A
:1007700000280CD000214163FFF759FE002806D065
:10078000606F806B202802D17E6020680CE02046DC
:100790005A300021018020680F22026282692A43B8
:1007A000826120223A6021660949E54A90420AD0D6
:1007B000E24A90420BD100200870C8620863486387
:1007C00088630C3100E00B31204600F0C1F9F8BD20
:1007D00008000020F0B585B005460068C2690168D0
:1007E0002B465833049387680126F3021C460F34C6
:1007F000224268D0A74C0C4037403C1967D0029584
:10080000D40706D0CC0504D50662049DEC6A3443B7
:10081000EC6203910221144601910C40654265414E
:100820007C427C412C4306D101990162049CE16A1F
:1008300004250D43E5627C427C415507354600D5D1
:100840002546002D039907D104240462049DEC6A17
:1008500001990C430399EC621407029D0DD57C1E8F
:10086000A7418C0600D43E46012E06D1082404621E
:10087000049EF56A2543F562029D1A42049E06D045
:100880004C0104D50362F36A20241C43F462F36A2A
:10089000002B00D1FCE0920607D5890605D5A96E8C
:1008A000002902D0284688472868F16A28220A4091
:1008B00080684024204080182DD12846FFF716FF7D
:1008C0000020F062E4E0930601D58B0651D42B6E34
:1008D000012B03D1D30601D5CB0651D4100601D587
:1008E000080616D4500600D4D2E0480600D4CFE063
:1008F000EFF31080012181F3108829680A684023F2
:100900009A430A6080F310880020E8662020E86798
:10091000BEE0E96E2EE0284600F09DFE2868806863
:10092000400666D5EFF31080012181F310882A6814
:100930009368A343936080F31088686F002858D0B1
:1009400002462032544B43635378022B00D09BE085
:1009500003681C680E25AC431C601C688C431C603B
:10096000C36B046C0D46A5405D600023137051708D
:100970008CE0A96E002900D18AE02846884787E0EC
:10098000102101628068400637D4049F78883A8835
:100990007B88002B00D17BE0824200D178E0EFF32E
:1009A0001082012080F3108809235B012C682E46F9
:1009B00025689D43256082F31088EFF3108280F351
:1009C000108833689C6884439C6082F310882022DE
:1009D000BA620022B2663266EFF3108280F31088AA
:1009E000306803688B43036082F3108802207066CE
:1009F0004EE02846FFF77AFE4AE0686F02685268C8
:100A000093B2002B049F43D03C88A34240D27A800B
:100A10008069202834D0EFF31082012080F3108801
:100A20001E4B20332C682E4625681D40256082F31E
:100A30001088EFF3108280F3108833689C68844339
:100A40009C6082F31088EFF3108280F31088336883
:100A50009C684025AC4335469C6082F31088202278
:100A6000BA6200223266EFF3108280F31088306899
:100A700003688B43036082F31088706FFFF7D7FC25
:100A800002206866788803E00421816300F0D8FDC5
:100A900005B0F0BD2001000441160008DFFEFFFF95
:100AA00070B586B0E849884218D0E849884243D1F9
:100AB00001208103234A53680B43536053680B4062
:100AC00001930199400411680143116011680140CC
:100AD000019101980B2040021B2412E001204004E8
:100AE00018498A6802438A608A6802400192019A22
:100AF0000A6802430A6009680140019101981C24B8
:100B00000C200021039102210291019001250595FD
:100B1000032604960920C00601A9FFF7AFFCA00731
:100B2000C00EFF21814008482018B04302688A4364
:100B30000260A5400548056006B070BD0044004055
:100B4000003801401410024000E400E000E100E041
:100B5000FEB5034658339A6A202A6DD100296BD01E
:100B6000012217038568BD4204D10569002D01D11A
:100B7000CD0761D10025056606687668360210D576
:100B8000EFF31084029482F31088940601940468B1
:100B900026680097019F3E43009F2660029C84F3D5
:100BA00010885A801A80416585668168002906D0C0
:100BB000B94209D10169002908D1D44907E0016986
:100BC000002903D07F2102E09D8001E0FF21998070
:100BD000DD6222219962EFF3108182F310880368AD
:100BE0009C6814439C6081F3108801698368BB4250
:100BF00004D1002913D01149816603E00F4B8366AD
:100C000000290ED0EFF3108182F3108809225201DF
:100C1000006803681343036081F31088FEBD084930
:100C20008166EFF3108182F3108800680268202348
:100C30001343036081F31088FEBDC046711700089E
:100C4000B1160008FEB5044600687F4988421ED0F0
:100C50007E49884232D17E4EB27AEB49C87AB38956
:100C6000322B2CD3002A01D00022B2720022B28192
:100C70000B31012809D17A480022325477487B4B46
:100C80003352744832520320B0720D4612E0DE48EF
:100C900001784218037B2C255355491C01700546E9
:100CA0000C35C9B2102905D300210170C16201635E
:100CB0004163816320462946FFF74AFFFEBD0027B6
:100CC000B7810D460B35062AF4D8C0467A4412790E
:100CD000520097440304204058737C00C8E75D49E4
:100CE000725A521C029272525C49715ACBB2434002
:100CF0005B005C4AD25A090A5140584AB152318AC3
:100D0000090208183082029880B20228D2D15148D4
:100D10003752042096E04F49725A531C73524E4981
:100D2000725A12021218725298B20228C2D14B485B
:100D3000315A92B2914262D1328A002A5DD0375242
:100D4000444837520520B07247488242B2D34448E3
:100D500001213154AEE73F49725A0292531C73523B
:100D60003E49715ACBB243405B003E4AD25A090A0F
:100D700051403A4AB152B073029800289AD135488E
:100D8000375201205EE08321C90070543149725A04
:100D9000531C73523149715ACBB243405800314B06
:100DA000185A090A41402D483152002A00D081E7E3
:100DB0002948375227483752022043E02849715CBE
:100DC00000291ED02349705A401C705230E021493E
:100DD000725A521C72522049735A1B0218187052D0
:100DE00091B2022900D065E71D49715C002906D146
:100DF0001A49715A80B2814201D100F0F3F9B772F9
:100E000058E71449725A0192531C73521349715A8C
:100E1000CBB243405B000293124B029A9B5A090AE1
:100E200059400E4BF1520199711888740948305A93
:100E3000318A80B2884200D03CE7074837520548E3
:100E400037520620B07235E70044004000380140B8
:100E5000F401002012040000160400001404000035
:100E6000190400003E2A000801040000C1C000006F
:100E7000FEB502930446C06F202845D1002943D017
:100E8000002A41D0A06801231B03984204D12569A0
:100E9000002D01D1CD0737D12746503700257D637E
:100EA0002126E6673A80C14EB66A01967A8098425A
:100EB00002D12069002801D00E4601E000260D462F
:100EC0007888002818D080212046019A029B00F0E3
:100ED00043FD002816D12068002E03D0317801850B
:100EE000761C05E02988094A11400185AD1C0026C1
:100EF0007888401E7880E3E740212046019A029BD3
:100F000000F02AFD2020E067FEBDC046FF01000082
:100F1000FEE70000FCB58D4F3B689A69D20602D40B
:100F20000024214639E01022DA61002401259F4E79
:100F30002F469A69920628D4FA0726D0B26A521A26
:100F400082422F46F5D901945A6842277F4CE45DCE
:100F50009F693F040DD500940127BF033A40019CCF
:100F600008D1009A202A05D0596839435960B16ADE
:100F700000E0019C9A699206DAD4B26A521A1A2ADF
:100F8000F8D3202214430027D3E7F80701D020200C
:100F9000D8610420044301216C4F01269869C205E1
:100FA00003D53102D961344331467502420505D477
:100FB000284209D100290AD10020FCBDB102D96123
:100FC00008210C43284202D0DD61022004439869C5
:100FD000800701D5002098629869C00703D19869FD
:100FE0000121014399615868084901405960786CB2
:100FF0002043786441202021395440200021395475
:10100000422039540120FCBD0800002000E800FE09
:10101000B0B5D30F9B02074C5C404C4B1B685D681E
:101020002540000408431043034901402943A031EF
:101030005960B0BD009C00FC5FFFFF7FFEB50293CE
:1010400017460646414B0190029D18688069304062
:10105000801B424242418A4225D10C461E463846F8
:101060002946FFF757FF0146012000291AD14F49B1
:10107000896A491BB94233462146019EE5D91A685F
:1010800092693240941B624262418A42DDD1596CBE
:1010900020221143596441215A54402100225A54BC
:1010A00042215A54FEBD0020FEBDC046F8B504469C
:1010B0007D20C500254E3D4F3068806980061BD4D9
:1010C00028462146FFF726FF01460120002912D1BC
:1010D000B96A091BA942EFD9316889698906EBD43D
:1010E000716C20221143716441217254402100220D
:1010F000725442217254F8BD0020F8BDF8B5044680
:101100007D20C500114EF34F3068806980071BD4E5
:1011100028462146FFF7FEFE01460120002912D194
:10112000B96A091BA942EFD9316889698907EBD4EB
:10113000716C2022114371644121725440210022BC
:10114000725442217254F8BD0020F8BD9000002076
:10115000FEE7704770470000F8B5DE48816A491C19
:101160008162807B01281FD16B4DA889312801D86D
:10117000401CA881694EA85D9521C9006C18002704
:10118000874211D2616800290BD02189002908D03B
:10119000491E2181090404D1F8B2214600F02AFC3D
:1011A000A85D14347F1CEBE7F8BDC04608000020A2
:1011B00070470000B0B5C722D300574AD4180023A7
:1011C000142B0ED06568002D02D008345B1CF7E7A5
:1011D000207061605248145CD9B28C4201D8491C1D
:1011E0001154B0BDF0B589B004AD14212846FEF706
:1011F000B1FF494FB87B28708320C000385CA870CD
:10120000388A28813846123005904448385C0026D8
:101210003546854225D2BC1943496258002A1DD063
:101220009521C900631804A9097803931B788B42A0
:1012300014D102954B200001019025186868A96817
:101240000790089104A9384690470799089A696061
:10125000AA60002824D13148385C029D14366D1CE8
:10126000D7E70026089607962D48395CC720C000AE
:101270003D463F18C8B286421AD27A68002A0CD07E
:1012800004A880783B78834207D104A92C462846DD
:1012900090472349695C002820D10837761CE9E78C
:1012A000019903282DD0022833D16888605230E09C
:1012B0001C48295CDB20C7000026C8B2864228D221
:1012C000EA59002A07D02C4604A928469047154918
:1012D000695C00280BD13F1D761CEEE7032818D16E
:1012E00000207860481E864213D10D4907E003288C
:1012F0000FD10020E851481E86420AD1094968549E
:1013000007E000206860A8600298C0B2039900F06E
:1013100071FB09B0F0BDC046F4010020EC060000EE
:10132000ED060000EE060000AC040000F0B585B04C
:1013300001224A70514BC518AB7A002B00D098E0BF
:101340004D4BC418AA7204910B78637000942270FC
:101350004B4C00190390C1245C40E3B25B00494848
:10136000C45AC02363401646D4431F0A002C10D031
:101370000398021904980089F1B2C900C84090701E
:101380005840C0B240003F490B5A7B40641C761E57
:10139000EBE7049CA078009A1071D9B21346414043
:1013A00048003849085A47409771000A5071072190
:1013B000296000222A81208968606768002801D09E
:1013C000002F56D00497002839D004468020401AB8
:1013D0000394A04200D303980292BA185B1881B21A
:1013E0000191002913D014781C702F897C40E4B23D
:1013F00064002E4605462348045B284635463F0ACE
:1014000067403781049F491E521C5B1CE9E729682D
:10141000019A89182960029A8218039B181A802958
:10142000009BD0D1802107461846144600F02CF8C6
:101430003846049F2246009B00212960C3E7686864
:10144000002811D008467F38012805D8184600F03A
:101450001BF8009B00212960687A58545818297A93
:1014600041702868811C2960184600F00DF80020A2
:10147000A87205B0F0BDC0461A0400009C0400002C
:101480001C0400003E2A0008BCB50D4604460E4868
:1014900040680E49FEF738FE7D2109014143019164
:1014A0000198411E0191002801D000BFF8E7AAB2BF
:1014B000074D2D2328462146FFF7DAFC5E490B3104
:1014C0002846FFF745FBBCBD00000020002D310180
:1014D000E400002008000020B0B5416A0A0707D5E3
:1014E0000122D20303685C689443426B22435A6032
:1014F000CA0707D00122520403685C689443826AD9
:1015000022435A608A0707D50122120403685C68E7
:101510009443C26A22435A604A0707D501229204C3
:1015200003685C689443026B22435A60CA0607D57D
:101530000122120303689C689443826B22439A60E1
:101540008A0607D50122520303689C689443C26B44
:1015500022439A604A0610D5012213050268546896
:101560009C43056C2C4354609D4206D103235B05CC
:1015700054689C43436C23435360090607D50121FB
:10158000C904026853688B43806C18435060B0BD37
:10159000F8B50446064678360027F7602648826A82
:1015A0002068016809071AD5012000904105234BE6
:1015B0002046154600F0D0F900280ED0EFF3108039
:1015C000009981F3108821680A6880239A430A6091
:1015D00080F310882020E06724E020682A46006815
:1015E000400721D50125A905144B204600F0B4F988
:1015F000002819D0EFF3108085F3108809214901E4
:10160000226813688B43136080F31088EFF3108017
:1016100085F3108821688A68AA438A6080F310885D
:101620002020B060032005E02020E067B06027663E
:10163000676638463770F8BD08000020FFFFFF01DD
:1016400080B5406A0146523100220A81522142523D
:10165000FFF74CF880BDB0B5EFF31082012181F3A4
:10166000108809235B01046825689D43256082F387
:101670001088EFF3108281F3108803689C688C4314
:101680009C6082F31088026E012A0AD1EFF3108267
:1016900081F3108801680B681024A3430B6082F368
:1016A0001088802120224250002181660166B0BD51
:1016B00070B5802142580168222A0FD102465A3261
:1016C0005388898C1940436D19801188491E1180F7
:1016D000991C41651188002905D070BD88690822D0
:1016E00002438A6170BD02468032EFF3108301210C
:1016F00081F310880924640105682E68A6432E60D2
:1017000083F31088EFF3108381F310880468A568D1
:101710008D43A56083F31088202313600022426666
:10172000826603685B681B020AD5EFF3108381F3BE
:1017300010888C0605682E68A6432E6083F31088F7
:10174000036E012B11D10266EFF3108281F3108832
:1017500003681C6810218C431C6082F310880068A9
:10176000C269D206B9D5016270BDFFF76BFA70BDD0
:1017700070B5802142580168222A10D102465A329F
:101780005388898C1940436D19701188491E118046
:10179000416D491C41651188002905D070BD8869DB
:1017A000082202438A6170BD02468032EFF3108343
:1017B000012181F310880924640105682E68A6437D
:1017C0002E6083F31088EFF3108381F31088046890
:1017D000A5688D43A56083F3108820231360002241
:1017E0004266826603685B681B020AD5EFF31083CA
:1017F00081F310888C0605682E68A6432E6083F35B
:101800001088036E012B11D10266EFF3108281F371
:10181000108803681C6810218C431C6082F31088B8
:101820000068C269D206B9D5016270BDFFF70AFA35
:1018300070BD0000B0B50446006801683C4A0A402B
:10184000A16823690B4365691D431543E1690D4395
:1018500005600322120343689343E2681A4342601F
:10186000A269236A13430B221202856895431D4324
:101870008560304A904209D02F4A904208D12F48C3
:1018800000688007000F2EA2135802E0002300E03A
:1018900010230125EA032E4891420DD1082B42D88E
:1018A0007B441B795B009F44043E1B3E153E3E3E3D
:1018B0001A00FEF7D7FE0FE0082B34D87B441B79C3
:1018C0005B009F44043023301D3030302200FEF78F
:1018D000C9FE17E0FEF7D8FE002801D122E010462D
:1018E000400061684A081018FEF70EFC0246103AE4
:1018F00018498A4217D201400007400F08430FE001
:10190000FEF7C2FE002801D10CE0104661684A08CB
:101910001018FEF7F9FB014610390E4A914202D227
:101920002168C86000250020A066E0662846B0BD9A
:10193000F369FFFF004400400038014030100240CE
:101940000000000004000000080000000200000089
:1019500000127A00F0FF0000FEB506680124019431
:10196000E702044678340294DA4DF4690C408C4264
:1019700013D0AC6AA41A9C4211D834686407F4D519
:101980004029F2D08029F0D0F469240709D4F46901
:101990003C42EAD00324202506E000240BE0032487
:1019A00009E008273D46019C3762FFF754FE0020FE
:1019B00002990870CD602046FEBDC04680B5024841
:1019C000FEF708FF80BDC046E400002080B5504807
:1019D000FEF700FF80BDC046BFF34F8F03480449A8
:1019E0000160BFF34F8F00BFFDE7C0460CED00E084
:1019F0000400FA05B0B586B04A68002A16D00D4634
:101A00000446C868096903460B4306D00591049053
:101A100000200290064801A9904700206860054810
:101A200003490A5C521EA24200D10A5406B0B0BD5E
:101A3000F4010020EC060000A64800214172104A83
:101A40001368DB0501D40121417213689B0501D4A1
:101A5000891C417213685B0501D4091D417213682A
:101A60001B0501D4083141721368DB0401D4103125
:101A700041721268920401D4203141727047C0460D
:101A800010040048F0B585B004A905224A70451C31
:101A90000D700C21414397484018C11D0091093039
:101AA00001900A27012002908A4C0392002626709A
:101AB000E66226636663A66304A9022264231448CF
:101AC000FFF7D6F938061AD00220FEF7CDFC2078B1
:101AD000082808D12C20205C854204D120462C30D7
:101AE0004178052901D07F1EECE74179009A1170F9
:101AF000C07901990870039602963746E2E7039988
:101B00004A1E00270906D0D10298C0B205B0F0BD28
:101B10006C010020F0B58BB0034609A80026868032
:101B2000099641226A4DA85C20283ED14024285DB8
:101B300001283AD00121295566481546876AC8030D
:101B400019220893069107973B462F46604DFFF7F1
:101B500075FA089B002828D12220E85542200390DE
:101B60002C546E640620688509A868626E63286834
:101B70004168594A1140594A891841600798FFF74E
:101B8000BDFA00280FD10898C0002968C0B2886249
:101B90007D20C2004020002101900592079BFFF7A5
:101BA0004DFA002813D02E55089B0C20584351495C
:101BB00008180521817147494A7B521C4A735A21F2
:101BC000017286807D21C90041800BB0F0BD069A6C
:101BD0005106688D000A029108D02A85286841685C
:101BE0003D4A11403F4A0A43426005E0688D28851E
:101BF000C0B23B4AFFF70CFA079C059A042000216B
:101C000004912346FFF71AFA0028089BCDD1686A91
:101C10002968496A0170688D401E6885686A401CA1
:101C20006862288D401E2885698D0029059A1FD07D
:101C300000041DD1802000212346FFF7FFF9002872
:101C4000089BB2D1688D000A09D0069828852868BB
:101C50004168254A1140254A8918416006E0688D8F
:101C60002885C0B200220299FFF7D2F9079C059A95
:101C7000688D0028C2D12046FFF718FA0028089B7B
:101C800093D128681C462021C1614268184B13403B
:101C90004360E9550198049E2E5403982E540C205D
:101CA000604314490818099981710699817209A93C
:101CB0008A784B781B029A184280064A56734A79F2
:101CC0000272CA7812020979511881807DE7C046F4
:101CD0009000002008000020009800FCA0200100D7
:101CE00000240080A0240101009C00FCA000010150
:101CF00000E800FE6000002000B595B0FC4A1068C6
:101D000010210D9108431060FEF786FCFD4CA06980
:101D100001210843A061A0690840109010980E911D
:101D20000807E1690143E161E16901401091109800
:101D300060680007800F07D060680C210140082907
:101D40005BD16068C00358D42068206880210B9163
:101D500008437827B8432060606A0E9908436062A0
:101D6000E94DA86A616A890704D4A96A091A022997
:101D7000F8D9E4E260680C26304008284BD160684E
:101D8000E16AC20300D5DAE20F22114000D0D6E2A8
:101D9000910408400521C904884200D0CFE2D84808
:101DA0000068C00708D1D64A1068012101431160BC
:101DB0001068C00700D1C2E2072000026168014339
:101DC00061606168F022914361602168890100D4FB
:101DD000B5E20E9B590601916168022206921143F9
:101DE00099436160A96AC94B62683240082A39D0B8
:101DF000AA6A521A9A42F7D9A1E220680E990843BA
:101E00002060C148816A226892079ED4826A521A71
:101E1000022AF8D993E20E9A1106206888432060BE
:101E20005006AA6A2368034204D0AB6A9B1A022BAD
:101E3000F8D984E2E26A0F239A43E2623D22120457
:101E4000636893430522D2049A18626022680A43A9
:101E50002260A96A22680242A1D1AA6A521A022A01
:101E6000F8D96CE200970596A54909686168814335
:101E70006160FEF709FC61680906090FA4A2515CC4
:101E8000C840A7494860FEF7C7FB206B03210891B3
:101E900088432063206B0D998843206300271497A3
:101EA00013970E9E7004616901436161616901408D
:101EB0000F910F98B10460690843606160690991EE
:101EC00008400F900F98974A974D95621296119778
:101ED000B0030C90F938109010A90A911046FEF743
:101EE000CDFA139710A8E0C0874D8E480A99FEF7E7
:101EF000C5FA6E65AF64EF6429463C310A970F71ED
:101F00008A4E3246083AEA63497D00290AD15021B7
:101F100000226A5461694022114361616169114084
:101F2000109110995121069A6A540A98C243B260DE
:101F3000326860239A43326032680B9B9A43326066
:101F40000E9F6F547A4E7B497B4A32600B917160D1
:101F5000B060F760304610301421FEF7FBF8764A87
:101F6000334641200490305C0028394627D1402078
:101F7000002119546069099A10436061606910403A
:101F80000F9003201390129112201190C0201090F6
:101F90000F980126149610A96248FEF76FFA644B59
:101FA0007005594DE1690143E161E16901400F911B
:101FB0000F981A6858680B9098680A90D96824207E
:101FC000049C07901855106817460E9A9043386085
:101FD0000F2632060B9890433861BA685748024082
:101FE000BA6001290E9606D138460121C9030A9A22
:101FF0000A43BA600CE0212292020A9E1643384638
:10200000BE60022904D10121C9027A680A4303E0B3
:102010000121C9027A688A437A603846474E796856
:10202000474A0A437A60F9683140F96019695A6988
:102030000A43996909021143F960D9691A6A0A4386
:102040003A60396801220A921143396000225A64C9
:102050002021099119551A63422102915A54195DA0
:10206000202900D06BE14026995D012900D166E16D
:102070000798185539680B920A9881433960010313
:102080003A688A433A60396839603968014339608F
:10209000099A1A550B999955195D202900D04EE1DE
:1020A000079919553968814339600E9800023968DB
:1020B0008143396038680A99084338601A55039695
:1020C0000B9F9F551F4B20481860204818600898A8
:1020D00058601F489860A96A009EDA68520709D0C4
:1020E000AA6A521A282AF8D3DA685207F5D026E1EC
:1020F00000200240196981422ED1164818602CE058
:102100000020024000100240080000208813000058
:102110000000000000000000010203040607080997
:10212000000000200004004838C0000008300240D1
:10213000900000200A02100000540040FF7FFFFFC3
:102140000080000200300040CCCC0000555500005B
:10215000FF0F0000AAAA00001861F64CF64827629B
:102160006762E121490283C4276067600599A16025
:10217000E76027610C3CE16F002911D10021A155D6
:10218000FEF78EFC0798E067206801680122914302
:102190000160606A002809D0E648FFF79DF905E074
:1021A0000799E16701680A9A91430160E14C204672
:1021B000FFF740FB012800D1C1E0206881680C9A3C
:1021C000114381608168DD4A114081600168DC4A09
:1021D0000A40026001680A9A114301602046FFF735
:1021E000D7F9002800D0AAE0D64CD748276267620A
:1021F0004B21C90183C4276067600599A160E7602E
:1022000027610C3CE16F002913D10021A155FEF795
:1022100047FC0798E067206801680122914301604C
:10222000606A00280A9C099E0AD0C648FFF754F944
:1022300006E00799E16701680A9CA1430160099ED5
:10224000C04F3846FFF7F6FA012878D0E002396827
:102250004A6882434A6088680822079290438860EF
:102260000868204308603846FFF792F9002866D1D5
:1022700029460C31B348FEF76BFCA87B002816D129
:10228000B2480830DD21C900FDF764FFAC730920B6
:10229000AF49B04CA0470820AF49A0470B20AF4939
:1022A000A0470A20AE49A0470C20AE49A0472946C6
:1022B0000B31A048FEF74CFCAB4D0D9FAF61AE61FA
:1022C00064200E90A9498847079CAC610C9EAE61C2
:1022D000C820A6498847AC62AF620998A862AE627E
:1022E0000E98A2498847A249A24801600B99042987
:1022F00027D00B910024A04EA048082C08D0075BE3
:1023000020CEAF613220FEF7AFF8AF62A41CF3E736
:10231000801D994C0C34089F002F0CD4256806882A
:10232000AE610E903220FEF79FF80E98AE62241F29
:10233000801E7F1EF0E70B99491C8E48D7E7FEF7F9
:1023400071F88B4901600320874D079E099F002883
:1023500016D00E90AE610D98A861AF610C98A8617F
:1023600064242046FEF780F8AE620D98A862AF6242
:102370000C98A8622046FEF777F80E98401EE6E714
:102380007D20C0000B9001200E90C00308907C4E71
:102390007078012800D19CE2B06A0D907248016902
:1023A00005690269B07989070C9228D4002875491B
:1023B00030D07079002846D0714840690D99081ACC
:1023C000714988423FD900266D48467100F0D0FA25
:1023D000C820FEF749F86D4F0937042E33D0F4B208
:1023E000204600F0B1FA2046FFF74CFB387802286F
:1023F00002D363480E9941710C37761CEDE7002833
:1024000021D000205E498871C820FEF72DF800F029
:102410007BFA18E00E98F07030710A98B071087865
:10242000401C0870C0B2042801D30020087058482E
:102430000D9908183061716100F066FAFFF7FCFA37
:10244000C820FEF711F804240E9805404C4EF07990
:10245000F178002923D0002D21D100280C9F3AD0FB
:1024600070690D9D281A0B9988423BD9706A854284
:1024700038D044480078059948434449085A0B9994
:1024800088420AD23F4A1078059948433F4B195A6F
:10249000491C1952107800F0AFFA756222E0691EEB
:1024A0008D410540012D0C9F0D9D1ED10020F07126
:1024B0007069281A0B99884209D2324A1078059916
:1024C00048430B99314B1952107800F095FAC82007
:1024D000FDF7CAFF09E00D9D75610A98F071C820EB
:1024E000FDF7C2FF2A48281830612740307AF1787A
:1024F00000294FD0002F4DD1002866D07069281ACE
:102500000B998842F54967D9706A854264D008788A
:102510000C4605994843F84A105A002807D02078FD
:102520004843115A491E1152207800F065FA75622D
:10253000214651E0E400002000380140FF7FFFFF0A
:10254000FFFF00FC6C01002000440040F40100206B
:102550008D030008B51100086D010008E1020008B4
:10256000090200088102000800040048690400080C
:10257000AAAA000000300040402C0008502C00089F
:1025800008000020000000208813000060000020E8
:1025900010270000791E8F410740012FCF491ED11F
:1025A000002030727169691A0B9A914208D2CB4BA4
:1025B0001978059A5143ED4A5052187800F01CFAE8
:1025C000C820FDF751FFC54909E075610A983072CE
:1025D000C820FDF749FFC149C44828183061B46AD2
:1025E0003069844207D9032008700020F0703071F0
:1025F00000F08AF9B9493079002816D0B069201A5C
:1026000080087D2811D30878B44909784900CD4A5B
:10261000515A8000CA4A105842690B4693430A40F7
:102620001104C9188161AD49B461F07800284CD01B
:10263000B078002840D0B06AF169401A3228069C70
:1026400000D2D9E0B06AF061B07A059F39464143C3
:10265000F24D6918897A002900D1BDE000F0CCF96B
:102660000D90B17A10A8032444704A1C027079437B
:102670006918097A8170214600F090F9B27A10A9A0
:10268000069B4B70531C0B707A43AA1892798A7080
:102690000D9A8018C0B20D900846214600F07EF9D0
:1026A0004042C0B2B47A0D99814234D13846604379
:1026B00028180021817233E0FFF7BEF900F058F9C5
:1026C0000A98B0700E98707196E070790028AFD0BB
:1026D000306A201A3228ABD30846D04909314078F5
:1026E0000022974B082A10D00D78022D09D300281C
:1026F00001D0182600E02826924DAD5A1F68BD5122
:10270000BB4E0C311B1D921CECE734620E99484005
:10271000724948708CE73846604328180699417220
:10272000384660432818817910AA11704188917049
:1027300083881371007A5071080A5070180AD0709B
:10274000674A0498105C20280A9D28463ED10398C9
:10275000105C0128284639D003980E991154B76AA5
:10276000192208983B46FEF769FC5D490028284677
:102770002CD12120049A88540298039A0A5438468E
:1027800000274F6406224A8510AA4A624F630B68ED
:1027900059685A4A11405A4A891859600D90FEF7F3
:1027A000ADFC4F4A002828460ED1E0001168C0B2A7
:1027B00088628020002421460B9A0D9BFEF73EFC88
:1027C000474A00280A981BD0039957547073052074
:1027D000FDF74AFEB07A069CFFF754F9B17A00285B
:1027E00004D0059848438D4A10184472481CC1B261
:1027F000032900D90020B0723A483B490160C7E57F
:1028000007940D9D0C97508D000A0AD0FF2010856B
:1028100010684168374A1140354A11434160019CB4
:1028200007E0508D1085C0B20022019C2146FEF7C2
:10283000EFFB2846FEF762FC002848D1284B1868B9
:10284000596A0A788262588D401E5885481C586221
:10285000188D401E1885598D00291FD000041DD1E8
:10286000802000210B9A2B46FEF7E8FB00282ED192
:102870001B4B588D000A09D0FF2018851868416845
:102880001C4A11401A4A1143416007E0588D1885CF
:10289000C0B200222146FEF7BBFB114B588D002829
:1028A000C7D12846FEF702FC00280A980C4A8DD1B1
:1028B0001068099BC3614168124C21404160049833
:1028C000135402980799115408460C9F7CE70A9804
:1028D0007CE700F04DF8FDF7A5FDC04600000020A4
:1028E0009000002000300040AAAA0000102700003D
:1028F000A000FF01009C00FC60000020009800FC8C
:10290000A020010100E800FEF0B544480C49002277
:10291000374B0C4C082A12D0DD78002D02D1457AB5
:10292000012D08D80588002D01D0182500E02825A4
:10293000A65A0F687E51921C091D0C30EAE7F0BDC3
:10294000402C0008502C0008E0B501AA0421517069
:10295000431C13700C2343433048C0188379937091
:10296000007AD070104600F019F88CBD600000208D
:10297000BCB501A8062141705521017002242146F1
:1029800000F00CF80020044DA8470120A84720467D
:10299000A8470320A847BCBD151B0008FEB5019140
:1029A00000900A25012002900527114E0024347062
:1029B000F46234637463B46364230E480099019A2B
:1029C000FEF756FA28060BD00220FDF74DFD2C200D
:1029D000305C6D1E0628F5D1274602942546F1E7A6
:1029E000781E002539060746E0D10298C0B2FEBD28
:1029F000080000206C010020E0B501AA01215170FF
:102A0000411C11700C2141430448405AD070000A07
:102A1000907004211046FFF7C1FF8CBD60000020BC
:102A200002E008C8121F08C1002AFAD17047704797
:102A3000002001E001C1121F002AFBD170470000F5
:102A4000C1C081C1400101C3C003800241C201C6AF
:102A5000C006800741C70005C1C581C4400401CC40
:102A6000C00C800D41CD000FC1CF81CE400E000AB9
:102A7000C1CA81CB400B01C9C009800841C801D837
:102A8000C018801941D9001BC1DB81DA401A001E31
:102A9000C1DE81DF401F01DDC01D801C41DC001450
:102AA000C1D481D5401501D7C017801641D601D2B7
:102AB000C012801341D30011C1D181D0401001F068
:102AC000C030803141F10033C1F381F24032003631
:102AD000C1F681F7403701F5C035803441F4003C40
:102AE000C1FC81FD403D01FFC03F803E41FE01FA37
:102AF000C03A803B41FB0039C1F981F840380028D9
:102B0000C1E881E9402901EBC02B802A41EA01EEAE
:102B1000C02E802F41EF002DC1ED81EC402C01E44F
:102B2000C024802541E50027C1E781E64026002238
:102B3000C1E281E3402301E1C021802041E001A006
:102B4000C060806141A10063C1A381A240620066B0
:102B5000C1A681A7406701A5C065806441A4006C3F
:102B6000C1AC81AD406D01AFC06F806E41AE01AAB6
:102B7000C06A806B41AB0069C1A981A84068007838
:102B8000C1B881B9407901BBC07B807A41BA01BE2E
:102B9000C07E807F41BF007DC1BD81BC407C01B44F
:102BA000C074807541B50077C1B781B640760072B8
:102BB000C1B281B3407301B1C071807041B00050A7
:102BC000C190819140510193C0538052419201962E
:102BD000C056805741970055C19581944054019C3F
:102BE000C05C805D419D005FC19F819E405E005A38
:102BF000C19A819B405B0199C059805841980188D6
:102C0000C04880494189004BC18B818A404A004EAF
:102C1000C18E818F404F018DC04D804C418C00444E
:102C2000C184818540450187C04780464186018235
:102C3000C042804341830041C18181804040000007
:102C40000004004800040048000400480004004854
:102C50000800100020000040782C00080000002030
:102C600008000000202A0008802C0008080000202E
:102C7000E00C0000302A00080301000000127A0076
:04000005080000B53A
:00000001FF
