:020000040800F2
:10000000180D0020C9000008C91E0008051D0008C1
:1000100000000000000000000000000000000000E0
:10002000000000000000000000000000B9200008EF
:100030000000000000000000CD1E0008BD200008E8
:10004000DB00000800000000DB000008DB00000807
:10005000DB000008DB000008DB000008DB00000814
:1000600000000000DB000008DB000008DB000008E7
:10007000DB000008DB000008DB00000800000000D7
:10008000DB000008DB00000800000000DB000008C7
:10009000DB000008DB000008DB000008DB000008D4
:1000A000DB000008DB000008DB000008ED32000880
:1000B000FD3200080348854600F08EF800480047EE
:1000C00015380008180D00200448804704480047F0
:1000D000FEE7FEE7FEE7FEE7FEE7FEE76521000834
:1000E000B500000830B50B4601460020202201244F
:1000F00009E00D46D5409D4205D31D469540491B5C
:100100002546954040191546521E002DF1DC30BDA4
:10011000F0B51FB40646002082B005464024019188
:1001200000901BE0019922460F46304600F020F86F
:10013000049A059B801A994110D31046194622460D
:1001400000F039F8361A8F4101972246012000212C
:10015000009F00F030F838184D4100902046641E92
:100160000028DFDC019B00982946324607B0F0BD2D
:1001700010B5202A04DB0846203AD040002110BDEB
:100180000B46D340D0402024A21A91400843194680
:1001900010BDD2B201E00270401C491EFBD2704774
:1001A0000022F6E710B513460A4604461946FFF743
:1001B000F0FF204610BD10B5202A04DB0146203A8E
:1001C0009140002010BD914020239C1A0346E3403B
:1001D0001943904010BD0000064C0125064E05E075
:1001E000E36807CC2B430C3C98471034B442F7D358
:1001F000FFF764FF2C3F00084C3F0008F3B587B0C1
:100200000C4600200390049005900690002660683C
:100210000078000261684978401887B25B4800782E
:100220008000C01EC0B20290584800788006000EC0
:1002300001900298381AC5B2002F7DD002988742EB
:100240007ADB0198874277DC606801786846017341
:100250006068417868464173606881786846817358
:100260006068C1786846C1736068807801281BD1D6
:100270000C206843464BC01842880C206843C018C5
:1002800081886068C078009003F060FB0C216943AE
:100290003F4A505201210C20684380188172062089
:1002A00069460874052659E060688078022810D1F4
:1002B0006068C1780C206843354A8018817101213B
:1002C0000C20684380188172062069460874052650
:1002D00044E060688078082819D16068C07800021E
:1002E0006168097908430C216943294A89184880C3
:1002F0006068407900026168897908430C2169438C
:100300008918888006206946C874082626E0606837
:100310008078032811D16068C1780C2068431C4A9A
:100320008018017201210C20684380188172062018
:1003300069460874052611E01AE060688078042890
:100340000CD101210C206843114A8018C17206208B
:100350006946C873042600200E490870002E11D08B
:1003600003A8606026812146079802F023FA09E07D
:100370000948874206D160688078042802D10020AD
:1003800004490870012009B0F0BD000003000020FE
:10039000E808002007000020AA55000072B600BF40
:1003A000FEE710B50446002C01D1012010BD607D90
:1003B000002803D12075204600F020F80220607547
:1003C0002079002803D1401E2168086102E02168DD
:1003D000A06808612068806860218843E16808435C
:1003E00021688860206880688021884321690843EB
:1003F00021688860012060750020D7E708B5094AA8
:10040000016891420DD100BF07494969402211435B
:10041000054A51611146496940221140009100BFCF
:1004200000BF08BD003002400010024001462120FC
:10043000405C022808D00420886300BF00222020EE
:10044000425400BF01207047086800680E229043A4
:100450000A68106008680068400840000A68106078
:1004600001200A6C9040CA6B506001222120425446
:1004700000BF00222020425400BF0020E3E770B5F7
:10048000044600252120005D022803D00420A0633B
:1004900001251EE0206800680E218843216808605D
:1004A0002068006840084000216808600120216C35
:1004B0008840E16B486001212120015500BF0021E7
:1004C0002020015500BF606B002802D02046616BE0
:1004D0008847284670BD0146886B704770B5044652
:1004E00000F024F906462546681C002802D005487D
:1004F00000782D1800BF00F019F9801BA842FAD32C
:1005000070BD00005000002078B503460A46002167
:10051000DFE001268E4014683440002C7ED015792F
:10052000AD07AD0F012D04D01579AD07AD0F022D2C
:1005300018D198684E000325B5400646AE433046B4
:100540004E00D568B54028439860586801258D4015
:100550000646AE4330461026556835402D098D407D
:10056000284358601579AD07AD0F032D0BD0D8681F
:100570004E000325B5400646AE4330464E00956812
:10058000B5402843D8601579AD07AD0F022D15D1C0
:10059000CD08AE001D462035A8594D07EE0E0F259B
:1005A000B5400646AE4330464E07F60E1569B540D7
:1005B0002843CD08AD001E462036705118684E0005
:1005C0000325B5400646AE4330461579AD07AD0F5D
:1005D0004E00B54028431860032636045568354060
:1005E000002D75D000BF3E4DAD69012635433C4E10
:1005F000B5613546AD69ED07ED0F009500BF00BF51
:10060000384D8E08B600A8598D072E0F0F25B5401E
:100610000646AE4330460925ED0600E058E0AB4201
:1006200001D100250FE0304DAB4201D101250AE098
:100630002E4DAB4201D1022505E02D4DAB4201D13B
:10064000032500E005258E07360FB5402843254DCC
:100650008E08B600A851274DA8680546A543284630
:100660000126360555683540002D02D00546254344
:100670002846204DA860E8680546A543284601267F
:10068000760555683540002D02D00546254328469D
:10069000184DE86068680546A5432846012676049B
:1006A00055683540002D02D0054625432846114D9A
:1006B000686028680546A543284601263604556823
:1006C0003540002D02D0054625432846094D2860B7
:1006D000491C1568CD40002D00D01AE778BD0000F8
:1006E00000100240080001400004004800080048D3
:1006F000000C004800040140024613690B40002B27
:1007000001D0012000E00020704710B54269134677
:100710000B401B040C4694432343836110BD002A05
:1007200001D0816100E081627047000001480068EB
:10073000704700004800002002464120805C2028CD
:100740002FD100BF4020805C012801D102207047DA
:1007500001234020835400BF242341208354106888
:1007600000684008400013681860106800680123A2
:100770001B039843136818601068006808431368E7
:10078000186010680068012318431368186020235C
:100790004120835400BF00234020835400BF002029
:1007A000D5E70220D3E710B502460B464120805C16
:1007B00020282ED100BF4020805C012801D10220DA
:1007C00010BD01244020845400BF242441208454BF
:1007D00010680068400840001468206010680168D4
:1007E0000F2424020846A043014618020143106862
:1007F00001601068006801242043146820602024F0
:100800004120845400BF00244020845400BF0020B5
:10081000D6E70220D4E7000010B50446002C01D131
:10082000012010BD4120005D002805D1002140209D
:100830000155204600F066F824214120015520682A
:10084000006840084000216808600F2109066068C0
:10085000884321680861206880680121C9038843B2
:1008600021688860E068012806D10121C903A068D9
:1008700008432168886005E021218902A0680843B7
:1008800021688860E068022807D12068406801215B
:10089000C90208432168486006E0206840680121D9
:1008A000C9028843216848602068406814490843A9
:1008B000216848602068C0680121C9038843216815
:1008C000C860616920690843A16909020843216879
:1008D000C860216AE06908432168086020680068F0
:1008E0000121084321680860002060642021412024
:1008F000015500202063002142200155002090E78F
:100900000080000210B586B00446142101A8FFF74C
:1009100047FC1A49206888422DD100BF1848406919
:1009200001218904084316494861084640690121AC
:1009300089040840009000BF00BFC0200190122031
:10094000029000200390032004900120059001A94B
:100950000C48FFF7D9FD00BF0948C06901214905CE
:1009600008430749C8610846C06901214905084094
:10097000009000BF00BF06B010BD00000054004052
:100980000010024000040048034800680349097849
:1009900040180149086070474800002050000020BE
:1009A00010B5064800681021084304490860032078
:1009B00000F006F800F02EF8002010BD00200240E4
:1009C00070B50446104801787D20C000FFF78AFB0F
:1009D000064631460D480068FFF784FB054600F0E7
:1009E00027FD002801D0012070BD042C07D2002271
:1009F0002146501E00F03CF80548046001E001204B
:100A0000F2E70020F0E70000500000205400002032
:100A10004C00002008B500BF0D4880690121084343
:100A20000B49886108468069C007C00F009000BF6D
:100A300000BF00BF0846C069090408430449C861F3
:100A40000846C06909040840009000BF00BF08BD07
:100A5000001002400146002905DBCB06DB0E012217
:100A60009A40024B1A6000BF7047000000E100E0AE
:100A700070B504460D4616462946204602F06CFC29
:100A800070BD0000F8B504460026002501210904C8
:100A90002068084088427AD100274B48C069090382
:100AA000084000280DD100BF4748C06908434649A7
:100AB000C8610846C06909040840009000BF00BF33
:100AC000012742480068FF2101310840002816D163
:100AD0003E48006808433D490860FFF727FE064688
:100AE00006E0FFF723FE801B642801D90320F8BD30
:100AF00036480068FF21013108400028F1D0324813
:100B0000006A0321090208400546002D2DD06068C7
:100B10000840A84229D02C48006A884305462A4844
:100B2000006A012109040843274908620846006A4F
:100B30000121090488432449086208460562E80740
:100B4000C00F002811D0FFF7F1FD064607E0FFF7C0
:100B5000EDFD801B1E49884201D90320C7E71A48D2
:100B6000006A022108400028F1D01748006A0321DA
:100B7000090288436168084313490862012F05D1BF
:100B80000846C069090488430F49C86100BF20783E
:100B9000C007C00F002807D00B48006B80088000FA
:100BA000A1680843084908632021206808402028DC
:100BB00007D10548006B10218843E16808430249CA
:100BC0000863002093E7000000100240007000401E
:100BD0008813000070B504460D46002C01D1012099
:100BE00070BD52480068C007C00FA8420ED24F48DF
:100BF00000684008400028434C49086008460068E7
:100C0000C007C00FA84201D00120E9E702212068F7
:100C10000840022814D1042120680840042807D184
:100C2000434840680721090288434018404948600A
:100C30003F484068F0218843A16808433C49486028
:100C40002078C007C00F00283BD06068012808D179
:100C500037480068012149040840002815D10120C7
:100C6000BEE76068022808D13148006801214906C2
:100C70000840002809D10120B2E72D480068022170
:100C80000840002801D10120AAE7294840688008CF
:100C900080006168084326494860FFF747FD064623
:100CA00007E0FFF743FD801B2249884201D903205A
:100CB00096E71F4840680C21084061688900884217
:100CC000EFD11A480068C007C00FA8420ED91748D4
:100CD000006840084000284314490860084600683E
:100CE000C007C00FA84201D0012079E70421206885
:100CF0000840042808D10E484068072109028843AB
:100D0000E16808430A49486000F032F80849496838
:100D1000F02211400909084A515CC840074908609F
:100D20000320FFF74DFE00205AE70000002002409C
:100D30000010024088130000143F000854000020F7
:100D400001480068704700005400002000B5FFF71C
:100D5000F7FF05494968072212021140090A034AB0
:100D6000515CC84000BD000000100240243F000854
:100D7000F8B50024002500270026002000901D481B
:100D800044680C20204000282DD0042802D00828D8
:100D900028D102E01848009028E00F20800420406D
:100DA000800C16490E5C1348C06A0007000F1449F6
:100DB0000D5C0120000420400121090488420AD171
:100DC0002A4600230C481946FFF7A2F9314602F0E3
:100DD0009DFA074604E00B48314602F097FA0746B1
:100DE000009703E000BF0448009000BF00BF0098D8
:100DF000F8BD00000010024000127A00F43E000826
:100E0000043F000800093D00FEB50446002C01D156
:100E10000120FEBD2078C007C00F002871D0FC481B
:100E200040680C21084004280BD0F948406808406D
:100E3000082812D1F6484068012109040840884278
:100E40000BD1F348006801214904084000286BD009
:100E50006068002868D10120DBE700BF60680128D6
:100E600007D1EB480068012109040843E8490860FC
:100E700031E0606800280ED1E548006801210904CE
:100E80008843E349086008460068012189048843D3
:100E9000DF4908601FE0606805280ED1DC48006863
:100EA000012189040843DA490860084600680121E5
:100EB00009040843D64908600DE0D54800680121BF
:100EC00009048843D2490860084600680121890462
:100ED0008843CF49086000BF6068002812D0FFF740
:100EE00025FC054606E0FFF721FC401B642801D9DC
:100EF00003208EE7C6480068012149040840002805
:100F0000F1D011E0FFF712FC054606E0FFF70EFCFA
:100F1000401B642801D903207BE7BD4800680121FC
:100F2000490408400028F1D1022120680840022825
:100F300061D1B74840680C21084000280BD0B44864
:100F40004068084008281BD1B148406801210904C5
:100F50000840002814D1AE4800680221084000284B
:100F600004D0E068012801D0012052E7A8480068B9
:100F7000F82188432169C9000843A54908603AE07F
:100F8000E068002820D0A248006801210843A04959
:100F90000860FFF7CBFB054606E0FFF7C7FB401BE9
:100FA000022801D9032034E799480068022108404B
:100FB0000028F2D096480068F82188432169C900CA
:100FC00008439349086016E09148006840084000D3
:100FD0008F490860FFF7AAFB054606E0FFF7A6FB6E
:100FE000401B022801D9032013E789480068022129
:100FF00008400028F2D1082120680840082831D193
:10100000E069002817D08248406A012108438049DE
:101010004862FFF78BFB054606E0FFF787FB401BA6
:10102000022801D90320F4E67948406A02210840E9
:101030000028F2D016E07648406A40084000744923
:101040004862FFF773FB054606E0FFF76FFB401BA6
:10105000022801D90320DCE66D48406A02210840DD
:101060000028F2D1042120680840042873D1002010
:1010700001906748C0698906084000280ED100BF6A
:101080006348C06908436249C8610846C0690904E9
:101090000840009000BF00BF012001905D4800683B
:1010A000FF2101310840002816D15A480068084342
:1010B00058490860FFF73AFB054606E0FFF736FBA4
:1010C000401B642801D90320A3E652480068FF2191
:1010D000013108400028F1D000BFA068012806D1E6
:1010E0004B48006A01210843494908622BE0A06887
:1010F00000280CD14648006A400840004449086274
:101100000846006A04218843414908621BE0A06840
:1011100005280CD13E48006A042108433C49086276
:101120000846006A01210843394908620BE0384843
:10113000006A40084000364908620846006A0421F7
:1011400088433349086200BFA068002813D0FFF726
:10115000EDFA054608E02BE0FFF7E8FA401B2E49C0
:10116000884201D9032054E62948006A0221084038
:101170000028F1D011E0FFF7D9FA054607E0FFF7A4
:10118000D5FA401B2449884201D9032041E6204872
:10119000006A022108400028F1D10198012806D1F7
:1011A0001B48C0690121090788431949C86100BF6C
:1011B000102120680840102860D1606901282DD1D5
:1011C0001348406B04210843114948630846406BAB
:1011D000012108430E494863FFF7A8FA054606E0D7
:1011E000FFF7A4FA401B022801D9032011E60848A2
:1011F000406B022108400028F2D00548406BF821DE
:101200008843A169C90008430149486336E00000EA
:101210000010024000700040881300006069401D0B
:1012200000280FD15A48406B04218843584948632D
:101230000846406BF8218843A169C9000843544916
:1012400048631BE05248406B0421084350494863FF
:101250000846406B400840004863FFF767FA0546C0
:1012600006E0FFF763FA401B022801D90320D0E50E
:101270004748406B022108400028F2D1206A00282C
:101280004FD0434840680C210840082864D0206AA9
:10129000022847D13E4800680121090688433C499D
:1012A0000860FFF743FA054606E0FFF73FFA401BE8
:1012B000022801D90320ACE5354800680121490620
:1012C00008400028F1D100BF3148C06A0009000180
:1012D000E16A08432E49C862616AA06A08432C4942
:1012E00049683D221204914308432949486000BFE0
:1012F0000846006801210906084325490860FFF7F0
:1013000015FA054606E0FFF711FA401B022801D93D
:1013100003207EE51E480068012149060840002898
:10132000F1D033E01A4800680121090688431849C2
:101330000860FFF7FBF9054606E0FFF7F7F9401BE9
:10134000022801D9032064E51148006801214906FB
:1013500008400028F1D119E0206A012800D158E5A1
:101360000B484668C76A012000043040616A884221
:101370000AD13907090FE06A814205D10F208004A4
:101380003040A16A884201D0012042E5002040E5BA
:1013900000100240FFB581B004460D461646002CF1
:1013A00002D1012005B0F0BDE06F002805D1002179
:1013B00078200155204600F025FB2420E0672068B6
:1013C00000684008400021680860606A002802D078
:1013D000204601F067FB204601F0DEFD012800D128
:1013E000E0E720688068012189030843216888605C
:1013F000206880680121C9038843284321688860E8
:1014000077050498000407432068006807490840EE
:10141000384321680860206800680121084321687A
:101420000860204601F0B6FBBCE70000FFFF00FCAF
:1014300070B504462546681E0949884201D9012035
:101440000CE0681E074948610321081F01F084FF72
:1014500000200449886107200861002070BD000059
:10146000FFFFFF0000E000E0704770B5044600BFDA
:1014700001F0AEFF0546012001F0BCFF20680068C6
:10148000FF212131884321680860284601F0B2FF1E
:1014900000BF00BF01F09CFF0546012001F0AAFF3C
:1014A000206880684008400021688860284601F074
:1014B000A1FF00BF206E012810D100BF01F088FFFE
:1014C0000546012001F096FF20680068102188433E
:1014D00021680860284601F08DFF00BF2068806801
:1014E00040210840402825D100BF01F071FF05468A
:1014F000012001F07FFF2068806840218843216837
:101500008860284601F076FF00BF606F002811D088
:101510000020616F4863606FFEF788FF002809D0E4
:10152000606FFEF7D8FF202804D1102184200151DC
:10153000032070BD00215A2001530F20216808624A
:101540002068806908210843216888612021802063
:1015500001510020206600BFEBE7000010B50446F3
:1015600001202168086202202168086204202168A5
:10157000086210202168086208202168086220465D
:10158000FFF773FF0E492068884205D101220D49FB
:10159000204600F0BBFA11E00B49206888420DD1CB
:1015A00000200A4908700A480021016041608160FA
:1015B000C16001220749204600F0A8FA10BD0000D2
:1015C00000380140020000200044004000000020DC
:1015D000E801002001000020F0B585B00446206835
:1015E000C5692068066820688768E348284003903A
:1015F000039800280FD12020284000280BD020205D
:101600003040002807D0A06E002802D02046A16EEE
:10161000884705B0F0BD039800287DD0F807C00FBB
:10162000002803D1D54830400028F6D0E807C00F85
:1016300000280DD0FF2001303040002808D00120C4
:10164000216808628420005901210843842108513F
:101650000220284000280CD0F807C00F002808D02E
:101660000220216808628420005904210843842153
:1016700008510420284000280CD0F807C00F00288B
:1016800008D0042021680862842000590221084300
:101690008421085108202840002810D02020304004
:1016A000002803D1F807C00F002808D008202168BF
:1016B0000862842000590821084384210851012030
:1016C000C002284000280ED00120800630400028AB
:1016D00009D00120C002216808628420005920211D
:1016E00008438421085184200059002854D0202028
:1016F0002840002809D020203040002805D0A06EC6
:10170000002802D02046A16E88478420005902900C
:1017100020688068402100E03FE00840402804D075
:10172000282102980840002830D0204601F0BEFA57
:101730002068806840210840402823D100BF01F084
:1017400047FE0190012001F055FE2068806840218D
:10175000884321688860019801F04CFE00BF606FEB
:1017600000280BD08648616F4863606FFEF787FEE4
:10177000002811D0606F416B88470DE02046FFF7CD
:10178000EDFE09E02046FFF7E9FE05E02046FFF701
:10179000E5FE0021842001513BE7206E01287DD128
:1017A00010202840002879D0102030400028FAD09E
:1017B0001020216808622068806840210840402885
:1017C0006ED1606F0068406880B201900198002877
:1017D00063D05820015B019881425EDD5A21019857
:1017E0000853606F806920284CD000BF01F0F0FDE5
:1017F0000090012001F0FEFD20680068FF2101310A
:10180000884321680860009801F0F4FD00BF00BF24
:1018100001F0DEFD0090012001F0ECFD2068806801
:101820004008400021688860009801F0E3FD00BF97
:1018300000BF01F0CDFD0090012001F0DBFD20682C
:1018400080684021884321688860009801F0D2FDBB
:1018500000BF2021802001510020206600BF01F040
:10186000B7FD0090012001F0C5FD2068006810213F
:10187000884321680860009801F0BCFD00BF606FDC
:10188000FEF7D4FD022060665820025B5A20005B00
:10189000101A81B22046FFF7E7FDBAE64FE0FFE7F6
:1018A0005820015B5A20005B081A80B201905A2030
:1018B000005B002842D0019800283FD000BF01F013
:1018C00087FD0090012001F095FD20680068FF2150
:1018D0002131884321680860009801F08BFD00BF2A
:1018E00000BF01F075FD0090012001F083FD20682C
:1018F00080684008400021688860009801F07AFD07
:1019000000BF20218020015100202066A06600BF7A
:1019100001F05EFD0090012001F06CFD2068006880
:101920001021884321680860009801F063FD00BF22
:101930000220606620460199FFF796FD69E6802047
:10194000284000280AD080203040002806D0E06ED1
:10195000002802D02046E16E88475AE64020284001
:10196000002807D040203040002803D0204601F056
:10197000DDF94EE600BF4CE60F0800002001000430
:10198000952C000810B50446002C01D1012010BD93
:10199000A069002800D000E000BFE06F002805D15A
:1019A000002178200155204600F02CF82420E06723
:1019B000206800684008400021680860606A0028CC
:1019C00002D0204601F06EF8204601F0E5FA012829
:1019D00000D1DCE7206840680121C9028843216802
:1019E00048602068806808218843216888602068F2
:1019F00000680121084321680860204601F0CAF808
:101A0000C5E7000010B586B00446142101A8FEF712
:101A1000C7FB3B492068884237D100BF39488069FD
:101A200001218903084337498861084680690121FB
:101A300089030840009000BF00BF00BF31484069E3
:101A4000C90008432F4948610846406901214904FB
:101A50000840009000BF00BF0B2040020190022010
:101A6000029000200390032004900120059001A91A
:101A70000920C006FEF748FD002211461B20FEF794
:101A8000F7FF1B20FEF7E6FF38E01F492068884279
:101A900034D100BF1B48C0690121490408431949DA
:101AA000C8610846C069012149040840009000BF90
:101AB00000BF00BF13484069084312494861084607
:101AC0004069012149040840009000BF00BF0C207C
:101AD0000190022002900020039003200490012036
:101AE000059001A90920C006FEF70EFD002211464F
:101AF0001C20FEF7BDFF1C20FEF7ACFF06B010BD9A
:101B0000003801400010024000440040F8B504468F
:101B10000D46164680200059202834D1002D01D0D2
:101B2000002E01D10120F8BD01210903A0688842DF
:101B300008D12069002805D1E807C00F002801D08E
:101B40000120F0E700202066206840680121C905D7
:101B50000840002811D000BF01F03AFC07460120E0
:101B600001F048FC206800680121890608432168CB
:101B70000860384601F03EFC00BF32462946204648
:101B800001F0DAFACFE70220CDE7000010B50446F5
:101B90001749206888420AD116480178164800F093
:101BA000E2FA012213492046FFF7B0FF1FE0134974
:101BB000206888421BD112480178124802780078C8
:101BC000401C104B1870104881541846007810289B
:101BD00008D30020194608700B48002101604160BD
:101BE0008160C160012206492046FFF78FFF10BDCA
:101BF0000038014002000020F801002000440040AD
:101C00000100002000000020E8010020FFB583B0A3
:101C100004460D461746E06F202869D1002D01D0FB
:101C2000002F02D1012007B0F0BD01210903A068F7
:101C3000884208D12069002805D1E807C00F002894
:101C400001D00120EFE70021842001512120E0672D
:101C5000FEF76CFD019050200753522007530121DD
:101C60000903A068884205D12069002802D1002616
:101C7000029502E02E460020029023E00698009094
:101C8000002280212046019B01F0D6FA002803D0D3
:101C90002020E0670320C6E7002E09D102980088C3
:101CA000C005C00D216808850298801C029003E0E1
:101CB000307821680885761C5220005B401E81B276
:101CC000522001535220005B0028D7D10698009083
:101CD000002240212046019B01F0AEFA002803D0EB
:101CE0002020E06703209EE72020E06700209AE79D
:101CF000022098E7024A0168914200D000BF704775
:101D00000038014000BFFEE710B50A480A490860E4
:101D10000020087100210848C160016101200649C6
:101D200088610846FEF73DFB002801D0FEF736FB30
:101D300010BD0000003002405800002000B587B000
:101D4000142102A8FEF72CFA00BF1D4840690121AA
:101D5000490408431A494861084640690121490479
:101D60000840019000BF00BF00BF1548406949000E
:101D70000843134948610846406901218904084025
:101D8000019000BF00BF00220E490F48FEF7C7FCBC
:101D90000E480290002003900120049002A90A48F6
:101DA000FEF7B2FB07480290012003900020049048
:101DB000059002A90448FEF7A7FB07B000BD00008C
:101DC0000010024038C0000000040048073F000037
:101DD00010B51348134908601348486000211148A2
:101DE00081600121C1600021016141618161C161A6
:101DF0000162FEF711FD002801D0FEF7CFFA0021A5
:101E00000848FEF799FC002801D0FEF7C7FA002128
:101E10000448FEF7C8FC002801D0FEF7BFFA10BD49
:101E200000540040740000200A02100070470000B7
:101E300010B50F480F490860E120400248600021BA
:101E40000C488160C16001610C2141610021816108
:101E5000C161016200200749486200231A46194601
:101E60000448FFF797FA002801D0FEF797FA10BD53
:101E700000380140D800002010B510481049086013
:101E80004B20C001486000210D488160C1600161A4
:101E90000C21416100218161C1610162002008497A
:101EA00048620846FFF76EFD002801D0FEF776FA7B
:101EB000012204490248FFF729FE10BD00440040FA
:101EC000600100200100002000BFFEE77047000015
:101ED00010B50D48007800280FD100210B4800F004
:101EE0004EFC094908700A4A0321084800F0C7FA65
:101EF000084A0421054800F0C2FA012206490748B1
:101F0000FFF704FE10BD000004000020F8010020CF
:101F1000211F0008FD01000802000020D800002059
:101F2000F3B587B00E46002003900490059006900C
:101F3000002770680078000271684978401884B200
:101F40005B4800788000C01EC5B259480078800602
:101F5000000E0290002C72D0AC4270DB02988442DA
:101F60006DDC7068807805286BD10C27706801786B
:101F7000684601737068417868464173706881787B
:101F80006846817364200090601B0C235843494BC2
:101F9000C0188288601B0C235843464BC0184188E8
:101FA000601B0C235843434B185A0023019001F047
:101FB000E3FC01466846C173601B0C2148433D4960
:101FC0004018817968460174601B0C2148433949E7
:101FD0004018C17968464174601B0C21484335495B
:101FE0004018017A68468174601B0C2148433149CE
:101FF0004018408801126846C174601B0C21484398
:102000002C494018817868460175601B0C214843B3
:10201000284940188088011268464175601B0C21D0
:10202000484324494018017968468175601B0C219A
:10203000484320494018417A6846C1752BE033E097
:10204000FFE770688078072825D104277068017839
:10205000684601737068417868464173706881789A
:102060006846817364200090601B0C235843114B19
:10207000C0188288601B0C2358430E4BC01841883F
:10208000601B0C2358430B4B185A0023019001F09E
:1020900073FC6946C873002F06D003A870603781AF
:1020A0003146079800F086FB012009B0F0BD000022
:1020B00003000020E80800207047000010B5FEF77C
:1020C00063FC04480078012802D1034800F0AAFC10
:1020D00010BD000004000020F801002000B595B0FC
:1020E000302109A8FEF75CF80020059006900790C3
:1020F000089001900290039004900A20099001201A
:102100000C9010200D9001201090022011900021C1
:1021100012910521C90413910021149109A8FEF719
:1021200073FE002801D0FEF739F907200590022040
:102130000690002007900890012105A8FEF74AFDAF
:10214000002801D0FEF72AF92120019000200390F9
:10215000049001A8FEF796FC002801D0FEF71EF9B6
:1021600015B000BD704770B504460D46A0893228F1
:1021700005DBA07A002802D0204600F018FB0020E2
:10218000A081A07A030001F0D9F807052F830B5432
:10219000D4FE0A00012D02D1204601F065FC42E187
:1021A00000BF012189026118888A294600F08AF956
:1021B000012189026118888200BFA07B00022843A8
:1021C000A073012080022018408A401C80B20121A7
:1021D000890261184882012805D1A07200200121DE
:1021E0008902611848821EE100BF0121890261183D
:1021F000888A294600F066F90121890261188882DF
:1022000000BF207C00022843208201208002201889
:10221000408A401C80B2012189026118488202284C
:1022200006D10420A0720020012189026118488291
:10223000F9E000BF012189026118888A294600F06F
:1022400041F9012189026118888200BF01208002C2
:102250002018007E000228430121890261180876B7
:10226000012080022018408A401C80B2012189028E
:102270006118488201280AD10220A07200200121A1
:10228000890261184882012189026118C882CAE066
:10229000012080022018807D00022843012189024C
:1022A0006118C882012080022018408A401C80B238
:1022B0000121890261184882022839D100BF4102F8
:1022C0006118888A00F00CF901218902611888825E
:1022D00000BF012080022018808A01218902611834
:1022E000C98A884203D0204600F061FA9BE0208A28
:1022F000002806D1204600F09FF9204600F057FA4A
:1023000091E00520A0720020012189026118488215
:1023100000BF00F0E6F8012189026118888200BF41
:10232000208A01218902884202DD01206118487655
:1023300079E0012080022018407E002809D0012089
:1023400080022018408A401C0121890261184882BD
:102350001EE000BF012189026118888A294600F029
:10236000B1F8012189026118888200BF0120800232
:102370002018418A012080022018408A401C012236
:102380009202A21800E016E0508220461230455416
:10239000012080022018408A218A88420AD1062022
:1023A000A07200200121890261184882012189025E
:1023B0006118C88237E0012080022018807D000269
:1023C0002843012189026118C88201208002201857
:1023D000408A401C80B2012189026118488202288B
:1023E00020D100BF41026118888A00F079F80121EC
:1023F00089026118888200BF012080022018407E77
:1024000000280CD1012080022018808A0121890235
:102410006118C98A884202D1204600F00DF9204691
:1024200000F0C5F900BF00BF70BDF0B504460D4611
:10243000002620E0142070439527FF00E719C119FA
:102440004868002815D14A6028780870E868C86094
:10245000286908610B814B81372040012018007BDF
:10246000B04204DC701C37277F01E7193873012064
:10247000F0BD701CC6B2142EDCDB0020F8E770B58E
:1024800003460C461546002118E0C800C726F60092
:102490009E198219506800280ED15560147037209B
:1024A00040011818407B884204DC481C372676011E
:1024B0009E197073012070BD481CC1B21429E4DB61
:1024C0000020F8E710B50246101213464B401B06D9
:1024D000DB0D024CE35A584010BD0000F43C0008EC
:1024E0007047002070470146252040010818807978
:1024F000002801D0002070470120252252018A18AF
:10250000907100BFF7E710B5044614212046FDF78F
:1025100047FE10BDF7B584B00D46164600240020D6
:10252000039002900190002700BFFFF7DAFF0190AF
:1025300000BF7078002802D03078029010E0049834
:10254000417A481CC2B2049842724806400E02907A
:102550000498007A002803D0802102980843029052
:102560000298307000BFFFF7BCFF019000BF01224E
:1025700038467F1C2A5400BF01210198FFF7A2FFB3
:10258000019000BF002411E0E10002980841C0B2B0
:10259000039039467F1C0398685400BF0399019843
:1025A000FFF790FF019000BF601E44B2002CEBDAF1
:1025B000012411E03089E1000841C0B2039039469E
:1025C0007F1C0398685400BF03990198FFF77AFFB6
:1025D000019000BF601E44B2002CEBDA002411E031
:1025E000B078E1000841C0B2039039467F1C0398DF
:1025F000685400BF03990198FFF764FF019000BF82
:10260000601E44B2002CEBDA00BF0198FFF768FFB0
:10261000019000BF01240AE0E10001980841C0B226
:10262000039039467F1C03986854601E44B2002C06
:10263000F2DA384607B0F0BDF0B587B00546684617
:10264000FFF761FFA97B68460170002141700120FE
:1026500080022818017E6846817028461230019059
:10266000298A68460181002630E0142070439521B4
:10267000C900691844186068002825D02078694688
:102680000978884220D1E068039020690490694667
:1026900028466268904707460398E06004982061E6
:1026A000002F11D0022F03D1204601F06FFA09E06C
:1026B000032F07D10020E0602061224631462846E2
:1026C00000F0AFFE07B0F0BD701CC6B2372040016D
:1026D0002818007BB042C8DC00200390049000263C
:1026E00021E0F000C721C90069184018069006983B
:1026F0004068002815D00698007869468978884295
:102700000FD1069869464268284690470746002F31
:1027100007D0032F04D131462846069A00F0AFFEB9
:10272000D0E7701CC6B2372040012818407BB04269
:10273000D7DC00261BE0B000DB21C9006918401877
:1027400005900598006800280FD005986946026832
:10275000284690470746002F07D0032F04D1314663
:102760002846059A00F049FEACE7701CC6B2372037
:1027700040012818807BB042DDDC00BFA2E7F8B53D
:1027800004460D46002C00D1F8BD666827686F210D
:1027900009012046FDF704FD6660276025720120CF
:1027A000F2E7002125225201821891717047002121
:1027B0008172704770B505460C4601206070214655
:1027C000284600F001F870BD70B504460D460023A0
:1027D0001A462946204600F001F870BDF8B50546B6
:1027E0000C4616461F4600BF3B4632462146284649
:1027F00000F014F8002800D1F8BD00BF208900289F
:1028000002D06068002807D022892846616800F05D
:102810003DF8284600F0AAF80120EDE7F8B5044697
:102820000D4616461F4600BF2046FFF75CFE0028F7
:1028300000D1F8BD00BF2A46134821182046FFF7F3
:1028400069FE0921C9016118C86128890921C901E6
:1028500061180862002E0CD03B46324629462046BD
:10286000FFF7E3FD002804D12046FFF79AFF002080
:10287000DFE700BFFFF735FE0921C9016118888431
:1028800000BF0120D5E700001A040000F7B588B0AA
:102890000446002007900A9D61E00920C00120182D
:1028A000C0698021081AA84205D20920C001201859
:1028B000C069081A00E0284606460920C001201811
:1028C000C06929496118401804900799099840186F
:1028D0000590B0B2069024488A3027180020039053
:1028E00002900190039014E003990598405C0290D7
:1028F0000198421C02990192049A115400BF388831
:102900000299FFF7DFFD388000BF0398401C80B2BA
:102910000390069903988842E6DB0921C9016118F2
:102920000198C96940180921C9016118C861AD1B26
:102930000798801907900920C0012018C0698028D5
:102940000DD10920C0012018C2690748211820466E
:1029500000F094F800200921C9016118C861002D18
:102960009BD10BB0F0BD00001A040000FEB5044678
:102970000920C0012018006A002844D00920C001A5
:102980002018C0698021081A02280DD20920C00130
:102990002018C26922482118204600F06FF8002054
:1029A0000921C9016118C8610920C0012018C06946
:1029B0001B49611847181A488A302518002600203C
:1029C0000190009000BF00BF2888FFF789FD288094
:1029D00000BF01260BE02888F1000841C0B2019039
:1029E0000098421C019900923954701E46B2002E84
:1029F000F1DA0921C90161180098C9694018092153
:102A0000C9016118C8610920C0012018C2690448C1
:102A10002118204600F032F82046FFF7C2FEFEBD26
:102A20001A04000070B50446A089322802DAA08991
:102A3000401CA08100261AE0142070439521C90093
:102A4000611845186868002802D02889002800D13C
:102A50000BE02889401E80B22881002804D12A4634
:102A60003146204600F0DDFC00BF701CC6B23720A6
:102A700040012018007BB042DEDC70BD70B5064618
:102A80000D461446A2B22D2329460448FFF7BEF88E
:102A9000012203490148FFF739F870BDD800002032
:102AA000020000200822416A1140082907D101686C
:102AB000496812039143426B114302685160818C53
:102AC000C907C90F002908D00168496801225204CA
:102AD0009143826A1143026851600222416A1140A7
:102AE000022907D101684968D2039143C26A1143A0
:102AF000026851600422416A1140042907D101682B
:102B0000496812049143026B11430268516010221C
:102B1000416A1140102907D1016889681202914366
:102B2000826B1143026891602022416A1140202982
:102B300007D10168896812029143C26B1143026890
:102B400091604022416A1140402915D101684968CD
:102B500092039143026C11430268516001221205F5
:102B6000016C914208D101684968032252059143E2
:102B7000426C1143026851608022416A11408029F1
:102B800007D10168496812039143826C11430268BE
:102B900051607047F8B50446002184200151FDF7CB
:102BA000C5FD05462068006808210840082823D193
:102BB00037482B46002289040090204600F03CFB59
:102BC000002819D000BF00F003FC0646012000F0E9
:102BD00011FC206800688021884321680860304625
:102BE00000F008FC00BF2020E06700BF0021782033
:102BF000015500BF0320F8BD20680068042108408B
:102C0000042836D122482B46002209050090204690
:102C100000F012FB00282CD000BF00F0D9FB0646C4
:102C2000012000F0E7FB20680068FF212131884384
:102C300021680860304600F0DDFB00BF00BF00F0F7
:102C4000C7FB0646012000F0D5FB206880684008DD
:102C5000400021688860304600F0CCFB00BF202196
:102C60008020015100BF00217820015500BF0320C2
:102C7000C1E72020E067202180200151002020664C
:102C8000606600BF00217820015500BF0020B2E738
:102C9000FFFFFF0170B505466C6A00215A20015301
:102CA000522001532046FEF759FC70BD70B5044612
:102CB00000BF00F08DFB0546012000F09BFB206863
:102CC0000068FF212131884321680860284600F010
:102CD00091FB00BF00BF00F07BFB0546012000F028
:102CE00089FB206880684008400021688860284689
:102CF00000F080FB00BF206E012810D100BF00F063
:102D000067FB0546012000F075FB20680068102174
:102D1000884321680860284600F06CFB00BF202132
:102D20008020015100202066A06670BD70B5044669
:102D300000BF00F04DFB0546012000F05BFB206862
:102D400000684021884321680860284600F052FB53
:102D500000BF2020E0670020E0662046FEF7CAFFA3
:102D600070BDF8B504465C20075B8020005922281E
:102D70007DD12068868C656D304638402880606D36
:102D8000801C60655A20005B401E81B25A200153AE
:102D9000005B002871D100BF00F01AFB00900120F9
:102DA00000F028FB20680068FF212131884321685A
:102DB0000860009800F01EFB00BF00BF00F008FB99
:102DC0000090012000F016FB206880684008400059
:102DD00021688860009800F00DFB00BF2021802052
:102DE00001510020A06660662068406889040840A0
:102DF000002811D000BF00F0EBFA0090012000F095
:102E0000F9FA206800680121890688432168086072
:102E1000009800F0EFFA00BF206E012823D10020B7
:102E2000206600BF00F0D4FA0090012000F0E2FA22
:102E3000206800681021884321680860009800F02D
:102E4000D9FA00BF2068C069102108400009002895
:102E500002D01020216808625820015B2046FEF74E
:102E600003FB0AE003E02046FEF790FE05E0206841
:102E700080690821084321688861F8BDF8B50446D7
:102E80005C20065B8020005922287DD12068858C3B
:102E9000F0B22840616D0870606D401C60655A207A
:102EA000005B401E81B25A200153005B002871D1A3
:102EB00000BF00F08DFA0746012000F09BFA206861
:102EC0000068FF212131884321680860384600F0FE
:102ED00091FA00BF00BF00F07BFA0746012000F026
:102EE00089FA206880684008400021688860384678
:102EF00000F080FA00BF2021802001510020A06650
:102F000060662068406889040840002811D000BF2E
:102F100000F05EFA0746012000F06CFA20680068B5
:102F200001218906884321680860384600F062FA6A
:102F300000BF206E012823D10020206600BF00F0D2
:102F400047FA0746012000F055FA20680068102172
:102F5000884321680860384600F04CFA00BF2068BA
:102F6000C069102108400009002802D01020216803
:102F700008625820015B2046FEF776FA0AE003E07B
:102F80002046FEF703FE05E020688069082108431B
:102F900021688861F8BD0000FEB50446002000905D
:102FA0002169A068084361690843E1690843029008
:102FB000206800685A49084002990843216808605F
:102FC00020684068032109038843E16808432168B9
:102FD0004860A0690290206A029908430290206824
:102FE00080680B21090288430299084321688860A0
:102FF00000BF4C492068884217D14B48006B8007BE
:10300000800F002806D0012808D0022808D0032805
:1030100008D101E0002707E0022705E0042703E0CC
:10302000082701E0102700BF06E0404920688842D9
:1030300001D1002700E0102700BF0121C903E0698A
:10304000884239D1002F06D0022F08D0042F08D093
:10305000082F0DD109E0FDF779FE05460CE0344D4F
:103060000AE0FDF785FE054606E00125ED0303E0D5
:1030700000250120009000BF00BF002D4AD06A004B
:1030800063685B08D0186168FDF72CF80646102EBF
:103090000FD3284886420CD826480F38304001907C
:1030A0003007400F01990843019001982168C860DA
:1030B00030E0012000902DE0002F06D0022F08D034
:1030C000042F08D0082F0DD109E0FDF73FFE05467B
:1030D0000CE0174D0AE0FDF74BFE054606E0012522
:1030E000ED0303E000250120009000BF00BF002D8C
:1030F00010D061684A085019FCF7F4FF0646102EFC
:1031000006D30C48864203D8B0B22168C86001E0FB
:10311000012000900020A066E0660098FEBD00003F
:10312000F369FFFF003801400010024000440040F6
:1031300000127A00FFFF0000F8B504460E4615465F
:103140006665582005535A2005530020A06600BF2D
:1031500001210903A06888420AD12069002803D10F
:1031600032495C20015314E0FF215C20015310E040
:10317000A06800280AD12069002803D1FF215C2023
:10318000015306E07F215C20015302E000215C2016
:10319000015300BF002184200151222180200151D0
:1031A00000BF00F015F90746012000F023F9206860
:1031B00080680121084321688860384600F01AF9C8
:1031C00000BF01210903A068884205D120690028B9
:1031D00002D11748A06601E01648A06620690028C1
:1031E00011D000BF00F0F4F80746012000F002F90A
:1031F00020680068FF2121310843216808603846B3
:1032000000F0F8F810E000BF00F0E2F807460120F7
:1032100000F0F0F820680068202108432168086069
:10322000384600F0E7F800BF0020F8BDFF010000BD
:10323000632D00087D2E0008FFB581B004460D46C1
:1032400017460A9E46E0701C002843D0FDF76EFA30
:103250000499401AB04201D8002E02D1032005B0D3
:10326000F0BD2068006804210840002832D0802D7D
:1032700030D0402D2ED02068C06908210840C008F9
:1032800000280FD00820216808622046FFF70EFDB5
:1032900008218420015100BF00217820015500BF82
:1032A0000120DCE72068C0690121C9020840C00A8A
:1032B00000280FD00846216808622046FFF7F6FC78
:1032C00020218420015100BF00217820015500BF3A
:1032D0000320C4E72068C0692840A84201D101202A
:1032E00000E00020B842AED00020B8E710B5024898
:1032F000FEF772F910BD0000D800002010B502489A
:10330000FEF76AF910BD000060010020F8B582B236
:103310008BB2040C0D0C10465843002126465E4328
:10332000370C36048019794116466E43370C360443
:103330008019794126466E438919F8BD30B4744628
:10334000641E2578641CAB4204D3635D5B00E31804
:1033500030BC18471D46F8E710B5002819DB1A4A9B
:1033600003231B02D21883089B00D2588307DC0E6C
:10337000FF23A3409A438B071B0E8407E40EA34050
:103380001A43114B032424021B198408A4001A5168
:1033900018E00E4A03071B0F083B9B089B00D258FE
:1033A0008307DC0EFF23A3409A438B071B0E840781
:1033B000E40EA3401A43054B0407240F083CA4085D
:1033C000A4001A5110BD000000E100E01CED00E077
:1033D000EFF31080704702E008C8121F08C1002AEE
:1033E000FAD170477047002001E001C1121F002A86
:1033F000FBD1704780F31088704710B5002313602D
:1034000037235B01C3189B7B5B1E8B4208D137239C
:103410005B01C3189B7B5B1E372464010419A373F3
:1034200010BD70B586B005460E461446606800288B
:1034300001D106B070BDE068002802D120690028E3
:1034400009D0E0680490206905900020029001A94D
:1034500028466268904700206060372040012818A5
:10346000007B401EB04208D1372040012818007B65
:10347000401E372149016918087300BFD9E710B50C
:103480000023536037235B01C3185B7B5B1E8B42B9
:1034900008D137235B01C3185B7B5B1E37246401B3
:1034A0000419637310BD0000F8B504460526012712
:1034B0000A25601CC1B2684601700521417000BF39
:1034C000002028490870284800210160416081607F
:1034D000C1606423022269462448FEF797FB37E067
:1034E0000220FCF7FBFF1F48007808282ED11E4859
:1034F0000178601C814229D11B484078052825D1DC
:1035000000252F462E461848807800021649C978B3
:1035100008430C216143164A5052134801790C208C
:10352000604380188171104841790C2060438018F5
:10353000C1710D4881790C206043801801720A48DE
:10354000C1790C2060438018417201E0681EC5B249
:10355000002DC5D13046711ECEB20028B0D13846FC
:10356000F8BD000000000020E801002060010020FC
:10357000E8080020F8B5FDF7D9F80446022197487D
:10358000FDF7BAF8064601219448FDF7B5F807465D
:1035900004219248FDF7B0F80090002E49D19048E0
:1035A000007800281CD101208D4908708D490870D1
:1035B0008D4908708D480078401CC0B28B49087056
:1035C000032801DD00200870894820188949086017
:1035D0008948046000F0B2FAC820FCF77FFF36E0AB
:1035E00086480078002832D083480068201A844931
:1035F00088422CD900208149087000F0EBFAC820DD
:10360000FCF76CFF002511E0284600F0C3FA2846BD
:10361000FFF74AFF0C2068437A494018407A022895
:1036200002DB012075490870681CC5B2042DEBDB74
:103630000DE0012E0BD16A480078002807D0002049
:1036400067490870C820FCF749FF00F077FA654821
:103650000078002838D0002F36D16B480078002839
:1036600008D101206849087063480460C820FCF74D
:1036700035FF24E060480068201A7D21C900884297
:103680001DD962480068201A052818D957480078C3
:103690000C2148435B49085A7D21C90088420CDA55
:1036A000524909780C225143564A88180188491C0E
:1036B00001804E48007800F0FFFA544804604C48FE
:1036C00020184C4908601CE0012F1AD14E480078A0
:1036D000002816D000204C49087047480068201A7E
:1036E0007D21C900884209D2404800780C2250430D
:1036F000444A11523D48007800F0DEFAC820FCF739
:10370000EDFE38480078002837D00098002834D1E2
:103710003F480078002808D101203D49087036480C
:103720000460C820FCF7DAFE22E033480068201A63
:103730007D21C90088421BD934480068201A052819
:1037400016D92A4800780C2148432E49085A0028E7
:103750000CDD264909780C2251432A4A8818018831
:10376000491E01802148007800F0A6FA274804602D
:103770001F4820181F4908601EE0009801281BD12F
:1037800023480078002817D00020214908701A48E3
:103790000068201A7D21C90088420AD200211348FE
:1037A00000780C225043174A11521048007800F05C
:1037B00083FAC820FCF792FE012E0DD1084800784C
:1037C000002809D1094800780C2250430D4A115AAB
:1037D0000648007800F008FAF8BD00000004004830
:1037E00040000020210000202800002020000020B0
:1037F00010270000240000202C00002029000020B9
:1038000088130000E8080020410000203C00002050
:1038100042000020FDF7C4F8FEF760FCFEF78EFAC8
:10382000FEF772FAFEF7D4FAFEF700FBFEF700FB94
:10383000FEF722FBFEF74CFB7CE0FFF79BFE00F05F
:10384000B3F83D480078002804D001286CD0022845
:103850006DD16DE0002039490870FF2101313848F1
:10386000FCF74AFF002805D13448007801210843BD
:1038700032490870012149023148FCF73DFF002818
:1038800005D12E480078022108432C4908700121F7
:1038900089022B48FCF730FF002805D12748007823
:1038A00004210843254908700121C9022448FCF776
:1038B00023FF002805D121480078082108431F492B
:1038C0000870012109031E48FCF716FF002805D1E6
:1038D0001A4800781021084318490870012149034B
:1038E0001748FCF709FF002805D11448007820216B
:1038F0000843124908707D20C000124948800146E3
:103900001048C1814183C18402200E4948720221BE
:103910000C484175183041720C30417201200A493F
:1039200008700549087004E000F0C2F801E000BF2B
:1039300000BF00BF81E70000070000200300002057
:1039400000040048E80800202900002070B5044663
:103950000D461646002C00D170BD642C02D17D208E
:10396000C000F9E7611E721B514308466221FCF753
:10397000B9FB401980B2EFE7F8B504460D4617468B
:103980001E46AC4201DC3046F8BDBC4201DB069865
:10399000FAE7621B069B9B1B5A431046791BFCF7F8
:1039A000A1FB8019C0B2EFE770B5FCF7BFFE04467B
:1039B00023480068844209D9032022490870002066
:1039C000214908702149087000F0B8F81F480078B4
:1039D000002814D01E480068201AFF21F5318842C3
:1039E0000DD3184A127852001A4B995A154A127878
:1039F0009200194B9858FCF788FE15480460174848
:103A0000007800281BD016480068201A322816D3E8
:103A1000002510E00C20684312494018407A022823
:103A200007DB6A000B4B995AAA000B4B9858FCF71E
:103A30006CFE681CC5B2042DECDB0948046070BD47
:103A40002400002020000020210000202800002069
:103A5000300000201800002008000020290000206D
:103A600038000020E808002010B5044600BFFEF72B
:103A700038FD012189026118888200BF00BF012141
:103A800089026118888A0121FEF71CFD0121890243
:103A90006118888200BF00200121890261184876E0
:103AA0000320A0720020012189026118488210BD04
:103AB00010B50024FCF73AFE1D490968401A322867
:103AC00035D3FCF733FE1A4908601A4800780C21F8
:103AD000484319494018807A01281AD115480078BE
:103AE00000F0EAF804461348007800F0CDF8001919
:103AF000C4B21048007800F0AFF80019C4B2002C2E
:103B000007D100210B4800780C2250430A4A801844
:103B1000817208480078FFF7C7FC06480078401C0F
:103B2000C0B204490870042801DB0020087010BDF1
:103B30003400002044000020E808002070B5002474
:103B40001AE00C2060430E494018407A022811DA2E
:103B50000C2363430D46EB5A002B01DD012300E0EB
:103B600000231A466300074DE95AA300064DE858A2
:103B7000FCF7D5FD601CC4B2042CE2DB70BD000074
:103B8000E808002018000020080000204189018179
:103B90007047000038B5044600BF601CC1B26846DB
:103BA0000170042141700C2060430949401881795B
:103BB000684681700C20604305494018017A6846C8
:103BC000C170042100F012F80546284638BD0000F7
:103BD000E808002008B555216846017006214170AB
:103BE000022100F003F808BD70470000F8B5044654
:103BF0000D460527012000900A2600BF002013492A
:103C0000087013480021016041608160C160642335
:103C10002A4621460F48FDF7F9FF0DE00220FCF788
:103C20005DFC0B480078062804D1002006460746B4
:103C3000009001E0701EC6B2002EEFD13846791E0A
:103C4000CFB20028DAD10098F8BD000000000020B3
:103C5000E80100206001002038B5044600BF601C68
:103C6000C1B268460170022141700C2060430549D1
:103C700040188179684681700321FFF7B7FF054638
:103C8000284638BDE808002038B5044600BF601C4F
:103C9000C1B268460170032141700C2060430549A0
:103CA0004018017A684681700321FFF79FFF05469F
:103CB000284638BDE808002038B5044600BF601C1F
:103CC000C1B268460170012141700C20604308496F
:103CD000085A0112684681700C2060430449095C4F
:103CE0006846C1700421FFF781FF0546284638BDAC
:103CF000E80800200000C1C081C1400101C3C00329
:103D0000800241C201C6C006800741C70005C1C587
:103D100081C4400401CCC00C800D41CD000FC1CF47
:103D200081CE400E000AC1CA81CB400B01C9C00937
:103D3000800841C801D8C018801941D9001BC1DBD7
:103D400081DA401A001EC1DE81DF401F01DDC01D87
:103D5000801C41DC0014C1D481D5401501D7C017A7
:103D6000801641D601D2C012801341D30011C1D1B7
:103D700081D0401001F0C030803141F10033C1F3F7
:103D800081F240320036C1F681F7403701F5C03587
:103D9000803441F4003CC1FC81FD403D01FFC03F47
:103DA000803E41FE01FAC03A803B41FB0039C1F937
:103DB00081F840380028C1E881E9402901EBC02B97
:103DC000802A41EA01EEC02E802F41EF002DC1ED87
:103DD00081EC402C01E4C024802541E50027C1E7A7
:103DE00081E640260022C1E281E3402301E1C021B7
:103DF000802041E001A0C060806141A10063C1A3B7
:103E000081A240620066C1A681A7406701A5C06586
:103E1000806441A4006CC1AC81AD406D01AFC06F46
:103E2000806E41AE01AAC06A806B41AB0069C1A936
:103E300081A840680078C1B881B9407901BBC07BD6
:103E4000807A41BA01BEC07E807F41BF007DC1BD86
:103E500081BC407C01B4C074807541B50077C1B7A6
:103E600081B640760072C1B281B3407301B1C071B6
:103E7000807041B00050C190819140510193C05376
:103E8000805241920196C056805741970055C19586
:103E900081944054019CC05C805D419D005FC19F46
:103EA000819E405E005AC19A819B405B0199C05936
:103EB000805841980188C04880494189004BC18B96
:103EC000818A404A004EC18E818F404F018DC04D86
:103ED000804C418C0044C184818540450187C047A6
:103EE000804641860182C042804341830041C181B6
:103EF0008180404002030405060708090A0B0C0DE7
:103F00000E0F10100102030405060708090A0B0C26
:103F10000D0E0F100000000000000000010203045D
:103F20000607080900000000010203044C3F0008D6
:103F30000000002058000000D6330008A43F00080D
:103F400058000020C00C0000E6330008000000000C
:103F5000000000000004004800040048000400487D
:103F6000000400480800100020000040030000008A
:103F70000000000000000000000000000000000041
:103F80000000000000000000000000000000000031
:103F9000000000000000000004000000010000001C
:043FA00000127A0091
:04000005080000B53A
:00000001FF
