:020000040800F2
:1000000050050020C5000008C3120008C1120008F6
:1000100000000000000000000000000000000000E0
:10002000000000000000000000000000C7120008EF
:100030000000000000000000C5120008C9120008FE
:10004000D700000800000000D7000008D700000813
:10005000D7000008D7000008D70000083D070008B7
:1000600000000000D7000008D7000008D7000008F3
:10007000D7000008D7000008D700000800000000E3
:10008000D70000080000000000000000DD1200089A
:1000900000000000D7000008D7000008D7000008C3
:1000A00000000000D700000800000000E91600086A
:1000B0000348854600F014F800480047E91A000894
:1000C000500500200448804704480047FEE7FEE74B
:1000D000FEE7FEE7FEE7FEE7D9120008B1000008E0
:1000E000064C0125064E05E0E36807CC2B430C3C8B
:1000F00098471034B442F7D3FFF7DEFF883000088A
:10010000A8300008F0B507460846584087B0C00F31
:10011000049048000E46590040084908BC1A88411E
:1001200005D2384631461E4617460B460246580051
:10013000400810434CD0300D039040055900400D4D
:10014000490D0590401A0290402872DA18030121E7
:10015000000B09050843019004980092002805D07F
:10016000019952420020884100920190029840215A
:100170000A1A0199009800F0CDF905460C466B4625
:1001800007CB00F0D7F9C0197141039A0E0D002377
:10019000D71756401A467A40164344D0049A002A8C
:1001A0002DD0029A012A039A15DC1205C01A91413A
:1001B00001263605001C7141D20F059ED20700931F
:1001C000019202962A46234600F015FA07B0F0BDC8
:1001D00038463146FAE71605224A0F46B218C01AC9
:1001E000B74101210905001C4F4100187F4111460C
:1001F00018187941E20F10436D19644113E0E207CA
:100200006D0815436408C2071443039A01261205BA
:10021000C01A91413605001C7141CE074008304399
:100220004908C01851412A46234600F0D7F9CDE7C6
:10023000FFE7049801224000C117121A00238B41E6
:1002400004983146C417381AA141EEE730B40124AE
:10025000E407634030BC55E730B40124E407614053
:1002600030BC4FE70000E0FFF0B51FB488B00B9939
:100270000998002448400999C00F4900490809918C
:10028000C0070B990090490049080B9109990898FB
:10029000A64608431CD00B990A98084318D0099821
:1002A00001244000420D4800410D09982405000337
:1002B000000B204309900B980003000B20430B9088
:1002C00050181C494018002201901446104605E0C1
:1002D000002001460DB0F0BD032801DA034600E01E
:1002E00003239C46C11A0AAE0AE05F0008ADED5B2D
:1002F0004F00F75B7D430027AA187C41491C5B1E19
:100300006145F2DD410004AB5A522104120C0A434C
:10031000240C401C0828DFDB0198029000997046ED
:1003200001910090059B049A0799069800F063F9E3
:10033000D0E700000DFCFFFFF0B50C465C4085B037
:10034000E40FE40703944C00002664085900944627
:10035000490802460296224321D062460A431ED033
:100360006200570D4A000E032303550D0124024677
:100370002C492405781B1B0B360B401823432643BE
:10038000614600901C46501AB44103D30098401CAB
:10039000009002E0921800985B41002803DA0020E8
:1003A000014605B0F0BD002001210905074686463B
:1003B00011E064461D46141BB54106D36546521B29
:1003C000B341744607430C43A646CD07400849088D
:1003D000284392185B4105460D43EAD11046184365
:1003E00013D06046194650407140084306D060461D
:1003F000101AB34106D20122002306E00022012395
:10040000DB0702E00122D243531000987446010535
:10041000381C6141029C039D0019694100F0DEF81F
:10042000BFE70000FD0300000EB505490291002161
:1004300000910A460B46019100F0DDF803B000BDC3
:1004400033040000C20F410040020123400ADB05D3
:10045000D207090EC0187F2901DA002070479629BB
:1004600003DC9623591AC84001E096398840002AD7
:10047000F4D040427047C20FD207400040080BD072
:10048000C10D0723DB01C91840020905400A1143C9
:10049000C208400711437047002001467047CB0F48
:1004A000DB07490010B5490802460A4307D00A0D88
:1004B00007240903E401090B121B002A01DC0020B8
:1004C00010BDC900440F0C43C100E018D2058018CC
:1004D00000F043F810BD70B50446002903D0002099
:1004E0002022012310E0002801D00020C043C04694
:1004F000C0460DE02546D5408D4205D30D469540BA
:10050000641B1D46954040191546521E002DF1DC16
:10051000214670BD10B5202A04DB0146203A9140E7
:10052000002010BD914020239C1A0346E34019434C
:10053000904010BD10B5202A06DBCB170846203AA4
:100540001041C1170B4306E00B461341D040202455
:10055000A21A91400843194610BD002904DA401C34
:10056000490001D140084000704770B40024050CD8
:1005700005D11024000402D1002921D01124050E38
:1005800001D100020834050F01D10001241D850F9F
:1005900001D18000A41C002801DB4000641C00295C
:1005A00008D020252E1B0D46F540A14000D001218A
:1005B0002943084301061B1B000ADB1D02D500204E
:1005C00070BC7047DB05181880180029F8DA401C49
:1005D0004900F5D170BC40084000704710B5002BB1
:1005E00008DA0024401C614192185B411A4301D192
:1005F0004008400010BDF0B51FB482B005460C00A5
:1006000003D0084602F0C8FA02E002F0C5FA203032
:100610000246009021462846FFF77CFF049B059A7E
:1006200004460F4618431143084314D0184610439C
:100630001BD0009840210A1A1846059900F06CF862
:1006400005460E46009A05990498FFF763FF084394
:1006500005D0012004E02046394607B0F0BD002057
:10066000C11705430E432C43374300990E98630589
:10067000401A7905E40A00220C43FD0A0A3002D52B
:1006800000200146E9E70105101969410C9C0D9D08
:1006900000196941FFF7A2FFDFE770B54B005B0867
:1006A00003430BD04B005C0D002633466542B3413B
:1006B000D417AD1AA34102DB0020014670BD12051C
:1006C0003018514170BD00000EB5C217C10F504027
:1006D000CA0740180021054B0293019200910A4677
:1006E0000B46FFF788FF03B000BD00003304000095
:1006F00010B5002904DB0124E40740428C41214667
:10070000002B04DB1C460123DB075242A3418B4232
:1007100000D1824210BD000010B5202A04DB08463B
:10072000203AD040002110BD0B46D340D0402024B9
:10073000A21A91400843194610BD000010B519488F
:100740000168C9062CD510210160174908880028C6
:1007500026D0164820220260154A012010700B880E
:10076000144A116800244C620A245C43A3B2CB6291
:10077000D3603D23D45C012C12D10224D454CA6826
:100780000243CA600C4A914202D00C4A914204D101
:100790008A6807231340062B02D00A6802430A60C6
:1007A00010BDC04614040140160000202800004877
:1007B0003001002058000020002C014000040040BF
:1007C000F0B583B0002402943427D54EF15D0129A1
:1007D00002D1022003B0F0BD33689968490716D4EE
:1007E000019744C801252F4697403C4908388E425E
:1007F00013D1986AB84398621046A843102820463F
:10080000C74E019F67D1102A1AD0374819E0B06B44
:1008100020210143B16301205DE0996A3943996267
:10082000BF4EF76A791E07293FD21046A843102809
:100830002046019F4FD11346102A08D0A80507E093
:10084000284827490A6802400A60204643E0E80534
:1008500023490A6802430A60102B20463BD1814895
:1008600000688149FFF737FE0A214143029102984F
:10087000002820462FD00298401E0290029800289F
:1008800024D00298401E02900298002820D002989E
:10089000401E0290029800281CD00298401E029030
:1008A00002980028E7D1204615E029078F42BCD0E6
:1008B00059690727394080688842B6D05969B943D9
:1008C00059613840596901435961AEE7204602E059
:1008D000204600E02046F45503B0F0BD01100000B2
:1008E00008270140FFFF7FFFFFFFBFFF10B58C48C7
:1008F00001684269082A01D1082203E0CA68D207C8
:100900002BD10C22874B1B680B68134208D10B6854
:10091000134205D10B68134202D10B681342F3D086
:1009200001225302846B1C438463CB681B059B0F1D
:1009300024D1837E002B21D10B681B071ED58B6829
:100940005B0712D44B680C24A3434B60FF24023492
:10095000836BA343044638340EE034210022425412
:10096000816B20220A43826310BD836B20241C43C9
:10097000846304463C34C36B13432360007E002829
:1009800000D010BD0C20086010BDC046F0B581B08D
:10099000634C2568A86840075FD43427E05D0128D0
:1009A0005BD00126E655607E012847D000200090EC
:1009B000A86803210140012905D12868C0073DD15D
:1009C000E86800043AD4A8682549084208D0A06B1A
:1009D00010210143A163E06B3043E06301B0F0BD3F
:1009E000A8683043A8601F4800681F49FFF773FDDF
:1009F00000900098002814D00098401E00900098A5
:100A000000280ED00098401E00900098002808D0C2
:100A10000098401E00900098002802D00098401EC8
:100A2000E6E7404801682A68D20707D10268521AEF
:100A3000032AF8D32A68D207F5D1C8E70020E05589
:100A4000A16B0A4A0A4031025118A163E0631C20DD
:100A50002860A86804210143A96001B0F0BDC04628
:100A6000170000800400002040420F00FEF0FFFF4E
:100A700070B534202A490A5C012A4FD001220A5459
:100A80000B689C68640711D49D6803242540012DE0
:100A900005D11D68ED0720D1DD682D041DD4FF238D
:100AA00002338C6B9C430B46383333E09C686407FD
:100AB00006D59C68A40703D49C68102525439D6037
:100AC000184C25689E687607DED52668761B032EAF
:100AD000F8D39E687607F5D515E09D6805262E406B
:100AE000012E10D19D6802262E439E601C600D4C85
:100AF00025689E68F607D2D02668761B032EF8D3A9
:100B00009E68F607F5D08B6B10241C438C630B4654
:100B10003C33CC6B00250D5414431C6070BDC046A3
:100B20001800002048010020F0B587B00921C9064F
:100B30000191012700231E460397029021E0B44053
:100B4000019A1068A04310601C201840059D854044
:100B50000498C00880001018016AA9430162D06897
:100B6000A043D06050680699884350609068A043C5
:100B7000906002980146F9401B1DB61C7F1C00299D
:100B800028D07C1E0399A1400A460240F2D006916B
:100B90000C2119400F2505958D4021460324049111
:100BA000A143754808582842C9D1734808180090D5
:100BB0007049086890430860486890434860C86876
:100BC0009043C86088689043886000990868A8438B
:100BD0000860B4E707B0F0BDF0B58BB00F68002F28
:100BE00000D1C3E002466248824201D0052000E005
:100BF00003200090012400252B46019404910292C9
:100C00000CE03A43089B5B4802600F683846E040BE
:100C1000AD1C1B1D641C002800D1A7E0661E0198B6
:100C20000996B04007400597EFD0089303231A4672
:100C3000AA40D2430E46294675682E461E40771EAE
:100C4000012F07920691039412D81746029A9368CF
:100C50003B40049CE7688F401F439760EB06DB0F27
:100C6000099FBB40576887431F4357602C4607E0E6
:100C7000032E029A2C4603D11E46049F089B1FE0B8
:100C8000D068079B1840049FBB6806998B400343BC
:100C9000D360022E089B13D11C20184015460F224A
:100CA0008240099BDB089B00EB181E6A96433A6959
:100CB000824032431A622A46089B7C6803262640FB
:100CC000069DAE4010683946079F3840304310609B
:100CD000A003800F039C98D07C4A11680120014337
:100CE0001160116801400A910C271F400F23BB407F
:100CF00003260999B1430A9E1F4A8E589E43029AC1
:100D00001D4BC9180923DB069A4208D01B4B9A4297
:100D100006D01B488242009802D1022000E0002049
:100D2000B840304308601348826804994868C30299
:100D300002D5059F3A4301E0059FBA430D4B9A60E7
:100D4000DA68830201D53A4300E0BA43094BDA601E
:100D50005A68830301D53A4300E0BA43054B5A6011
:100D60001A68C00300D54CE7BA434BE70BB0F0BD9F
:100D7000000C004800040140080001400004004845
:100D800000080048BFF34F8F044805490160BFF3D6
:100D90004F8F00BF00BF00BF00BFFAE70CED00E0BF
:100DA0000400FA05F0B581B08648056801222A6280
:100DB0000221296204210091296210232B6208215B
:100DC0002962EFF3108582F31088092676010768FF
:100DD0003C68B4433C6085F31088EFF3108482F3E1
:100DE00010880568AE689643AE6084F31088046E80
:100DF000012C09D1EFF3108482F3108805682E6866
:100E00009E432E6084F310880468A468640630D57D
:100E1000EFF3108482F310880568AE684027BE4364
:100E2000AE6084F31088456F002D22D02E46203608
:100E300000276F637478022C11D12B681C6800970F
:100E40000E27BC431C601C6894431C60EB6B2C6C2D
:100E50001546A5405D60009B3370727009E03770E5
:100E6000009AAA63426F926B202A02D184214350D8
:100E70000CE05A220023835202680F241462946902
:100E80000C4394618021202242500366CB4800210C
:100E90000160416000F01CF801B0F0BD10B5494898
:100EA0000068C349884200D010BD0124A00307494F
:100EB0000A6882430A600C20FFF736FEE006C94943
:100EC0000860BFF34F8FBFF36F8F10BD1810024043
:100ED000F0B581B08023F848C15820290AD185682F
:100EE00001210A03954207D10469002C04D1B24CB8
:100EF000E40701D001B0F0BD0024046606687668FE
:100F000036020DD5EFF31085009581F310888E061B
:100F100007683D6835433D60009D85F3108885680E
:100F20005A26815358268153A34E46658466002D68
:100F300007D0954225460AD10569002D06D1DF4D1F
:100F400005E00569002D01D07F2500E0FF258426FE
:100F500084515C2405532224C450EFF3108381F3A1
:100F600010880468A5680D43A56083F310880369A1
:100F70008468944204D1002B14D0134A826603E0A3
:100F8000114A8266002B0FD0EFF3108281F3108894
:100F900009214901006803680B43036082F310884C
:100FA00001B0F0BD094A8266EFF3108281F3108828
:100FB0000068016820230B43036082F3108801B0AE
:100FC000F0BDC046A00000201D1500085B140008FD
:100FD000F0B583B07649884201D003B0F0BD754DBD
:100FE00029787548027875484254491C2970CBB25B
:100FF0000322022B13D34478062C0ED80123A340DE
:101000001C07A40F0BD11224234204D15B069B0FB3
:1010100003D0022203E0042201E000212970C9B2BA
:101020008A4200D9BFE041780678002401940094F8
:10103000102E02D3552E00D0B4E0491E052900D948
:10104000B0E0C0467944097949008F44021119295A
:1010500047675B4909788E4200D0A3E0408841BAD7
:1010600061480180028862498A4211D901800FE0FB
:10107000534909788E4200D094E08078534906E0C5
:101080004F4909788E4200D08CE080785049087032
:1010900050480078022800D07DE0684615217CE0A9
:1010A000552E03D0464909788E427BD145490C80A4
:1010B0004D490C808178454A1170C07844490870C8
:1010C0004448012101704948802202603C48007870
:1010D000864267D168460622027060E03848007890
:1010E00086425FD16F46052078703E703548018892
:1010F000090AB9700088F87033480068FFF7A2F950
:10110000787132480078387131480078B8713148C8
:101110000078F871002E45D0082140E0552E03D00C
:101120002748007886423DD125480078864205D17F
:10113000684606210170082100F05CF8EFF310808A
:1011400072B625480068254D2549884207D10120FF
:101150004002E9688143E9600320FFF7E5FCB348FA
:101160000068B34988420BD1012001022A698A43F1
:101170002A61C0041B490860BFF34F8FBFF36F8F14
:10118000FFF78CFEE04368606C6028602C60E861CB
:10119000EC61FFF7F7FD6846062101700121684602
:1011A00000F028F82C70FFF793FE03B0F0BDC046A6
:1011B00000380140390100203801002040010020A2
:1011C0001000002016000020340100201400002030
:1011D0000800002015000020180000200C1002401C
:1011E0000024014080E100E01200002000E100E066
:1011F000DE03000070B5304AD36F202B0BD10028DE
:1012000009D001231B0394689C4205D11469C307CC
:101210000ED0002C0CD170BD84230024D450502358
:10122000D1522123D3672B4B1B685223D1520CE0A0
:10123000842500235351502551532125D567254D31
:101240002D6852255153002C34D0002103465224DE
:10125000155B1068002D27D0184D0AE00B882B4035
:101260000385891C0023165B761E1653165B002E21
:101270001AD0C669360608D4C669360605D4C669CA
:10128000360602D4C6693606F3D5002BE6D01E78A2
:1012900006855B1CE7E7C169490608D4C1694906B0
:1012A00005D4C169490602D4C1694906F3D5202095
:1012B000D06770BD0146CAE7A0000020FF01000012
:1012C000FEE7FEE77047704702480168491C01606D
:1012D0007047C0464801002070470000F0B581B05B
:1012E00052480068C16802220B4613405C425C41D0
:1012F00003691A405542554125438026F243009226
:10130000002D06D1009A7E3202610022474C2277DE
:101310008269012204240C40674267415C0715463C
:1013200000D53D46002D06D1009C7C34046100248C
:101330003E4D2C77846908240C40674267411C07A6
:10134000154600D53D46002D06D1009C7834046139
:101350000024364D2C77C46910240C406742674145
:10136000DC06154600D53D46002D06D1009C7034A4
:10137000046100242D4D2C77C46901270C463C40A4
:1013800065426541DC07144600D02C46002C23D171
:10139000009C7F340461264CA0421DD1254C24784A
:1013A000002C19D0244C20252560C468BC43C4609F
:1013B0001F4C246A214D2C4208D11D4C246A204D1B
:1013C0002C4203D11A4D2C68BC432C603D24174D90
:1013D0002F550024174D2C700E40754275411C0688
:1013E000144600D52C46002C01D1009C04614024F9
:1013F0000C40654265415C06144600D52C46002C25
:1014000002D1009C40340461202421404D424D41D2
:10141000990603D4002A04D001B0F0BD2A46002A60
:10142000FAD100996031016101B0F0BD580000208F
:101430000020004030010020180000481111000079
:101440004404000080B5406A0146523100220A81FE
:1014500052214252FFF7A6FC80BD70B58021425850
:101460000168222A0FD102465A325388898C1940CA
:10147000436D19801188491E1180991C416511889E
:10148000002905D070BD8869082202438A6170BDB9
:1014900002468032EFF31083012181F31088092482
:1014A000640105682E68A6432E6083F31088EFF36D
:1014B000108381F310880468A5688D43A56083F3C9
:1014C00010882023136000224266826603685B68EE
:1014D0001B020AD5EFF3108381F310888C06056890
:1014E0002E68A6432E6083F31088036E012B11D162
:1014F0000266EFF3108281F3108803681C681021E4
:101500008C431C6082F310880068C269D206B9D58A
:10151000016270BD0068FFF75BFD70BD70B5802192
:1015200042580168222A10D102465A325388898CC7
:101530001940436D19701188491E1180416D491C75
:1015400041651188002905D070BD886908220243D1
:101550008A6170BD02468032EFF31083012181F36E
:1015600010880924640105682E68A6432E6083F361
:101570001088EFF3108381F310880468A5688D4309
:10158000A56083F3108820231360002242668266E0
:1015900003685B681B020AD5EFF3108381F31088A0
:1015A0008C0605682E68A6432E6083F31088036EB0
:1015B000012B11D10266EFF3108281F310880368CA
:1015C0001C6810218C431C6082F310880068C2697B
:1015D000D206B9D5016270BD0068FFF7F9FC70BD95
:1015E000F0B582B00568EB690B4000268B4202D152
:1015F000304602B0F0BD0190783000900120C70263
:10160000384C03E0EB690B408B42F1D023689B1A06
:101610005B0E32D12B685B07F4D5EB691B072FD427
:10162000EB693B42EED02F62EFF31080012282F390
:10163000108809214901019E33681C688C431C6095
:1016400080F31088EFF3108082F3108831688B6884
:1016500093438B6080F31088336E03202021012B8D
:1016600036D1EFF3108382F31088326814681025A6
:10167000AC43146083F310882AE0032002B0F0BD6D
:1016800008212962EFF3108280F3108809235B019F
:10169000019E346825689D43256082F31088EFF32E
:1016A000108280F3108833689C6884439C6082F3C6
:1016B0001088326E012A0BD1EFF31082012080F3E3
:1016C000108833681C681025AC431C6082F31088B6
:1016D000009B20229A6000223266B2661A70D9609E
:1016E00002B0F0BD48010020F0B587B0C5480668DB
:1016F000F36937682021384603910F407C427C41D2
:1017000001210691CA0215462F351D40203D691E54
:101710008D4125430496B5684AD011460F31059393
:101720000B42034606D0B8491940012635406918D6
:1017300000D082E01026194631404D424D41059AB5
:10174000114631404F424F41E449096E0129069C40
:1017500000D13C46002C069C049800D12C46002C5D
:101760002FD080211940484248411106069C00D5DF
:101770000446002C00D1E6E0402003405C425C417E
:10178000510600D5069406990029D44C00D036E1C4
:10179000EFF31081012282F31088226813688343DB
:1017A000136081F310880020E0660398E06726E16B
:1017B000CA48816E002900D121E1C848884707B096
:1017C000F0BD06628068400600D5C1E05A22C34DD4
:1017D000A85A5821695AAA5A002A00D10FE1814219
:1017E00000D10CE1EFF31081012080F31088092271
:1017F00052012B681C6894431C6081F31088EFF33E
:10180000108180F310882A6893688343936081F382
:1018100010888021039A6A500021A9662966EFF397
:10182000108180F3108828680268B243026081F357
:1018300010880220686607B0F0BD0192310219409D
:101840004C424C410599C907069800D02046002813
:101850000296049807D106628421A04A5458029E39
:1018600034435450029E6C426C4105998907069995
:1018700000D5214600290AD1022101628421974A1C
:10188000545800940424009E34435450029E6C42E9
:101890006C4105994907069900D52146002908D1D0
:1018A0000421016284218D4E725802241443745025
:1018B000029E3D436C426C4105990907069D00D587
:1018C0002546002D07D1082101628424834E355915
:1018D0000D433551029EB1060B405C425C410599B7
:1018E000019A1142069B00D02346002B7B4C06D167
:1018F0000199016284216358039D2B436350842521
:101900006159002900D17AE00399059A0A407B4287
:101910007B41002A00D006930699002905D1A16ECB
:10192000002902D0204688472068615928220A40B1
:10193000816840200140891868D1FFF733FA002000
:10194000605107B0F0BD6548C16E002957D034E73B
:10195000624F796F0868426890B200284FD05823D0
:10196000FB5A98424BD25A203A528969202900D119
:10197000A9E0EFF31082012181F31088594B203345
:101980003C6825681D40256082F31088EFF31082C3
:1019900081F310883B689C688C439C6082F31088BC
:1019A000EFF3108281F310883B689C684025AC43BC
:1019B0009C6082F310888022039BBB5000223A6611
:1019C000EFF3108381F310883C682568B5432560E8
:1019D00083F310887D6F2B4620335C78022C6ED108
:1019E0002C6826680E27BE43266026688E43266034
:1019F000EC6B2D6C0E46AE406660597061E007B02E
:101A0000F0BDC046A000002020010004EFF31081CB
:101A100086F310880922520123681C6894431C60D5
:101A20002E4C81F31088EFF3108186F31088226822
:101A30009368B343936081F31088216E01290BD121
:101A4000EFF3108186F31088226813681024A343F3
:101A5000224C136081F310888021039A6250002188
:101A60002166A16622689268520624D5EFF310829F
:101A700086F31088236825469C6884439C6082F323
:101A80001088686F002816D002462032144B43633A
:101A90005378022B1CD103681C680E25AC431C60D4
:101AA0001C68B4431C60C36B046C3546A5405D6084
:101AB000117056700EE0FFF775F907B0F0BD042104
:101AC000A9631A70054F02217966385A07B0F0BD34
:101AD00004218163FFF7B6FC07B0F0BDA000002031
:101AE00045140008DFFEFFFF00B599B0D24A106828
:101AF00010210491084310607D20C100FA4800685D
:101B00001291FEF7E8FC401E010EF84C10D1F84986
:101B10004860F8480268224003239B07D2180260FD
:101B200000228A6007220A6001682140C91801600A
:101B3000F14F786901210843786178690840149071
:101B400014980E07B8693043B861B86930401490F2
:101B500014980B910804059038680007800F0AD08C
:101B600038680C210140082900D067E138680599E0
:101B7000084200D062E1381F0068381F01688022E7
:101B8000069211437822109291430160396A0B9AB0
:101B900011433962D94909683A6A920720D4D74A71
:101BA0001268521A022A00D96FE13A6A920717D4D2
:101BB000D24A1268521A022A00D966E13A6A92079A
:101BC0000ED4CE4A1268521A022A00D95DE13A6A4E
:101BD000920705D4C94A1268521A022ADCD954E184
:101BE000396B0422089211433963396B0B9A114304
:101BF0003963C24909683A6B920720D4BF4A126818
:101C0000521A022A00D940E13A6B920717D4BB4A14
:101C10001268521A022A00D937E13A6B92070ED4A1
:101C2000B64A1268521A022A00D92EE13A6B92077C
:101C300005D4B24A1268521A022ADCD925E1396B5E
:101C4000069A1143109A914339633A680C21119115
:101C50000A400B9B5906082A00D08EE03A68BB6AFE
:101C6000059D2A4200D010E10F252B4000D00CE149
:101C7000AB041A400523DB049A4200D005E1994ADF
:101C80001268D20707D1974C2268012313432360BF
:101C90002268D2073AD007220E9212023B68134301
:101CA0003B603B68F025AB43944D3B6000680842C5
:101CB0002CD038680221099108430B998843386079
:101CC0002868F5493B68119C2340082B3CD02B68C1
:101CD0001B1A8B421AD83B68119C2340082B33D027
:101CE0002B681B1A8B4211D83B68119C2340082B90
:101CF0002AD02B681B1A8B4208D83B68119C2340C2
:101D0000082B21D02B681B1A8B42DBD9EFF31080F4
:101D100072B6F7480068F749884207D101204002AF
:101D20007969814379610320FEF7FEFEF24800687D
:101D3000F249884200D0C9E0012001023B46BA695D
:101D40008A43BA61C004BBE06648006838689043C3
:101D500038603B681946119A1140F6480829054633
:101D600000D0D4E09902090FF34A555CB96A059A8C
:101D7000134200D0C4E0F148C8E01A060368934358
:101D800003605E4A126803680B421DD05B4B1B6800
:101D90009B1A022B79D803680B4215D0574B1B684E
:101DA0009B1A022B71D803680B420DD0534B1B6852
:101DB0009B1A022B69D803680B4205D04F4B1B6856
:101DC0009B1A022BDFD960E0BA6A0F239A43BA62EA
:101DD0003D2212043B6893430522D2049A183A60CC
:101DE000424A521C036813430360444A1268036862
:101DF0000B4200D043E7414B1B689B1A022B44D88F
:101E000003680B4200D03AE73C4B1B689B1A022B3D
:101E10003BD803680B4200D031E7384B1B689B1A54
:101E2000022B32D803680B4200D028E7334B1B68E3
:101E30009B1A022BDBD928E000200240381F0168E2
:101E40000B9A114301602D490A6803689B0700D56E
:101E500093E60B689B1A022B17D803689B0700D5E3
:101E60008BE60B689B1A022B0FD803689B0700D5E3
:101E700083E60B689B1A022B07D803689B0700D5E3
:101E80007BE60B689B1A022BDFD9EFF3108072B64A
:101E9000A4480068A449884207D10B984002796998
:101EA000814379610320FEF73FFEA0480068A04906
:101EB00088420BD10B9A1002B9698143B961D004F1
:101EC0009F490860BFF34F8FBFF36F8FFEF7E6FFA8
:101ED0000020C143F960F860B960B8607962786247
:101EE000FEF750FF0020024004000020FFFFFF002B
:101EF00010E000E020ED00E0041002404801002066
:101F00000F2211408F4A515CFEF7E5FA45430196D6
:101F100038680006000F8CA1085CC5408E4805603B
:101F200028461299FEF7D7FA401E8C4CA04210D8D2
:101F30008B4948608B480268224003239B07D218D4
:101F4000026000228A600E9A0A6001682140C91866
:101F50000160F86A03210A918843F862002418940A
:101F600017940B9E710438690843386138690391EE
:101F7000084013901398B0043969014339613969F5
:101F80000140139113980920C1060D9120278F61FC
:101F9000099816901120000415900498149014AD1F
:101FA00008462946FEF718FE0A98179016961596C9
:101FB0000F9714970D9F38462946FEF70DFE16968B
:101FC0001594C020149038462946FEF705FE169653
:101FD0001594099E149664482946FEF7FDFD169651
:101FE00015940A984002149038462946FEF7F4FDED
:101FF0005E4B18685949084018605D4906980860AA
:102000005C4F5D4D4B20C0013D607860BC60FC6062
:102010003C61119A7A61BC61FC613C627C62F86F40
:102020000028129400D1C4E02420F86728680B9996
:10203000884328600A9E286850490140B8683A6978
:1020400002437B6913430B43F86903432B60344617
:1020500031036A688A43F96811436960B9693A6A69
:102060000A430B210902AB688B431343AB6044491D
:10207000C96A8907090F43A251580B9BDA030292E0
:1020800090422AD108292B4A01D900F0A3FC264608
:10209000880002A10858874688130000C120000864
:1020A000D52900083F230008D52900083B22000855
:1020B000D5290008D5290008D52900086122000883
:1020C000254802682E4800684005400F3149085CE9
:1020D000C240002A00D032E161E10829154A01D945
:1020E00000F078FC2646880005A108588746C046BF
:1020F000180000200024014058000020002000406B
:1021000099210008D529000883230008D529000853
:1021100065220008D5290008D5290008D52900081E
:102120008D220008180000200024014058000020E3
:102130000020004000127A006030000800093D00D5
:1021400080E100E0703000080000000000000000A6
:10215000010203040607080904000020FFFFFF0036
:1021600010E000E020ED00E00004004804E400E09E
:1021700000E100E0A000002000380140F369FFFF0B
:1021800004100240000000000400000008000000ED
:102190000200000080300008E7480268E748006855
:1021A0004005400FE649085CC240002A00D0E8E044
:1021B000F5E010983C541D46012318939803DF4E18
:1021C000716901437161716901401391139830691C
:1021D0000399084330613069084013900A9E1796AE
:1021E00016941C46099815901492139814A90D98EA
:1021F000FEF7F2FC6869D3490840D3494018401CF7
:102200006861E006D14908602420F867786A3D6873
:102210002968A1432960002800D10CE7010737D4C1
:10222000C1073DD1810743D4410749D4C1064FD4EA
:10223000810655D441065BD468E0C04B18681199FB
:10224000014008297BD13C4637468102090FC04A2C
:10225000565C996A059A104262D1BE48704368E0A4
:10226000029A6CE0B54B186811990140082900D01A
:1022700087E03C4637468102090FB54A565C996AA9
:10228000059A10426ED1B348704374E0029A78E028
:10229000E1036A688A43796B11436960C107C1D061
:1022A00061046A688A43B96A114369608107BBD5D2
:1022B00021046A688A43F96A114369604107B5D508
:1022C000A1046A688A43396B11436960C106AFD5BE
:1022D0002103AA688A43B96B1143A9608106A9D575
:1022E0006103AA688A43F96B1143A96041060DD5C1
:1022F00021056A688A433B6C1A436A608B4205D1A8
:1023000071056A688A43796C11436960000600D4DC
:1023100091E6E00469688143B86C084368608AE626
:102320000F2001408C48415C8C48FEF7D4F84643AE
:1023300030463E46274602460B9B002A2FD05000CF
:1023400079684A081018FEF7C6F80B9B0246103A47
:10235000059910398A4200D33CE301400007400F41
:1023600008431BE00F2001407B48415C7B48FEF79F
:10237000B2F8464330463E46274602460B9B002AAB
:102380000DD0796848088018FEF7A5F80B9B014628
:102390001039059A103A914200D31BE3E8603A469F
:1023A0003746D802696881436960A86808210791A7
:1023B0008843A86028681843286084201299115027
:1023C00091661446D16666480668286800070AD5F3
:1023D0005905644D28463246FFF702F9002800D01F
:1023E0003EE32D680B9B2868400709D599055D4D94
:1023F00028463246FFF7F4F80B9B002800D03EE356
:102400000F992246E167069821501E46129C1098AB
:10241000145414665466FEF75BFD2420524B119051
:102420001C549E621C6235021095C1354F4811C381
:102430001C605C609E600898083B1946143131C1ED
:1024400070020C90986B00281DD134201C54DC6362
:1024500018941794394A50690C990843506150698F
:10246000084013901398106903990843106110698C
:1024700008401390169415971497139814A90D9863
:10248000FEF7AAFB384B19463831986BC00600D5C9
:10249000B1E218688268520700D5ACE23449FE31D7
:1024A0009A6B0A40911C996381683940012906D1D1
:1024B0000168C90711D1C168029A11420DD1C168E2
:1024C000182291435A68284B9B680B43C360B90795
:1024D00003698B4313430361234BC168254A0A40B8
:1024E000C260996A491E4A1E914109031A7E9203ED
:1024F0001F465B7EDB031343BA7E54031C43FB6819
:102500003E6923430B43B11E4C424C41A4001C4383
:102510001199795C49002143FB7E012B2ED1002AC1
:102520002AD0114CA26B0F9B1A43A263E26B0123CA
:102530001343E363234622E004000020041002401A
:1025400080300008FFFFFF00FFFFFF3F00E100E0D9
:102550006030000800093D007030000800127A0069
:1025600048010020A00000201800002000240140A5
:10257000FFFDFFFF1902FEFF059A1143BD4BBE4F41
:10258000DA69AA4204D0BB4B1B6A1943B94B114309
:10259000BA4CC2680A43C260DA6A531E072B00D3E2
:1025A00013E243690E9DAB4343612A4043691343E1
:1025B0004361C068B24A02408A4200D010E20B98E0
:1025C0000503AC4A1298D06301261496906B3043F1
:1025D0000999884390630E981690159514A8FEF7F4
:1025E000EFF80028119600D024E2A64AA648106011
:1025F000A6481060129850600B95681E9060216884
:10260000D2685207A24D099B0AD19E4A1169A14C7A
:1026100081422BD114602AE09A4AD2685207F4D042
:10262000964A1268521A282AF6D3964AD268520756
:10263000F2D0994FEFF3108072B68E480068974938
:10264000884206D17869964A104078610320FEF7E7
:102650006BFA94480068A84200D050E2119B18021F
:102660003A46B9698143B961D80442E210618D48A4
:10267000129C846163212F22056042608460C160E6
:1026800004613D21425C002A15D13C22129C8454F5
:10269000814A3E4617469269109C2243BA61BA6944
:1026A00022401492149AF2687F4C2240F260119AF0
:1026B000D2047E4C226043540269069B9A430E9BCF
:1026C000DB012C689C431443826922432A60C26860
:1026D000EA624268AA62119A6A612A69D20703D043
:1026E0002A69119B9A432A614622119B83543E22F8
:1026F000835402463E3253709370D3704222835407
:102700000246423253709370D3704354425C012AA4
:102710000D9B08D1099A4254E86811990843E86072
:10272000286808432860554C564F5A4A00E03A60E2
:102730005F480078012848D000285DD15D4D12988F
:1027400028700F9898611869400503D52878119969
:102750000843287018690C99084203D02878099911
:1027600008432870EF480069800703D42878089947
:10277000084328701869000603D42878079908438D
:1027800028701869400603D4287810210143297065
:10279000F04812990180EE480180EC4801702068F1
:1027A0002168091A64290BD82168091A642907D8F5
:1027B0002168091A642903D82168091A6529EFD309
:1027C000E048119901703A60B2E72068DE49096873
:1027D000401ADE490978884278D33E462068DA49B3
:1027E0000860DB480188DB4F3A880088914263D259
:1027F000401CD34A374667E0D548129901802068CB
:10280000D5490968401A1099F33188428FD9206858
:10281000D14908600E9816900B9815901198149055
:1028200014A8FDF7CDFFFEF7B1F8FEF75FF8BF483B
:102830000068046CFEF71CF9A0B2FDF7F5FDC74A6D
:10284000C74BFDF711FDFDF72AFEFDF714FE044608
:102850000E4600220A92C34BFDF706FD07460D46C1
:10286000C148C24922463346FDF7F0FC02460B46FA
:10287000384666E01800002004E400E0480100202B
:10288000E7FF3F8300300040CCCC000055550000EE
:1028900000200040AAAA00000410024000240140C9
:1028A000FFFDFFFF58000020FFFFFF0000E100E0F8
:1028B000150000201000002039888842A04A3746C1
:1028C00004D9A3480088401EA14908802068A24975
:1028D0000968401A1099F331884200D827E7206828
:1028E0009D4908600E9816900B98159011981490B9
:1028F00014A8FDF765FFFEF749F8FDF7F7FF8B48D1
:102900000068046CFEF7B4F8A0B2FDF78DFD934AA1
:10291000934BFDF7A9FCFDF7C2FDFDF7ACFD0746A3
:102920000E4600220A928F4BFDF79EFC04460D4690
:102930008D488E493A463346FDF788FC02460B46E1
:10294000204629467D4F754CFDF7F6FCFDF7A7FDA7
:10295000FDF791FD864A874BFDF786FC00F0B6F93E
:10296000854A864BFDF780FC854A864BFDF7CAFBFE
:1029700002460B460A988449FDF7DEFCFDF78FFD01
:10298000FDF779FD784A814BFDF7BCFBFDF787FD2C
:102990007F490860FDF756FD694A0D9B7D4909781E
:1029A000884200DCC3E667480078022800D1BEE612
:1029B00009986449087006985F490860BFF34F8F13
:1029C000BFF36F8F0F989861B1E6019B9A4200D1D7
:1029D000E7E5EEE53946504F12988866C8666CE028
:1029E000524B986B10210143099881439963194612
:1029F0003C310B980490484F0868049A10430860D3
:102A0000EFF3108072B618684549884206D178699C
:102A10000C9A904378610320FEF786F844480068DA
:102A2000444988426BD13946B869109A9043B861DD
:102A30000B985DE0384FEFF3108072B63B480068AA
:102A40003749884206D17869374A104078610320B7
:102A5000FEF76AF836480068364988424FD1FDE5EE
:102A60002D4FEFF310800B9981F3108829680A68C5
:102A7000069B9A430A6080F310887C3518E0264F45
:102A8000EFF3108083F310882749E0312A681E464F
:102A900013680B40136080F31088EFF3108086F307
:102AA000108829688A68B2438A6080F3108880356C
:102AB0001298109960540F982860EFF3108072B646
:102AC0001A4800681649884207D1012040027969F6
:102AD000814379610320FEF727F8154800681549FE
:102AE00088420CD1012001023B46BA698A43BA618F
:102AF000C00411490860BFF34F8FBFF36F8FFEF71B
:102B0000CDF91299C843F860F960B860B96078628D
:102B10007962FEF737F9C0460410024048010020F0
:102B20000024014000040048FFFDFFFF18000020C2
:102B3000580000200020004080E100E0003000400C
:102B4000AAAA0000150000202C010020140000207B
:102B5000160000201200002028010020B4D934E71C
:102B60000C684A3F006AF8406666666666660A4018
:102B7000F168E388B5F8E43E81D91E7E6597303F61
:102B800083DBB5DCE1796B3F0000F03F661271C07A
:102B900034010020080000202021020C01D0102167
:102BA0001046020A01D010460839020901D0104629
:102BB000091F820801D01046891E420801D0881ED4
:102BC0007047081A7047F8B504464F1EC800083809
:102BD000211815461E46086849683A4606239A4356
:102BE00010D02A463346FDF73FFB3A46D200083A5A
:102BF000A3181A687F1E5B68FDF784FA06223B461D
:102C00009343EED1022F23D0042F11D0062F2FD1C2
:102C10002A463346FDF728FBE36AA26AFDF772FAFB
:102C20002A463346FDF720FB636A226AFDF76AFAFB
:102C30002A463346FDF718FBE369A269FDF762FAFD
:102C40002A463346FDF710FB63692269FDF75AFAFD
:102C50002A463346FDF708FBE368A268FDF752FAFF
:102C60002A463346FDF700FB63682268FDF74AFAFF
:102C7000F8BD0000002210B5134610460149FDF7CB
:102C80005BFB10BD0000F03F10B50122FDF705FD14
:102C900010BD002210B5134610461146FDF74CFB3F
:102CA00010BD02E008C8121F08C1002AFAD17047FF
:102CB0007047002001E001C1121F002AFBD17047BC
:102CC000014908607047000000000020F0B5C54AC7
:102CD00000248FB091420ADA4B005B08934206D879
:102CE00001254A006D05EA4205D1002803D0FFF70F
:102CF000CBFF0FB0F0BD01252D05A94219DA034322
:102D000008D0002910DA0120FFF7DAFFFFF7C1FF32
:102D10000FB0F0BD0220FFF7D3FFFFF7ABFF01229A
:102D2000D20751400FB0F0BD3524E4433622FDF701
:102D3000B4FC0A15AC4B1219D4180A03120BAB4998
:102D4000AB4B56182E403146594011430192321573
:102D500012190B920022FDF779FA019A0446921C8F
:102D60001003A44E000B0D467E44032860D220467B
:102D700073683268FDF7BCFC1CD10B98002815D095
:102D8000FDF7A2FC04460E469B4A9C4BFDF76CFAED
:102D90000D4607469A4A9B4B20463146FDF764FA9A
:102DA0003A462B46FDF7AEF90FB0F0BD71683068BA
:102DB0000FB0F0BD944A954B20462946FDF754FAD2
:102DC0000022934BFDF748FA06460F4622462B4653
:102DD00010461946FDF748FA32463B46FDF744FADD
:102DE00006460B980F4600281DD0FDF76DFC824A61
:102DF000824B05910490FDF737FA32463B46FDF7CA
:102E00002BFA22462B46FDF721FA04460D467C4A52
:102E10007C4B05990498FDF727FA22462B46FDF7CF
:102E200015FA0FB0F0BD0B46324620462946C4E0E5
:102E3000012300229B072046FDF764F902460B465A
:102E400020462946FDF778FA06460F460B98FDF70F
:102E50003BFC32463B460591049010461946FDF76F
:102E600003FA09910C906B490198099B4218009252
:102E70000C9A19461046FDF7F7F9024607910A9099
:102E8000654901980B1A6548019303217844079B13
:102E9000FFF799FE079B0A9AFDF7E6F90E905F4847
:102EA0000D9104217844079B0A9AFFF78CFE099B39
:102EB0000C9AFDF7D9F9019B009A1A4300920D9BD9
:102EC0000E9AFDF71FF9009A01910C90002A4DDD32
:102ED0000022D24320462946FDF7DFFB22462B463F
:102EE000FDF7C2F900910A900B9800282BD0424AB6
:102EF000424B05990498FDF7B7F907910E90019B95
:102F00000C9A00990A98FDF7FDF832463B46FDF70A
:102F1000ABF9079B0E9AFDF7F5F8009B0A9AFDF7AF
:102F20009BF922462B46FDF791F904460D46344A9B
:102F3000344B05990498FDF797F922462B46FDF787
:102F400085F90FB0F0BD019B0C9A0A98FDF7DAF8ED
:102F500032463B46FDF788F9009B0A9AFDF77CF95B
:102F600022462B46FDF778F90FB0F0BD0B980028EC
:102F700027D0214A214B05990498FDF775F907914F
:102F8000009020462946019B0C9AFDF75FF93246D6
:102F90003B46FDF769F9079B009AFDF757F9224672
:102FA0002B46FDF753F904460D46154A154B059976
:102FB0000498FDF759F922462B46FDF747F90FB063
:102FC000F0BD0B46204629460C9AFDF73FF93246E4
:102FD0003B46FDF749F922462B46FDF73DF90FB078
:102FE000F0BD00000000F07F01FCFFFF645F0900FE
:102FF0000000F03FEC020000763C7935EF39EA3D05
:103000000000E0FE422EE63F555555555555D53F3B
:103010000000E03F86EBF9FF51B806009001000088
:1030200004FA97999999D93FAF788E1DC571CC3F15
:103030009FC678D0099AC33F935555555555E53FDE
:10304000599322942449D23FDE03CB966446C73F6E
:1030500044523EDF12F1C23F0000000000000000B9
:1030600002030405060708090A0B0C0D0E0F1010C9
:103070000102030405060708090A0B0C0D0E0F10C8
:103080000000000001020304A83000080000002036
:1030900010000000A22C0008B8300008100000202A
:1030A00040050000B22C00080000000000127A0069
:0830B0005A00000000000000BE
:04000005080000B13E
:00000001FF
