:020000040800F2
:1000000050050020C5000008BB120008B912000806
:1000100000000000000000000000000000000000E0
:10002000000000000000000000000000BF120008F7
:100030000000000000000000BD120008C11200080E
:10004000D700000800000000D7000008D700000813
:10005000D7000008D7000008D70000083D070008B7
:1000600000000000D7000008D7000008D7000008F3
:10007000D7000008D7000008D700000800000000E3
:10008000D70000080000000000000000D5120008A2
:1000900000000000D7000008D7000008D7000008C3
:1000A00000000000D700000800000000E116000872
:1000B0000348854600F014F800480047E11A00089C
:1000C000500500200448804704480047FEE7FEE74B
:1000D000FEE7FEE7FEE7FEE7D1120008B1000008E8
:1000E000064C0125064E05E0E36807CC2B430C3C8B
:1000F00098471034B442F7D3FFF7DEFF20300008F2
:1001000040300008F0B507460846584087B0C00F99
:10011000049048000E46590040084908BC1A88411E
:1001200005D2384631461E4617460B460246580051
:10013000400810434CD0300D039040055900400D4D
:10014000490D0590401A0290402872DA18030121E7
:10015000000B09050843019004980092002805D07F
:10016000019952420020884100920190029840215A
:100170000A1A0199009800F0CDF905460C466B4625
:1001800007CB00F0D7F9C0197141039A0E0D002377
:10019000D71756401A467A40164344D0049A002A8C
:1001A0002DD0029A012A039A15DC1205C01A91413A
:1001B00001263605001C7141D20F059ED20700931F
:1001C000019202962A46234600F015FA07B0F0BDC8
:1001D00038463146FAE71605224A0F46B218C01AC9
:1001E000B74101210905001C4F4100187F4111460C
:1001F00018187941E20F10436D19644113E0E207CA
:100200006D0815436408C2071443039A01261205BA
:10021000C01A91413605001C7141CE074008304399
:100220004908C01851412A46234600F0D7F9CDE7C6
:10023000FFE7049801224000C117121A00238B41E6
:1002400004983146C417381AA141EEE730B40124AE
:10025000E407634030BC55E730B40124E407614053
:1002600030BC4FE70000E0FFF0B51FB488B00B9939
:100270000998002448400999C00F4900490809918C
:10028000C0070B990090490049080B9109990898FB
:10029000A64608431CD00B990A98084318D0099821
:1002A00001244000420D4800410D09982405000337
:1002B000000B204309900B980003000B20430B9088
:1002C00050181C494018002201901446104605E0C1
:1002D000002001460DB0F0BD032801DA034600E01E
:1002E00003239C46C11A0AAE0AE05F0008ADED5B2D
:1002F0004F00F75B7D430027AA187C41491C5B1E19
:100300006145F2DD410004AB5A522104120C0A434C
:10031000240C401C0828DFDB0198029000997046ED
:1003200001910090059B049A0799069800F063F9E3
:10033000D0E700000DFCFFFFF0B50C465C4085B037
:10034000E40FE40703944C00002664085900944627
:10035000490802460296224321D062460A431ED033
:100360006200570D4A000E032303550D0124024677
:100370002C492405781B1B0B360B401823432643BE
:10038000614600901C46501AB44103D30098401CAB
:10039000009002E0921800985B41002803DA0020E8
:1003A000014605B0F0BD002001210905074686463B
:1003B00011E064461D46141BB54106D36546521B29
:1003C000B341744607430C43A646CD07400849088D
:1003D000284392185B4105460D43EAD11046184365
:1003E00013D06046194650407140084306D060461D
:1003F000101AB34106D20122002306E00022012395
:10040000DB0702E00122D243531000987446010535
:10041000381C6141029C039D0019694100F0DEF81F
:10042000BFE70000FD0300000EB505490291002161
:1004300000910A460B46019100F0DDF803B000BDC3
:1004400033040000C20F410040020123400ADB05D3
:10045000D207090EC0187F2901DA002070479629BB
:1004600003DC9623591AC84001E096398840002AD7
:10047000F4D040427047C20FD207400040080BD072
:10048000C10D0723DB01C91840020905400A1143C9
:10049000C208400711437047002001467047CB0F48
:1004A000DB07490010B5490802460A4307D00A0D88
:1004B00007240903E401090B121B002A01DC0020B8
:1004C00010BDC900440F0C43C100E018D2058018CC
:1004D00000F043F810BD70B50446002903D0002099
:1004E0002022012310E0002801D00020C043C04694
:1004F000C0460DE02546D5408D4205D30D469540BA
:10050000641B1D46954040191546521E002DF1DC16
:10051000214670BD10B5202A04DB0146203A9140E7
:10052000002010BD914020239C1A0346E34019434C
:10053000904010BD10B5202A06DBCB170846203AA4
:100540001041C1170B4306E00B461341D040202455
:10055000A21A91400843194610BD002904DA401C34
:10056000490001D140084000704770B40024050CD8
:1005700005D11024000402D1002921D01124050E38
:1005800001D100020834050F01D10001241D850F9F
:1005900001D18000A41C002801DB4000641C00295C
:1005A00008D020252E1B0D46F540A14000D001218A
:1005B0002943084301061B1B000ADB1D02D500204E
:1005C00070BC7047DB05181880180029F8DA401C49
:1005D0004900F5D170BC40084000704710B5002BB1
:1005E00008DA0024401C614192185B411A4301D192
:1005F0004008400010BDF0B51FB482B005460C00A5
:1006000003D0084602F094FA02E002F091FA20309A
:100610000246009021462846FFF77CFF049B059A7E
:1006200004460F4618431143084314D0184610439C
:100630001BD0009840210A1A1846059900F06CF862
:1006400005460E46009A05990498FFF763FF084394
:1006500005D0012004E02046394607B0F0BD002057
:10066000C11705430E432C43374300990E98630589
:10067000401A7905E40A00220C43FD0A0A3002D52B
:1006800000200146E9E70105101969410C9C0D9D08
:1006900000196941FFF7A2FFDFE770B54B005B0867
:1006A00003430BD04B005C0D002633466542B3413B
:1006B000D417AD1AA34102DB0020014670BD12051C
:1006C0003018514170BD00000EB5C217C10F504027
:1006D000CA0740180021054B0293019200910A4677
:1006E0000B46FFF788FF03B000BD00003304000095
:1006F00010B5002904DB0124E40740428C41214667
:10070000002B04DB1C460123DB075242A3418B4232
:1007100000D1824210BD000010B5202A04DB08463B
:10072000203AD040002110BD0B46D340D0402024B9
:10073000A21A91400843194610BD000010B519488F
:100740000168C9062CD510210160174908880028C6
:1007500026D0164820220260154A012010700B880E
:10076000144A116800244C620A245C43A3B2CB6291
:10077000D3603D23D45C012C12D10224D454CA6826
:100780000243CA600C4A914202D00C4A914204D101
:100790008A6807231340062B02D00A6802430A60C6
:1007A00010BDC04614040140160000202800004877
:1007B0003001002058000020002C014000040040BF
:1007C000F0B583B0002402943427D54EF15D0129A1
:1007D00002D1022003B0F0BD33689968490716D4EE
:1007E000019744C801252F4697403C4908388E425E
:1007F00013D1986AB84398621046A843102820463F
:10080000C74E019F67D1102A1AD0374819E0B06B44
:1008100020210143B16301205DE0996A3943996267
:10082000BF4EF76A791E07293FD21046A843102809
:100830002046019F4FD11346102A08D0A80507E093
:10084000284827490A6802400A60204643E0E80534
:1008500023490A6802430A60102B20463BD1814895
:1008600000688149FFF737FE0A214143029102984F
:10087000002820462FD00298401E0290029800289F
:1008800024D00298401E02900298002820D002989E
:10089000401E0290029800281CD00298401E029030
:1008A00002980028E7D1204615E029078F42BCD0E6
:1008B00059690727394080688842B6D05969B943D9
:1008C00059613840596901435961AEE7204602E059
:1008D000204600E02046F45503B0F0BD01100000B2
:1008E00008270140FFFF7FFFFFFFBFFF10B58C48C7
:1008F00001684269082A01D1082203E0CA68D207C8
:100900002BD10C22874B1B680B68134208D10B6854
:10091000134205D10B68134202D10B681342F3D086
:1009200001225302846B1C438463CB681B059B0F1D
:1009300024D1837E002B21D10B681B071ED58B6829
:100940005B0712D44B680C24A3434B60FF24023492
:10095000836BA343044638340EE034210022425412
:10096000816B20220A43826310BD836B20241C43C9
:10097000846304463C34C36B13432360007E002829
:1009800000D010BD0C20086010BDC046F0B581B08D
:10099000634C2568A86840075FD43427E05D0128D0
:1009A0005BD00126E655607E012847D000200090EC
:1009B000A86803210140012905D12868C0073DD15D
:1009C000E86800043AD4A8682549084208D0A06B1A
:1009D00010210143A163E06B3043E06301B0F0BD3F
:1009E000A8683043A8601F4800681F49FFF773FDDF
:1009F00000900098002814D00098401E00900098A5
:100A000000280ED00098401E00900098002808D0C2
:100A10000098401E00900098002802D00098401EC8
:100A2000E6E7404801682A68D20707D10268521AEF
:100A3000032AF8D32A68D207F5D1C8E70020E05589
:100A4000A16B0A4A0A4031025118A163E0631C20DD
:100A50002860A86804210143A96001B0F0BDC04628
:100A6000170000800400002040420F00FEF0FFFF4E
:100A700070B534202A490A5C012A4FD001220A5459
:100A80000B689C68640711D49D6803242540012DE0
:100A900005D11D68ED0720D1DD682D041DD4FF238D
:100AA00002338C6B9C430B46383333E09C686407FD
:100AB00006D59C68A40703D49C68102525439D6037
:100AC000184C25689E687607DED52668761B032EAF
:100AD000F8D39E687607F5D515E09D6805262E406B
:100AE000012E10D19D6802262E439E601C600D4C85
:100AF00025689E68F607D2D02668761B032EF8D3A9
:100B00009E68F607F5D08B6B10241C438C630B4654
:100B10003C33CC6B00250D5414431C6070BDC046A3
:100B20001800002048010020F0B587B00921C9064F
:100B30000191012700231E460397029021E0B44053
:100B4000019A1068A04310601C201840059D854044
:100B50000498C00880001018016AA9430162D06897
:100B6000A043D06050680699884350609068A043C5
:100B7000906002980146F9401B1DB61C7F1C00299D
:100B800028D07C1E0399A1400A460240F2D006916B
:100B90000C2119400F2505958D4021460324049111
:100BA000A143754808582842C9D1734808180090D5
:100BB0007049086890430860486890434860C86876
:100BC0009043C86088689043886000990868A8438B
:100BD0000860B4E707B0F0BDF0B58BB00F68002F28
:100BE00000D1C3E002466248824201D0052000E005
:100BF00003200090012400252B46019404910292C9
:100C00000CE03A43089B5B4802600F683846E040BE
:100C1000AD1C1B1D641C002800D1A7E0661E0198B6
:100C20000996B04007400597EFD0089303231A4672
:100C3000AA40D2430E46294675682E461E40771EAE
:100C4000012F07920691039412D81746029A9368CF
:100C50003B40049CE7688F401F439760EB06DB0F27
:100C6000099FBB40576887431F4357602C4607E0E6
:100C7000032E029A2C4603D11E46049F089B1FE0B8
:100C8000D068079B1840049FBB6806998B400343BC
:100C9000D360022E089B13D11C20184015460F224A
:100CA0008240099BDB089B00EB181E6A96433A6959
:100CB000824032431A622A46089B7C6803262640FB
:100CC000069DAE4010683946079F3840304310609B
:100CD000A003800F039C98D07C4A11680120014337
:100CE0001160116801400A910C271F400F23BB407F
:100CF00003260999B1430A9E1F4A8E589E43029AC1
:100D00001D4BC9180923DB069A4208D01B4B9A4297
:100D100006D01B488242009802D1022000E0002049
:100D2000B840304308601348826804994868C30299
:100D300002D5059F3A4301E0059FBA430D4B9A60E7
:100D4000DA68830201D53A4300E0BA43094BDA601E
:100D50005A68830301D53A4300E0BA43054B5A6011
:100D60001A68C00300D54CE7BA434BE70BB0F0BD9F
:100D7000000C004800040140080001400004004845
:100D800000080048BFF34F8F044805490160BFF3D6
:100D90004F8F00BF00BF00BF00BFFAE70CED00E0BF
:100DA0000400FA05F0B581B08648056801222A6280
:100DB0000221296204210091296210232B6208215B
:100DC0002962EFF3108582F31088092676010768FF
:100DD0003C68B4433C6085F31088EFF3108482F3E1
:100DE00010880568AE689643AE6084F31088046E80
:100DF000012C09D1EFF3108482F3108805682E6866
:100E00009E432E6084F310880468A468640630D57D
:100E1000EFF3108482F310880568AE684027BE4364
:100E2000AE6084F31088456F002D22D02E46203608
:100E300000276F637478022C11D12B681C6800970F
:100E40000E27BC431C601C6894431C60EB6B2C6C2D
:100E50001546A5405D60009B3370727009E03770E5
:100E6000009AAA63426F926B202A02D184214350D8
:100E70000CE05A220023835202680F241462946902
:100E80000C4394618021202242500366C94800210E
:100E90000160416000F01CF801B0F0BD10B5494898
:100EA0000068C149884200D010BD0124A003074951
:100EB0000A6882430A600C20FFF736FEE006C74945
:100EC0000860BFF34F8FBFF36F8F10BD1810024043
:100ED000F0B581B08023F648C15820290AD1856831
:100EE00001210A03954207D10469002C04D1B04CBA
:100EF000E40701D001B0F0BD0024046606687668FE
:100F000036020DD5EFF31085009581F310888E061B
:100F100007683D6835433D60009D85F3108885680E
:100F20005A26815358268153A14E46658466002D6A
:100F300007D0954225460AD10569002D06D1DD4D21
:100F400005E00569002D01D07F2500E0FF258426FE
:100F500084515C2405532224C450EFF3108381F3A1
:100F600010880468A5680D43A56083F310880369A1
:100F70008468944204D1002B14D0134A826603E0A3
:100F8000114A8266002B0FD0EFF3108281F3108894
:100F900009214901006803680B43036082F310884C
:100FA00001B0F0BD094A8266EFF3108281F3108828
:100FB0000068016820230B43036082F3108801B0AE
:100FC000F0BDC046A000002015150008531400080D
:100FD000F0B583B07449884201D003B0F0BD734DC1
:100FE00029787348027873484254491C2970CBB25F
:100FF0000322022B13D34478062C0ED80123A340DE
:101000001C07A40F0BD11224234204D15B069B0FB3
:1010100003D0022203E0042201E000212970C9B2BA
:101020008A4200D9BBE041780678002401940094FC
:10103000102E02D3552E00D0B0E0491E052900D94C
:10104000ACE0C0467944097949008F44021119285F
:101050004363594909788E4200D09FE0408841BAE5
:101060005F480180028860498A4211D901800FE0FF
:10107000514909788E4200D090E08078514906E0CD
:101080004D4909788E4200D088E080784E4908703A
:101090004E48007802287AD16846152179E0464A00
:1010A00011788E427AD145490C804D490C80817867
:1010B000444B1970C07844490870444801210170BC
:1010C0004848802303601078864267D1684606222C
:1010D000027060E03848007886425FD16F46052094
:1010E00078703E7035480188090AB9700088F87038
:1010F00033480068FFF7A6F97871324800783871F4
:1011000031480078B87131480078F871002E45D028
:10111000082140E0552E03D02748007886423DD173
:1011200025480078864205D16846062101700821CD
:1011300000F05CF8EFF3108072B625480068254D8A
:101140002549884207D101204002E9688143E960CE
:101150000320FFF7E9FCB3480068B34988420BD18C
:10116000012001022A698A432A61C0041B490860E0
:10117000BFF34F8FBFF36F8FFFF790FEE0436860C0
:101180006C6028602C60E861EC61FFF7FBFD68464D
:10119000062101700121684600F028F82C70FFF745
:1011A00097FE03B0F0BDC046003801403901002071
:1011B000380100204001002010000020160000200F
:1011C0003401002014000020080000201500002039
:1011D000180000200C1002400024014080E100E0D3
:1011E0001200002000E100E0DE03000070B5304A8C
:1011F000D36F202B0BD1002809D001231B03946847
:101200009C4205D11469C3070ED0002C0CD170BDCF
:1012100084230024D4505023D1522123D3672B4B55
:101220001B685223D1520CE08425002353515025D2
:1012300051532125D567254D2D6852255153002C3A
:1012400034D0002103465224155B1068002D27D0AE
:10125000184D0AE00B882B400385891C0023165B80
:10126000761E1653165B002E1AD0C669360608D4B1
:10127000C669360605D4C669360602D4C66936067E
:10128000F3D5002BE6D01E7806855B1CE7E7C16925
:10129000490608D4C169490605D4C169490602D482
:1012A000C1694906F3D52020D06770BD0146CAE761
:1012B000A0000020FF010000FEE7FEE77047704736
:1012C00002480168491C01607047C046480100207F
:1012D00070470000F0B581B052480068C168022232
:1012E0000B4613405C425C4103691A40554255412C
:1012F00025438026F2430092002D06D1009A7E32CB
:1013000002610022474C22778269012204240C40AA
:10131000674267415C07154600D53D46002D06D162
:10132000009C7C34046100243E4D2C7784690824A1
:101330000C40674267411C07154600D53D46002D0D
:1013400006D1009C783404610024364D2C77C469A2
:1013500010240C4067426741DC06154600D53D4627
:10136000002D06D1009C7034046100242D4D2C7793
:10137000C46901270C463C4065426541DC071446C0
:1013800000D02C46002C23D1009C7F340461264CD5
:10139000A0421DD1254C2478002C19D0244C2025A6
:1013A0002560C468BC43C4601F4C246A214D2C4294
:1013B00008D11D4C246A204D2C4203D11A4D2C68B3
:1013C000BC432C603D24174D2F550024174D2C7025
:1013D0000E40754275411C06144600D52C46002C63
:1013E00001D1009C046140240C40654265415C06CB
:1013F000144600D52C46002C02D1009C40340461D8
:10140000202421404D424D41990603D4002A04D0A6
:1014100001B0F0BD2A46002AFAD10099603101617D
:1014200001B0F0BD58000020002000403001002035
:1014300018000048111100004404000080B5406A03
:101440000146523100220A8152214252FFF7AAFC82
:1014500080BD70B5802142580168222A0FD1024612
:101460005A325388898C1940436D19801188491E5E
:101470001180991C41651188002905D070BD8869CB
:10148000082202438A6170BD02468032EFF3108366
:10149000012181F310880924640105682E68A643A0
:1014A0002E6083F31088EFF3108381F310880468B3
:1014B000A5688D43A56083F3108820231360002264
:1014C0004266826603685B681B020AD5EFF31083ED
:1014D00081F310888C0605682E68A6432E6083F37E
:1014E0001088036E012B11D10266EFF3108281F395
:1014F000108803681C6810218C431C6082F31088DC
:101500000068C269D206B9D5016270BD0068FFF7F4
:101510005FFD70BD70B5802142580168222A10D14C
:1015200002465A325388898C1940436D19701188CC
:10153000491E1180416D491C41651188002905D063
:1015400070BD8869082202438A6170BD02468032FC
:10155000EFF31083012181F31088092464010568E9
:101560002E68A6432E6083F31088EFF3108381F377
:1015700010880468A5688D43A56083F31088202334
:10158000136000224266826603685B681B020AD50C
:10159000EFF3108381F310888C0605682E68A6434C
:1015A0002E6083F31088036E012B11D10266EFF3D6
:1015B000108281F3108803681C6810218C431C6022
:1015C00082F310880068C269D206B9D5016270BD85
:1015D0000068FFF7FDFC70BDF0B582B00568EB69EF
:1015E0000B4000268B4202D1304602B0F0BD019084
:1015F000783000900120C702384C03E0EB690B40C3
:101600008B42F1D023689B1A5B0E32D12B685B07AB
:10161000F4D5EB691B072FD4EB693B42EED02F6268
:10162000EFF31080012282F3108809214901019E05
:1016300033681C688C431C6080F31088EFF31080C3
:1016400082F3108831688B6893438B6080F3108835
:10165000336E03202021012B36D1EFF3108382F368
:101660001088326814681025AC43146083F3108826
:101670002AE0032002B0F0BD08212962EFF31082B6
:1016800080F3108809235B01019E346825689D431F
:10169000256082F31088EFF3108280F3108833689E
:1016A0009C6884439C6082F31088326E012A0BD1BF
:1016B000EFF31082012080F3108833681C68102536
:1016C000AC431C6082F31088009B20229A600022A9
:1016D0003266B2661A70D96002B0F0BD48010020CF
:1016E000F0B587B0C5480668F369376820213846E9
:1016F00003910F407C427C4101210691CA021546AC
:101700002F351D40203D691E8D4125430496B56847
:101710004AD011460F3105930B42034606D0B84913
:10172000194001263540691800D082E0102619467C
:1017300031404D424D41059A114631404F424F4193
:10174000E449096E0129069C00D13C46002C069C08
:10175000049800D12C46002C2FD0802119404842FB
:1017600048411106069C00D50446002C00D1E6E055
:10177000402003405C425C41510600D50694069926
:101780000029D44C00D036E1EFF31081012282F31E
:101790001088226813688343136081F31088002047
:1017A000E0660398E06726E1CA48816E002900D10F
:1017B00021E1C848884707B0F0BD0662806840064E
:1017C00000D5C1E05A22C34DA85A5821695AAA5AD5
:1017D000002A00D10FE1814200D10CE1EFF310812A
:1017E000012080F31088092252012B681C68944361
:1017F0001C6081F31088EFF3108180F310882A6851
:1018000093688343936081F310888021039A6A5020
:101810000021A9662966EFF3108180F310882868FB
:101820000268B243026081F310880220686607B044
:10183000F0BD0192310219404C424C410599C90753
:10184000069800D0204600280296049807D1066228
:101850008421A04A5458029E34435450029E6C4244
:101860006C4105998907069900D5214600290AD1BE
:10187000022101628421974A545800940424009E56
:1018800034435450029E6C426C41059949070699B5
:1018900000D52146002908D10421016284218D4E02
:1018A0007258022414437450029E3D436C426C41B2
:1018B00005990907069D00D52546002D07D1082169
:1018C00001628424834E35590D433551029EB10681
:1018D0000B405C425C410599019A1142069B00D085
:1018E0002346002B7B4C06D1019901628421635869
:1018F000039D2B43635084256159002900D17AE070
:101900000399059A0A407B427B41002A00D0069346
:101910000699002905D1A16E002902D020468847EA
:101920002068615928220A408168402001408918B6
:1019300068D1FFF737FA0020605107B0F0BD654865
:10194000C16E002957D034E7624F796F086842684A
:1019500090B200284FD05823FB5A98424BD25A20BD
:101960003A528969202900D1A9E0EFF310820121C0
:1019700081F31088594B20333C6825681D40256051
:1019800082F31088EFF3108281F310883B689C6823
:101990008C439C6082F31088EFF3108281F31088EF
:1019A0003B689C684025AC439C6082F31088802291
:1019B000039BBB5000223A66EFF3108381F310883B
:1019C0003C682568B543256083F310887D6F2B46FE
:1019D00020335C78022C6ED12C6826680E27BE431B
:1019E000266026688E432660EC6B2D6C0E46AE405A
:1019F0006660597061E007B0F0BDC046A0000020ED
:101A000020010004EFF3108186F3108809225201AF
:101A100023681C6894431C602E4C81F31088EFF3FC
:101A2000108186F3108822689368B343936081F332
:101A30001088216E01290BD1EFF3108186F31088F5
:101A4000226813681024A343224C136081F310888A
:101A50008021039A625000212166A1662268926863
:101A6000520624D5EFF3108286F3108823682546AA
:101A70009C6884439C6082F31088686F002816D0AD
:101A800002462032144B43635378022B1CD1036867
:101A90001C680E25AC431C601C68B4431C60C36BFF
:101AA000046C3546A5405D60117056700EE0FFF77E
:101AB00079F907B0F0BD0421A9631A70054F02211E
:101AC0007966385A07B0F0BD04218163FFF7B6FC90
:101AD00007B0F0BDA00000203D140008DFFEFFFFAE
:101AE00000B599B0D24A10681021049108431060E3
:101AF0007D20C100FA4800681291FEF7ECFC401E00
:101B0000010EF84C10D1F8494860F84802682240AC
:101B100003239B07D218026000228A6007220A6012
:101B200001682140C9180160F14F7869012108431B
:101B3000786178690840149014980E07B8693043AA
:101B4000B861B8693040149014980B91080405905E
:101B500038680007800F0AD038680C210140082936
:101B600000D067E138680599084200D062E1381F6B
:101B70000068381F01688022069211437822109273
:101B800091430160396A0B9A11433962D949096856
:101B90003A6A920720D4D74A1268521A022A00D908
:101BA0006FE13A6A920717D4D24A1268521A022A8F
:101BB00000D966E13A6A92070ED4CE4A1268521AE8
:101BC000022A00D95DE13A6A920705D4C94A12682F
:101BD000521A022ADCD954E1396B042208921143CB
:101BE0003963396B0B9A11433963C24909683A6BFF
:101BF000920720D4BF4A1268521A022A00D940E143
:101C00003A6B920717D4BB4A1268521A022A00D9BB
:101C100037E13A6B92070ED4B64A1268521A022A7A
:101C200000D92EE13A6B920705D4B24A1268521AD3
:101C3000022ADCD925E1396B069A1143109A9143A7
:101C400039633A680C2111910A400B9B5906082A06
:101C500000D08EE03A68BB6A059D2A4200D010E1B0
:101C60000F252B4000D00CE1AB041A400523DB0408
:101C70009A4200D005E1994A1268D20707D1974CE1
:101C800022680123134323602268D2073AD0072237
:101C90000E9212023B6813433B603B68F025AB4356
:101CA000944D3B60006808422CD0386802210991AD
:101CB00008430B998843386028688F493B68119C1A
:101CC0002340082B3CD02B681B1A8B421AD83B6848
:101CD000119C2340082B33D02B681B1A8B4211D840
:101CE0003B68119C2340082B2AD02B681B1A8B427F
:101CF00008D83B68119C2340082B21D02B681B1A65
:101D00008B42DBD9EFF3108072B67C4800687C49C7
:101D1000884207D10120400279698143796103201B
:101D2000FEF702FF774800687749884200D0C9E093
:101D3000012001023B46BA698A43BA61C004BBE094
:101D4000664800683868904338603B681946119AC5
:101D500011406E480829054600D0E4E09902090FB9
:101D60006B4A555CB96A059A134200D0D4E06948C1
:101D7000D8E01A060368934303605E4A126803685A
:101D80000B421DD05B4B1B689B1A022B79D8036852
:101D90000B4215D0574B1B689B1A022B71D8036856
:101DA0000B420DD0534B1B689B1A022B69D803685A
:101DB0000B4205D04F4B1B689B1A022BDFD960E00A
:101DC000BA6A0F239A43BA623D2212043B689343D6
:101DD0000522D2049A183A60424A521C03681343FF
:101DE0000360444A126803680B4200D043E7414B4A
:101DF0001B689B1A022B44D803680B4200D03AE7B9
:101E00003C4B1B689B1A022B3BD803680B4200D04B
:101E100031E7384B1B689B1A022B32D803680B4200
:101E200000D028E7334B1B689B1A022BDBD928E034
:101E300000200240381F01680B9A114301602D49B0
:101E40000A6803689B0700D593E60B689B1A022B70
:101E500017D803689B0700D58BE60B689B1A022BEB
:101E60000FD803689B0700D583E60B689B1A022BEB
:101E700007D803689B0700D57BE60B689B1A022BEB
:101E8000DFD9EFF3108072B61C4800681C49884205
:101E900007D10B9840027969814379610320FEF7ED
:101EA00043FE18480068184988420BD10B9A10026B
:101EB000B9698143B961D004DC490860BFF34F8F31
:101EC000BFF36F8FFEF7EAFF0020C143F960F860AF
:101ED000B960B86079627862FEF754FF0020024072
:101EE00004000020FFFFFF0010E000E020ED00E014
:101EF0000410024048010020881300001800002050
:101F000000240140580000200020004000127A0008
:101F1000F82F000800093D000F221140C44A515C0F
:101F2000FEF7D9FA4543019638680006000FC1A1B3
:101F3000085CC540C348056028461299FEF7CBFAF5
:101F4000401EC14CA04210D8C0494860C048026839
:101F5000224003239B07D218026000228A600E9A57
:101F60000A6001682140C9180160F86A03210A91DA
:101F70008843F8620024189417940B9D690438690B
:101F80000843386138690391084013901398A804F6
:101F90003969014339613969014013911398092066
:101FA000C1060D9120278F61099816901120000419
:101FB00015900498149014AE08463146FEF70CFEB6
:101FC0000A981790169515950F9714970D9F3846F8
:101FD0003146FEF701FE16951594C0201490384640
:101FE0003146FEF7F9FD16951594099D149599480B
:101FF0003146FEF7F1FD169515940A9840021490AB
:1020000038463146FEF7E8FD934908688E4A10408D
:102010000860924906980860914B924D4B20C00190
:102020001D6058609C60DC601C61119A5A619C6163
:10203000DC611C625C62D86F0028129406D02420F8
:10204000D86728680B9CA043286093E010981C5424
:1020500001261896B003844F796901437961796943
:10206000014013911398386903990843386138691E
:10207000084013900A981790169409981590149296
:10208000139814A90D98FEF7A7FD754B724A506975
:102090006D49084075494018401C5061F0066F4971
:1020A00008602420D867586A1D6829680C96B143D7
:1020B0002960002811D00A9F01070B9E0C9C0FD4A9
:1020C000C10715D181071BD4410721D4C10627D4EC
:1020D00081062DD4410633D442E03E460B9C4AE0B3
:1020E000E1036A688A43596B11436960C107E9D00B
:1020F00061046A688A43996A114369608107E3D57C
:1021000021046A688A43D96A114369604107DDD5B1
:10211000A1046A688A43196B11436960C106D7D567
:102120002103AA688A43996B1143A9608106D1D51E
:102130006103AA688A43D96B1143A96041060FD590
:1021400021056A688A43464B1B6C1A436A608B42BE
:10215000434B05D179056A688A43596C114369601C
:10216000000606D50C98C00469688143986C084342
:10217000686034463C4E28683D49014098681A69B9
:1021800002431F465B6913430B43F86903432B600B
:102190000A9909036A688A43F96811436960B96951
:1021A0003A6A0A430B210902AB688B431343AB60C5
:1021B000F16A8907090F2FA25158E603B04202962F
:1021C0001FD10829264B0A9F2E4800D9C8E3490091
:1021D0007944898849008F440800C3037A00C30307
:1021E0006500C303C303C3037900164800681E4992
:1021F000096849054A0F2449895CC840002866D10E
:102200009BE00829164B0A9F1E4C00D9A8E3490001
:102210007944898849008F443900A3038200A303CD
:102220006D00A303A303A3038100C04680E100E087
:102230000830000800000000000000000102030454
:102240000607080904000020FFFFFF0010E000E07F
:1022500020ED00E00004004804E400E000E100E0BC
:10226000A00000200038014004100240FFFFFF3FA3
:10227000F369FFFF000000000400000008000000F8
:102280000200000000127A0018300008FC480468C0
:10229000FC4800684005400FFB49085CC440002C26
:1022A0003DD14AE0F74A14681199214008290ED11E
:1022B000A102090F1346F54A565C996A059A144221
:1022C00000D038E3F2487043F24B97E730464000C5
:1022D00059684A081018FEF7FEF8EE4B0246103A0D
:1022E000059910398A4200D33AE301400007400FB4
:1022F000084321E0E34A10681199014008290ED1F2
:102300008102090F1346E14A565C996A059A104208
:1023100000D01AE3DE4C7443DE4BC0E73446596804
:1023200048080019FEF7D7F8DA4B01461039059A2C
:10233000103A914200D313E3E8600B9CE002696815
:1023400081436960A868082107918843A8602868CC
:10235000204328608420129919509966D966CE4886
:102360000668286800070AD56105CA4D2846324626
:10237000FFF732F9002800D038E32D68C54B2868F4
:10238000400709D5A105C34D28463246FFF724F979
:10239000C04B002800D037E30F99D9670698195031
:1023A0002646129C10981C541C665C66FEF790FD35
:1023B0002420BA4B11901C549E621C623502109569
:1023C000C135B74811C31C605C609E600898083B2B
:1023D0001946143131C170020C90986B0028A94E37
:1023E0001CD134201C54DC631894179470690C9928
:1023F000084370617069084013901398306903991D
:10240000084330613069084013901694159714976B
:10241000139814A90D98FEF7DFFBA04B194638312D
:10242000986BC00600D5ACE218688268520700D5E8
:10243000A7E29C49FE319A6B0A40911C996381681E
:102440003940012906D10168C90711D1C168029A32
:1024500011420DD1C168182291435A688F4B9B6875
:102460000B43C360B90703698B43134303618B4B71
:10247000C1688D4A0A40C260996A491E4A1E91414C
:1024800009031A7E92031F465B7EDB031343BA7E69
:1024900054031C43FB683E6923430B43B11E4C426B
:1024A0004C41A4001C431199795C49002143FB7EF7
:1024B000012B0ED1002A0AD0784CA26B0F9B1A4335
:1024C000A263E26B01231343E363234602E0059A10
:1024D0001143724B0A9FDA69AA4204D06F4B1B6A00
:1024E00019436E4B11436C4CC2680A43C260DA6AEE
:1024F000531E072B00D319E243690E9DAB43436182
:102500002A40436913434361C068684A02408A42D3
:1025100000D02AE20B980503604A1298D06301218B
:102520001491906B119108430999884390630E9818
:102530001690159514A8FEF743F9002800D03FE245
:102540005B4A5C4810605C48106057600B95681EE1
:1025500090602168D2685207584D099B0AD1544AAD
:102560001169574C81422BD114602AE0504AD2683D
:102570005207F4D0484A1268521A282AF6D34C4A15
:10258000D2685207F2D03F4FEFF3108072B6434843
:1025900000684349884206D17869424A1040786110
:1025A0000320FEF7C1FA47480068A84200D06BE25A
:1025B000119B18023A46B9698143B961D8045DE2BA
:1025C00010614048129C846163212F2205604260A3
:1025D0008460C16004613D21425C002A14D13C2228
:1025E000129C8454274FBA69109C2243BA61BA697D
:1025F00022401492149A344FFA68344C2240FA6004
:10260000119AD204324C226043540269069B9A43C9
:102610000E9BDB012C689C431443826922432A6091
:10262000C268EA624268AA62119A6A612A69D2079C
:1026300003D02A69119B9A432A614622119B835435
:102640003E22835402463E3253709370D37042222E
:1026500083540246423253709370D3704354425CA9
:10266000012A0D9B08D1099A4254E8681199084340
:10267000E860286808432860074C0D4F104A2AE09C
:10268000040000200410024018300008F82F000851
:1026900000093D00A0000020480100201800002093
:1026A00000240140FFFDFFFF1902FEFFE7FF3F830B
:1026B00000300040CCCC0000555500000020004008
:1026C000AAAA00005800002004E400E0FFFFFF0079
:1026D00000E100E03A60F2480078012848D0002884
:1026E0005DD1F04D129828700F98986118694005D7
:1026F00003D5287811990843287018690C99084265
:1027000003D02878099908432870EB4800698007AE
:1027100003D428780899084328701869000603D460
:1027200028780799084328701869400603D4287848
:10273000102101432970ED4812990180EA48018077
:10274000E848017020682168091A64290BD82168BB
:10275000091A642907D82168091A642903D821684D
:10276000091A6529EFD3DD48119901703A60B2E783
:102770002068DB490968401ADA490978884256D34B
:102780003E462068D6490860D7480188D74F3A8826
:102790000088914241D2401CCF4A374645E0D2489A
:1027A000129901802068D2490968401A1099F331C2
:1027B00088428FD92068CE4908600E9816900B98F1
:1027C00015901198149014A8FDF7FAFFFEF7DEF8A3
:1027D000FEF78CF8BB480068046CFEF749F9A0B21C
:1027E000FDF722FEC34AC44BFDF73EFDFDF757FE41
:1027F000FDF741FE04460E4600220A92BF4BFDF74C
:1028000033FD07460D46BE48BE4922463346FDF716
:102810001DFD02460B46384644E039888842AE4AE0
:10282000374604D9B0480088401EAF490880206868
:10283000AF490968401A1099F331884200D849E736
:102840002068AB4908600E9816900B981590119867
:10285000149014A8FDF7B4FFFEF798F8FEF746F8B9
:1028600098480068046CFEF703F9A0B2FDF7DCFDA0
:10287000A04AA14BFDF7F8FCFDF711FEFDF7FBFDAB
:1028800007460E4600220A929C4BFDF7EDFC0446DB
:102890000D469B489B493A463346FDF7D7FC024616
:1028A0000B46204629468B4F804CFDF745FDFDF732
:1028B000F6FDFDF7E0FD944A944BFDF7D5FC00F0E2
:1028C000D1F9934A934BFDF7CFFC934A934BFDF715
:1028D00019FC02460B460A989149FDF72DFDFDF7BC
:1028E000DEFDFDF7C8FD864A8E4BFDF70BFCFDF7BC
:1028F000D6FD8D490860FDF7A5FD774A0D9B8B49F4
:102900000978884200DCE5E674480078022800D1A6
:10291000E0E609987149087006986D490860BFF3B0
:102920004F8FBFF36F8F0F989861D3E6019B9A4248
:1029300000D1E1E5E8E50F2211405E4A515CFDF768
:10294000CAFD464330465D4B58E40F2001405948CC
:10295000415C2046FDF7BFFD46433446574B9EE49D
:10296000514F12989866D8666CE0564B986B1021C0
:10297000014309988143996319463C310B980490AF
:10298000494E37460868049A10430860EFF31080F8
:1029900072B618684649884206D178690C9A904305
:1029A00078610320FEF7C0F847480068474988422D
:1029B0006AD13946B869109A9043B8610B985CE0C7
:1029C000394FEFF3108072B63E48006838498842AC
:1029D00006D178693A4A104078610320FEF7A4F8DE
:1029E00039480068394988424ED1E1E52E4FEFF36E
:1029F000108084F3108829680A68069B9A430A604D
:102A000080F310887C3517E0274FEFF3108084F3B4
:102A100010882B49E0312A6813680B40136080F35B
:102A20001088EFF3108084F3108829688A68A24325
:102A30008A6080F310888035129810991F4A50548C
:102A40000F982860EFF3108072B61E48006818498E
:102A5000884207D1012040027969814379610320CE
:102A6000FEF762F818480068184988420CD1012026
:102A700001023B46BA698A43BA61C004144908603E
:102A8000BFF34F8FBFF36F8FFEF708FA1299C84359
:102A9000F860F960B860B96078627962FEF772F93F
:102AA0001500002010000020041002404801002002
:102AB000002401400830000800040048A000002065
:102AC000FFFDFFFF180000205800002000200040FC
:102AD00080E100E000300040AAAA000015000020BC
:102AE0002C010020140000201600002012000020FD
:102AF00028010020B4D934E70C684A3F006AF84046
:102B00006666666666660A40F168E388B5F8E43E84
:102B100081D91E7E6597303F83DBB5DCE1796B3F61
:102B20000000F03F661271C0340100200800002050
:102B30002021020C01D010211046020A01D01046BB
:102B40000839020901D01046091F820801D0104639
:102B5000891E420801D0881E7047081A7047F8B5D0
:102B600004464F1EC8000838211815461E4608683E
:102B700049683A4606239A4310D02A463346FDF761
:102B800073FB3A46D200083AA3181A687F1E5B68A6
:102B9000FDF7B8FA06223B469343EED1022F23D02D
:102BA000042F11D0062F2FD12A463346FDF75CFBA8
:102BB000E36AA26AFDF7A6FA2A463346FDF754FBFC
:102BC000636A226AFDF79EFA2A463346FDF74CFBFC
:102BD000E369A269FDF796FA2A463346FDF744FBFE
:102BE00063692269FDF78EFA2A463346FDF73CFBFE
:102BF000E368A268FDF786FA2A463346FDF734FB00
:102C000063682268FDF77EFAF8BD0000002210B567
:102C1000134610460149FDF78FFB10BD0000F03F41
:102C200010B50122FDF739FD10BD002210B5134685
:102C300010461146FDF780FB10BD02E008C8121FC8
:102C400008C1002AFAD170477047002001E001C195
:102C5000121F002AFBD1704701490860704700002D
:102C600000000020F0B5C54A00248FB091420ADA76
:102C70004B005B08934206D801254A006D05EA42E5
:102C800005D1002803D0FFF7CBFF0FB0F0BD012521
:102C90002D05A94219DA034308D0002910DA0120D2
:102CA000FFF7DAFFFFF7C1FF0FB0F0BD0220FFF71B
:102CB000D3FFFFF7ABFF0122D20751400FB0F0BDA9
:102CC0003524E4433622FDF7E8FC0A15AC4B121913
:102CD000D4180A03120BAB49AB4B56182E403146A1
:102CE000594011430192321512190B920022FDF73F
:102CF000ADFA019A0446921C1003A44E000B0D4637
:102D00007E44032860D2204673683268FDF7F0FCE9
:102D10001CD10B98002815D0FDF7D6FC04460E46B2
:102D20009B4A9C4BFDF7A0FA0D4607469A4A9B4BDF
:102D300020463146FDF798FA3A462B46FDF7E2F970
:102D40000FB0F0BD716830680FB0F0BD944A954B7C
:102D500020462946FDF788FA0022934BFDF77CFABE
:102D600006460F4622462B4610461946FDF77CFACA
:102D700032463B46FDF778FA06460B980F46002888
:102D80001DD0FDF7A1FC824A824B05910490FDF70E
:102D90006BFA32463B46FDF75FFA22462B46FDF7BB
:102DA00055FA04460D467C4A7C4B05990498FDF77C
:102DB0005BFA22462B46FDF749FA0FB0F0BD0B46F1
:102DC000324620462946C4E0012300229B072046C4
:102DD000FDF798F902460B4620462946FDF7ACFA66
:102DE00006460F460B98FDF76FFC32463B460591B1
:102DF000049010461946FDF737FA09910C906B497B
:102E00000198099B421800920C9A19461046FDF74A
:102E10002BFA024607910A90654901980B1A6548FA
:102E2000019303217844079BFFF799FE079B0A9AB9
:102E3000FDF71AFA0E905F480D9104217844079B24
:102E40000A9AFFF78CFE099B0C9AFDF70DFA019B7D
:102E5000009A1A4300920D9B0E9AFDF753F9009ABF
:102E600001910C90002A4DDD0022D24320462946D4
:102E7000FDF713FC22462B46FDF7F6F900910A9068
:102E80000B9800282BD0424A424B05990498FDF735
:102E9000EBF907910E90019B0C9A00990A98FDF7A7
:102EA00031F932463B46FDF7DFF9079B0E9AFDF7F5
:102EB00029F9009B0A9AFDF7CFF922462B46FDF728
:102EC000C5F904460D46344A344B05990498FDF77C
:102ED000CBF922462B46FDF7B9F90FB0F0BD019BA7
:102EE0000C9A0A98FDF70EF932463B46FDF7BCF9FD
:102EF000009B0A9AFDF7B0F922462B46FDF7ACF984
:102F00000FB0F0BD0B98002827D0214A214B05991E
:102F10000498FDF7A9F90791009020462946019BE6
:102F20000C9AFDF793F932463B46FDF79DF9079B56
:102F3000009AFDF78BF922462B46FDF787F90446E8
:102F40000D46154A154B05990498FDF78DF9224653
:102F50002B46FDF77BF90FB0F0BD0B462046294606
:102F60000C9AFDF773F932463B46FDF77DF9224690
:102F70002B46FDF771F90FB0F0BD00000000F07FA7
:102F800001FCFFFF645F09000000F03FEC0200005D
:102F9000763C7935EF39EA3D0000E0FE422EE63F0F
:102FA000555555555555D53F0000E03F86EBF9FF87
:102FB00051B806009001000004FA97999999D93FF9
:102FC000AF788E1DC571CC3F9FC678D0099AC33F9C
:102FD000935555555555E53F599322942449D23F71
:102FE000DE03CB966446C73F44523EDF12F1C23F38
:102FF00000000000000000000203040506070809A5
:103000000A0B0C0D0E0F1010010203040506070831
:10301000090A0B0C0D0E0F10000000000102030442
:103020004030000800000020100000003A2C00088A
:103030005030000810000020400500004A2C000815
:103040000000000000127A005A000000000000009A
:04000005080000B13E
:00000001FF
